:020000040800F2
:10000000B8040020A101000803100008430F0008F5
:1000100001100008BD0200082513000800000000C0
:1000200000000000000000000000000007100008B1
:10003000BF020008000000000510000809100008B9
:10004000BB010008BB010008BB010008BB010008A0
:10005000BB010008BB010008BB010008BB01000890
:10006000BB010008BB010008BB010008BB01000880
:10007000BB010008BB010008BB010008BB01000870
:10008000BB010008BB010008BB010008BB01000860
:10009000BB010008BB010008BB010008BB01000850
:1000A000BB010008BB010008BB010008BB01000840
:1000B000BB010008BB010008BB010008BB01000830
:1000C000BB010008BB010008BB010008BB01000820
:1000D000BB010008BB010008BB010008BB01000810
:1000E000BB010008BB010008BB010008BB01000800
:1000F000BB010008BB010008BB010008BB010008F0
:10010000BB010008BB010008BB010008BB010008DF
:10011000BB010008BB010008A5100008BB010008D6
:10012000BB010008BB010008BB010008BB010008BF
:10013000BB010008BB010008BB010008BB010008AF
:10014000BB010008BB010008BB010008BB0100089F
:10015000BB010008BB010008BB010008BB0100088F
:10016000BB010008BB010008BB010008BB0100087F
:10017000BB010008BB010008BB0100080000000033
:10018000BB010008BB010008DFF810D000F084F8C4
:100190000048004765130008AFF30080B804002052
:1001A0000648804706480047FEE7FEE7FEE7FEE711
:1001B000FEE7FEE7FEE7FEE7FEE7FEE78910000840
:1001C000890100082DE9F05F0546002092469B4614
:1001D00088460646814640241BE02846414647465D
:1001E000224600F048F853465A46C01A914110D3AF
:1001F00011461846224600F02FF82D1A67EB010829
:100200004F4622460120002100F026F817EB000996
:100210004E41201EA4F10104DFDC484631462A4647
:100220004346BDE8F09FD2B201E000F8012B491E21
:10023000FBD270470022F6E710B513460A46044683
:100240001946FFF7F0FF204610BD421C10F8011BB5
:100250000029FBD1801A7047202A04DB203A00FADB
:1002600002F1002070479140C2F1200320FA03F30D
:10027000194390407047202A04DB203A21FA02F00B
:100280000021704721FA02F3D040C2F120029140D0
:100290000843194670470000064C074D06E0E06829
:1002A00040F0010394E8070098471034AC42F6D3BD
:1002B000FFF76EFFFC1300081C140008FEE77047F0
:1002C0002DE9F84F00224FF0010803254FF00F0EE3
:1002D0000B6808FA02F42340A3426ED14E68012E47
:1002E00005D0022E03D0112E01D0122E12D1866815
:1002F0004FEA420C05FA0CF7BE43CF6807FA0CF739
:10030000374387604668A6430C79C4F300149440D1
:1003100034434460C668570005FA07FC8C6826EA37
:100320000C06BC403443C4604C68022C01D0122C33
:1003300013D1D40800EB8404A346D4F820905407CA
:100340004FEAD46A0EFA0AF629EA06090E6906FA95
:100350000AF646EA0906CBF8206006680C7926EA18
:100360000C0604F00304BC40344304604C68E40011
:1003700065D5364C266846F480462660246822F00F
:10038000030604F480440094314C3444A446D4F869
:1003900008489607370F0EFA07F6B4432D4EB042C1
:1003A00001D1002624E02C4EB04201D101261FE0ED
:1003B0002A4EB04202D102261AE040E0284EB04256
:1003C00001D1032614E0274EB04201D104260FE0EC
:1003D000254EB04201D105260AE0244EB04201D19B
:1003E000062605E0224EB04201D1072600E008268D
:1003F000BE402643CCF808681E4E34684F689C43C4
:10040000FF0300D51C4334601A4C241D26684F6836
:100410009E43BF0300D51E432660164E083634683F
:100420004F689C43FF0200D51C433460114E0C36CC
:1004300034684F689C43BF0200D51C433460521C93
:10044000102AFFF445AFBDE8F88F000044380240A1
:100450000030014000000240000402400008024059
:10046000000C02400010024000140240001802403C
:10047000001C0240003C01400AB181617047090440
:10048000FBE700000148806870470000280000205A
:10049000024881680278114481607047280000207A
:1004A0000B4810B5016841F400710160016841F426
:1004B00080610160016841F480710160032000F0F7
:1004C00071F8002000F006F800F024F8002010BDBC
:1004D000003C024070B50D4D04464FF47A71287807
:1004E000B1FBF0F00A490968B1FBF0F000F004FB41
:1004F00048B9102C07D200222146501E00F032F8D5
:1005000000206C6070BD012070BD0000280000203C
:10051000340000200B4882B0016841F48041016042
:10052000006800F4804000900648001F016841F018
:1005300080510160006800F080500090072002B0F8
:1005400000F030B844380240002809DB00F01F02F8
:10055000012191404009800000F1E020C0F8001125
:1005600070470000F0B40E4B1B680C46C3F3022327
:10057000C3F10705042D00D90425191D072901D24F
:10058000002300E0DB1E012606FA05F1491E21408A
:1005900099409E40761E16403143F0BC00F0C3BE29
:1005A0000CED00E0064900F0070208684FF6FF0373
:1005B000184040EA0220034A1043086070470000D8
:1005C0000CED00E00000FA052DE9F0470E460500AD
:1005D00065D0DFF81481D8F80000F7B200F00F0002
:1005E000B04207D288F80070D8F8000000F00F0081
:1005F000B04254D128683D4C810712D5400703D53D
:10060000206840F4E05020602878000703D5206877
:1006100040F4604020602068A96820F0F0000843A2
:1006200020602878C0072DD0304968680839012833
:1006300012D0022813D0032811D009688907002995
:100640002DDA216821F0030101432160FFF71AFF31
:10065000814641F2883A0EE009688903EFE70968AC
:100660008901ECE7FFF70EFFA0EB0901514502D924
:100670000320BDE8F0872068696800F00C00B0EB4B
:10068000810FEFD1D8F80010404601F00F01B142C0
:1006900007D90770006800F00F00B04201D00120B8
:1006A000E7E72878400705D52068E96820F4E0509E
:1006B000084320602878000706D52068296920F4BF
:1006C000604040EAC100206000F038F82168084A24
:1006D000C1F30311515CC840064908600648006830
:1006E000FFF7F8FE0020C4E7003C02400838024053
:1006F000E4130008340000202C00002004480549C1
:1007000000680968044AC1F38221515CC8407047FF
:100710003400002008380240F4130008044805495A
:1007200000680968044AC1F34231515CC84070470F
:100730003400002008380240F4130008154810B5B2
:10074000006810F00C02144813D04110042A0FD096
:10075000082A0ED10F4C241F2268236802F03F02A2
:100760005B0207D52068C0F38810A0FB010106E0FA
:10077000084610BD2168C1F38811A1FB00010023C8
:10078000FFF720FD2168C1F30141491C4900B0FB7E
:10079000F1F010BD083802400024F4002DE9F84FB4
:1007A00004006ED02078DFF83C93C007A9F104055F
:1007B0004AD009F104000168C1F38101012908D080
:1007C0000068C0F3810002280AD1D9F80000400275
:1007D00006D52868800337D560680028E1D033E06B
:1007E0006068B0F5803F10D0B0F5A02F286810D019
:1007F00020F480302860286820F480202860606819
:10080000A8B1FFF73FFE06460DE0286840F48030AF
:10081000F4E740F480202860F7E700BFFFF732FEDE
:10082000801B642873D828688003F7D50CE0FFF795
:1008300029FE064605E000BFFFF724FE801B642862
:10084000F0D828688003F7D42078DFF89C828007EE
:100850004FF0000A3ED5A348001D016811F00C0FAF
:1008600008D00068C0F3810002280BD1D9F800003D
:10087000400207D42868800716D5E068012800D117
:1008800012E02BE1E068B8B10120C8F80000FFF7E2
:10089000F9FD064605E000BFFFF7F4FD801B0228C6
:1008A000C0D828688007F7D52868216920F0F800AB
:1008B00040EAC10028600DE0C8F800A0FFF7E2FDA3
:1008C000064604E0FFF7DEFD801B02281FD82868DB
:1008D0008007F7D42078000722D5824E83486169CB
:1008E000703671B101210160FFF7CCFD074604E0CD
:1008F000FFF7C8FDC01B022809D830688007F7D56C
:100900000EE0C0F800A0FFF7BDFD074605E082E05D
:10091000FFF7B8FDC01B02287DD830688007F7D4E8
:100920002078400768D5DFF8BCB100270BF13C0BFD
:10093000DBF80000C0000BD4DBF8001041F0805160
:10094000CBF80010DBF80000012700F08050009089
:10095000674E3068C00510D4306840F48070306055
:10096000FFF790FD009005E0FFF78CFD0099401A1D
:10097000022850D83068C005F6D55A4EA0686C36AB
:1009800001280FD00528306810D020F00100306019
:10099000306820F004003060A068B8B1FFF772FD45
:1009A00000900FE0306840F00100F4E740F00400F0
:1009B0003060F7E7FFF766FD0099411A41F2883091
:1009C000814266D830688007F4D50EE0FFF75AFD03
:1009D000009007E0FFF756FD0099411A41F2883078
:1009E000814256D830688007F4D42FB1DBF800106C
:1009F00021F08051CBF80010A069C8B33949091D16
:100A00000968C1F3810102294AD00228504607D063
:100A1000C8F8600000E03CE0FFF734FD04463BE02E
:100A20004746C8F86000FFF72DFD064605E000BF09
:100A3000FFF728FD801B02282BD828688001F7D4F7
:100A4000D4E907010843A16A2A4A490802EB014197
:100A5000626A41EA8211084394F82C1040EA01616D
:100A6000C9F8001001203866FFF70CFD044606E0C7
:100A700036E000BFFFF706FD001B022809D82868F2
:100A80008001F7D52CE000BFFFF7FCFC001B02281B
:100A900002D90320BDE8F88F28688001F4D41FE054
:100AA0000128F7D0D9F80000E26900F480019142F2
:100AB00014D1226A00F03F0191420FD147F6C07174
:100AC000626A0140914209D1A26A00F44031914228
:100AD00004D1E16A00F07060884201D00120D9E7BA
:100AE0000020D7E70438024000004742800E47420A
:100AF000007000400000FFFF10B5401EB0F1807F85
:100B000001D3012010BD4FF0E02460610F21601778
:100B100000F009FC0020A06107202061002010BD2A
:100B20007047704770B590F83C20012A32D00124FC
:100B300080F83C40022280F83D2003685A689D6896
:100B400022F070060A6832435A60134B02689A42D8
:100B500014D0B2F1804F11D0104B9A420ED0104BEE
:100B60009A420BD00F4B9A4208D00F4B9A4205D0B5
:100B70000E4B9A4202D00E4B9A4204D1496825F09E
:100B800080031943916080F83D40002180F83C10BB
:100B9000084670BD022070BD000001400004004006
:100BA00000080040000C00400004014000400140EB
:100BB0000018004010B5040003D094F83D0010B1B7
:100BC00007E0012010BD002084F83C00204600F022
:100BD0000DF8022084F83D00211D206800F078FA0D
:100BE000012084F83D00002010BD000008B5006819
:100BF0000B49884212D10B48016841F01001016095
:100C00000068002200F01000009011463620FFF727
:100C1000A9FCBDE808403620FFF796BC08BD0000DF
:100C20000010004040380240704770B5044600682C
:100C300001694FF00005C943890715D4C168C9434C
:100C4000890711D4E91E016101202077206880699D
:100C50008007204602D0FFF7E7FF04E000F098F895
:100C6000204600F096F8257720680169C9434907B6
:100C700017D4C168C943490713D46FF00401016157
:100C8000022020772068806910F4407F204602D03F
:100C9000FFF7CAFF04E000F07BF8204600F079F887
:100CA000257720680169C943090716D4C168C9437B
:100CB000090712D46FF00801016104202077206831
:100CC000C0698007204602D0FFF7AEFF04E000F0C5
:100CD0005FF8204600F05DF8257720680169C94378
:100CE000C90617D4C168C943C90613D46FF01001EF
:100CF0000161082020772068C06910F4407F2046F9
:100D000002D0FFF791FF04E000F042F8204600F027
:100D100040F8257720680169C943C90708D1C1682F
:100D2000C943C90704D1891E0161204600F032F889
:100D300020680169C943090609D4C168C943090685
:100D400005D46FF0800101612046FFF7E9FE2068BD
:100D50000169C943490609D4C168C943490605D494
:100D60006FF040010161204600F028F82068016919
:100D7000C94389060BD4C168C943890607D46FF0FB
:100D8000200101612046BDE87040FFF7CABE70BD7A
:100D90007047704710B50748FFF757FA82B24FF017
:100DA000FF330449044800F06FF8002801D172B6FF
:100DB000FEE710BD0000002078000020704770B5ED
:100DC000040004D094F83900002510B106E0012099
:100DD00070BD84F83850204600F022F8242084F8B2
:100DE00039002068C16821F40051C160204600F03C
:100DF000D3F92068016921F49041016120684169BB
:100E000021F02A0141612068C16841F40051C160AC
:100E1000E563202084F8390084F83A00002070BD92
:100E200010B586B0044614216846FFF703FA13494B
:100E30002068884220D112480021026842F4003222
:100E40000260006800F4003005900D481038026818
:100E500042F001020260006800F0010005900C20E1
:100E600000900220CDE901010320039007200490A7
:100E700069460448FFF724FA06B010BD004400405C
:100E800040380240000002402DE9F843044690F843
:100E900039001F4616460D46202850D1B5B1AEB1D7
:100EA00094F8380001284AD0012084F838004FF027
:100EB0000008C4F83C80212084F83900FFF7E2FAEA
:100EC000A6848146E68484F8388026E00120BDE8C7
:100ED000F883E08C401EE084A0684B46B0F5805F4C
:100EE0004FF000024FF080012046009703D000F041
:100EF000E7F9E8B90DE000F0E3F9C8B928882168FE
:100F0000C0F308004860206908B16D1C05E0AD1C05
:100F100003E0216815F8010B4860E08C0028D8D167
:100F20004B46002240212046009700F0C9F908B145
:100F30000320CCE7202084F839000020C7E70220F6
:100F4000C5E7FEE72DE9F0418CB014216846FFF7B4
:100F500071F926480024016841F00101016001682F
:100F600001F001010A91016841F00201016001688C
:100F700001F002010A91016841F008010160006876
:100F80001B4F00F008004FF470460A9000223146D3
:100F90003846FFF771FA012516480095CDE901049E
:100FA000DFF8548069464046FFF78AF90420CDE90E
:100FB0000004694611480294FFF782F90096CDE9D2
:100FC0000154694638460394FFF77AF9142105A8BD
:100FD000FFF730F9A8020794CDE9050505A94046B9
:100FE000FFF76EF90CB0BDE8F08100003038024028
:100FF000000C0240000011100000024000040240FA
:10100000FEE7FEE770477047FFF742BA10B592B0AF
:1010100030216846FFF70EF914210CA8FFF70AF9F2
:1010200017480024016841F080510160006800F019
:10103000805011901348016841F4804101600068BC
:10104000069400F48040119002200090012003904B
:10105000102004906846FFF7A1FB08B172B6FEE7C6
:101060000F20CDE90C040E940F9400210CA81094CD
:10107000FFF7AAFA002801D072B6FEE712B010BD41
:1010800040380240007000400548016841F470019A
:10109000016003494FF0006080390860704700002C
:1010A00088ED00E070B50122074D940221462846E4
:1010B000FFF7E2F90548FFF7B8FD21462846BDE8ED
:1010C00070400022FFF7D8B900000240380000202D
:1010D000F0B50268254C264D264E274F274B4FF082
:1010E000804CA04209D0604507D0A84205D0B0424C
:1010F00003D0B84201D0984204D122F0700E4A6861
:1011000042EA0E02A0421BD0604519D0A84217D077
:10111000B04215D0B84213D0984211D0184DA84211
:101120000ED0184DA8420BD0174DA84208D0174D2D
:10113000A84205D0164DA84202D0164DA84203D1B0
:1011400022F44075CA682A434D6922F080022A437E
:1011500002608A68C2620A688262A04201D0984234
:1011600001D10969016301214161F0BD0000014025
:101170000004004000080040000C00400004014052
:101180000040014000440140004801400018004078
:10119000001C0040002000402DE9F041044600689A
:1011A0000169E26821F44051114301612169A0689D
:1011B000E26908436169114308432168CA6849F23A
:1011C0000C639A430243CA6020684169A26921F412
:1011D000407111434161E069192764253226B0F559
:1011E000004F354A354920684FF0000806D0884244
:1011F00001D0904236D1FFF791FA35E0884201D014
:10120000904202D1FFF78AFA01E0FFF777FA6168AE
:101210004A18A0FB070148EB0803FEF7D3FF01467D
:10122000B0FBF5F00201B1FBF5F06FF01803584385
:1012300001EB800006EBC000B0FBF5F000F0F80019
:1012400002EB4002B1FBF5F0584301EB800006EBE6
:10125000C000B0FBF5F000F0070021681044886082
:10126000BDE8F081FFF74AFA61688B0F8A00A0FBA6
:101270000701FEF7A7FF0146B0FBF5F06FF018027B
:10128000504301EB800006EB0010B0FBF5F000F0DE
:10129000F002B1FBF5F002EB0012B1FBF5F06FF0DC
:1012A0001803584301EB800006EB0010B0FBF5F08B
:1012B00000F00F00D1E700000014014000100140D1
:1012C0002DE9F041984617460E460446069D1DE05E
:1012D000681C1BD02DB1FFF7D5F8A0EB0800A84281
:1012E00014D92068C16821F4D071C16020684169B7
:1012F00021F001014161202084F8390084F83A008E
:10130000002084F838000320BDE8F08120680068E0
:1013100036EA000004D00020B842D9D00020F3E71C
:101320000120F9E7FEE70907090E002804DB00F1B8
:10133000E02080F80014704700F00F0000F1E0207A
:1013400080F8141D704702E008C8121F08C1002A67
:10135000FAD170477047002001E001C1121F002A36
:10136000FBD170471CB5FFF79BF8FFF74FFEFFF767
:10137000E9FD002419480094174D019441F287318A
:101380000560C0E901141F218461C160FFF712FCF0
:1013900008B172B6FEE70094694610480194FFF761
:1013A000C1FB08B172B6FEE70C480D494030016040
:1013B0004FF4E131C0E901140C21C460C0E90441DB
:1013C0008461C461FFF7FBFC08B172B6FEE72C61D3
:1013D0000248FFF7EFFBFEE7001000403800002056
:1013E000004400400000000000000000010203046F
:1013F0000607080900000000010203041C1400088D
:1014000000000020380000004613000854140008B3
:101410003800002080040000561300085765206142
:1014200072652074657374696E6720534C4545502E
:101430004F4E4558495420666561747572650D0AB2
:10144000000000000100000010000000000000008B
:041450000024F40080
:040000050800018965
:00000001FF
