:020000040800F2
:1000000038440020610200080D130008A312000804
:1000100009130008A9030008A11900080000000046
:10002000000000000000000000000000A101000826
:10003000AD03000800000000FD01000811130008D6
:100040007B0200087B0200087B0200087B0200089C
:100050007B0200087B0200087B0200087B0200088C
:100060007B0200087B0200087B0200087B0200087C
:100070007B0200087B0200087B0200087B0200086C
:100080007B0200087B0200087B0200087B0200085C
:100090007B0200087B0200087B0200087B0200084C
:1000A0007B0200087B0200087B0200087B0200083C
:1000B0007B0200087B0200087B0200087B0200082C
:1000C0007B0200087B0200087B0200087B0200081C
:1000D0007B0200087B0200087B0200087B0200080C
:1000E0007B0200087B0200087B0200087B020008FC
:1000F0007B0200087B0200087B0200087B020008EC
:100100007B0200087B0200087B0200087B020008DB
:10011000D91300087B0200087B0200087B0200085C
:100120007B0200087B0200087B0200087B020008BB
:100130007B0200087B0200087B0200087B020008AB
:100140007B0200087B0200087B0200087B0200089B
:100150007B0200087B0200087B0200087B0200088B
:100160007B0200087B0200087B0200087B0200087B
:100170007B0200087B0200087B02000800000000F0
:100180007B0200087B020008DFF810D000F0FAF8CC
:1001900000480047851B0008AFF30080384400206A
:1001A0002C4B19680868B0E8F04F80F30988BFF35A
:1001B0006F8F4FF0000080F311887047000000003F
:1001C00008480068006880F308884FF0000080F35A
:1001D000148862B661B6BFF34F8FBFF36F8F00DF35
:1001E00000BF00BF08ED00E0DFF80C00016841F43B
:1001F00070010160704700BF88ED00E0EFF30980F7
:10020000BFF36F8F134B1A681EF0100F08BF20ED5D
:10021000108A20E9F04F106009B44FF0500080F3CD
:100220001188BFF34F8FBFF36F8F02F0FDF94FF0CE
:10023000000080F3118809BC19680868B0E8F04F25
:100240001EF0100F08BFB0EC108A80F30988BFF3CE
:100250006F8F704720000020EFF30580704700008B
:100260000648804706480047FEE7FEE7FEE7FEE750
:10027000FEE7FEE7FEE7FEE7FEE7FEE7BD13000848
:10028000890100082DE9F05F0546002092469B4653
:1002900088460646814640241BE02846414647469C
:1002A000224600F05EF853465A46C01A914110D3D8
:1002B00011461846224600F045F82D1A67EB010852
:1002C0004F4622460120002100F03CF817EB0009C0
:1002D0004E41201EA4F10104DFDC484631462A4687
:1002E0004346BDE8F09FD2B201E000F8012B491E61
:1002F000FBD270470022F6E710B513460A460446C3
:100300001946FFF7F0FF204610BD421C10F8011BF4
:100310000029FBD1801A704730B50B4601460020FA
:100320002022012409E021FA02F59D4205D303FAB7
:1003300002F5491B04FA02F52844151EA2F1010238
:10034000F1DC30BD202A04DB203A00FA02F1002063
:1003500070479140C2F1200320FA03F31943904003
:100360007047202A04DB203A21FA02F0002170476E
:1003700021FA02F3D040C2F120029140084319460D
:1003800070470000064C074D06E0E06840F00103AE
:1003900094E8070098471034AC42F6D3FFF7F8FE14
:1003A000F42B0008142C000800BFFEE7704772B65B
:1003B00000BFFEE7014691F83500022803D08020F7
:1003C000486501207047052081F8350008680068FD
:1003D00020F001000A6810600020F3E7F8B502463B
:1003E0000B460025002400200021DCE0012606FA4F
:1003F00001F51E6806EA0504AC4273D15E68012E61
:1004000008D05E68022E05D05E68112E02D05E68AC
:10041000122E13D190684F000326BE40B0434F0008
:10042000DE68BE4030439060506801268E40B04385
:100430001E79C6F300168E4030435060D0684F00DE
:100440000326BE40B0434F009E68BE403043D0609C
:100450005E68022E02D05E68122E13D1CF0802F120
:10046000200656F827004E07F70E0F26BE40B04371
:100470004F07FF0E1E69BE403043CF0802F1200631
:1004800046F8270010684F000326BE40B0431E798F
:1004900006F003064F00BE40304310605E6806F071
:1004A0008056B6F1805F7DD100BF00260096404E99
:1004B000366846F480463E4F3E603E46366806F457
:1004C0008046009600BF00BF3A4E8F0856F82700BE
:1004D0008E07370F0F26BE40B043374EB24202D1CF
:1004E000002624E05EE0354EB24201D101261EE036
:1004F000334EB24201D1022619E0324EB24201D14E
:10050000032614E0304EB24201D104260FE02F4EF4
:10051000B24201D105260AE02D4EB24201D1062693
:1005200005E02C4EB24201D1072600E008268F07D5
:100530003F0FBE4030431F4E8F0846F82700264E1F
:100540003068A0435E6806F48036B6F5803F00D17F
:100550002043214E3060361D3068A0435E6806F4AB
:100560000036B6F5003F00D120431B4E361D3060EB
:10057000361D3068A0435E6806F48016B6F5801F0D
:1005800000D12043144E08363060361D3068A04339
:100590005E6806F40016B6F5001F00D120430E4E2B
:1005A0000C363060491C1029FFF420AFF8BD000064
:1005B0004438024008380140000002400004024074
:1005C00000080240000C02400010024000140240EB
:1005D00000180240001C0240003C01400AB1816149
:1005E00001E00B0483617047014800687047000018
:1005F00010000020034800680349097808440149B5
:1006000008607047100000201800002010B50D4849
:10061000006840F400700B4908600846006840F428
:10062000806008600846006840F48070086003201D
:1006300000F0A8F80F2000F007F800F02BF80020D9
:1006400010BD0000003C024070B504460E48007822
:100650004FF47A71B1FBF0F00C490968B1FBF0F589
:10066000284600F027FC08B1012070BD102C07D2ED
:1006700000222146501E00F047F80548046001E0C2
:100680000120F2E70020F0E7180000201C00002005
:100690001400002008B500BF002000901148006839
:1006A00040F480400F4908600846006800F480402C
:1006B000009000BF00BF00BF00200090081F00682E
:1006C00040F08050091F08600846006800F0805024
:1006D000009000BF00BF00220F21901E00F014F810
:1006E00008BD00004438024001460846002809DBE6
:1006F00000F01F0301229A4043099B0003F1E0230D
:10070000C3F8002100BF70472DE9F05F80460D4619
:100710001646002701F05AF9074639462A4633465D
:1007200001F00700C0F1070ABAF1040F02D94FF037
:10073000040A01E0C0F1070AD14600F1040ABAF147
:10074000070F02D24FF0000A01E0A0F1030AD446DD
:100750004FF0010A0AFA09FAAAF1010A0AEA020AA2
:100760000AFA0CFA4FF0010B0BFA0CFBABF1010B80
:100770000BEA030B4AEA0B042146404601F02EF92E
:10078000BDE8F09F00BF00F00702064B19684FF666
:10079000FF031940044B0B4343EA0221014B19604C
:1007A00000BF70470CED00E00000FA0570B504468C
:1007B0000D460CB9012070BD5848006800F00F00CC
:1007C000A84209D255490D700846006800F00F0094
:1007D000A84201D00120EEE7207800F002000228B4
:1007E0001DD1207800F00400042805D14C48006891
:1007F00040F4E0504A490860207800F008000828DA
:1008000005D14748006840F46040454908604448C5
:10081000006820F0F000A168084341490860207892
:1008200000F00100A8B36068012807D13C480838EF
:100830000068C0F34040B8B90120BCE760680228F6
:1008400002D06068032807D1354808380068C0F333
:10085000406048B90120AEE7314808380068C0F36D
:10086000400008B90120A6E72D48006820F00300E9
:10087000616808432A490860FFF7B6FE064609E0AA
:10088000FFF7B2FE801B41F28831884202D9032073
:1008900091E707E02248006800F00C006168B0EBC7
:1008A000810FEDD11D48006800F00F00A84209D962
:1008B0001A490D700846006800F00F00A84201D0E8
:1008C000012078E7207800F00400042807D11448BC
:1008D000006820F4E050E16808431149086020787E
:1008E00000F00800082808D10D48006820F4604096
:1008F000216940EAC1000A49086000F03FF8084950
:100900000968C1F30311074A515CC84006490860F1
:1009100006480068FFF798FE00204CE7003C0240C4
:1009200008380240DC2B00081C00002014000020C6
:1009300001480068704700001C00002000B5FFF768
:10094000F7FF04490968C1F38221034A515CC8409A
:1009500000BD000008380240EC2B000800B5FFF78E
:10096000E7FF04490968C1F34231034A515CC840BA
:1009700000BD000008380240EC2B00082DE9F047CC
:10098000002400250026A1462548006800F00C0040
:1009900020B1042805D008283AD105E0DFF884907A
:1009A00039E0DFF8849036E01D48001F006800F051
:1009B0003F041B48001F006800F4800078B11A480B
:1009C0001749091F0968C1F38811A0FB017001468E
:1009D000224600233846FFF755FC05460EE0114835
:1009E0000F49091F0968C1F38811A0FB0170014676
:1009F000224600233846FFF745FC05460848001FFD
:100A00000068C0F30140401C4600B5FBF6F902E067
:100A1000DFF8109000BF00BF4846BDE8F087000037
:100A2000083802400024F40040787D01F8B50446FF
:100A30000CB90120F8BD207800F00100002874D026
:100A4000F948006800F00C0004280DD0F648006852
:100A500000F00C00082813D1F348001F006800F4D0
:100A60008000B0F5800F0BD1EF4808380068C0F364
:100A70004040002859D06068002856D10120D9E7AD
:100A800000BF6068B0F5803F08D1E74808380068CB
:100A900040F48030E449083908601EE06068B0F531
:100AA000A02F0DD1E0480838006840F48020DE49CE
:100AB000083908600846006840F4803008600CE09F
:100AC000D9480838006820F48030D74908390860D0
:100AD0000846006820F48020086000BF606890B17C
:100AE000FFF782FD054606E0FFF77EFD401B642808
:100AF00001D903209EE7CC4808380068C0F3404085
:100B00000028F1D011E0FFF76FFD054606E0FFF782
:100B10006BFD401B642801D903208BE7C2480838CD
:100B20000068C0F340400028F1D1207800F00200B6
:100B300002285FD1BC48006800F00C0058B1BA48E8
:100B4000006800F00C0008281CD1B748001F00689E
:100B500000F48000B0B9B44808380068C0F3400021
:100B600020B1E068012801D0012063E7AE480838D1
:100B7000006820F0F800216940EAC100AA4908395C
:100B8000086037E0E06800B30120A8490860FFF77B
:100B90002BFD054606E0FFF727FD401B022801D983
:100BA000032047E7A04808380068C0F34000002849
:100BB000F1D09D480838006820F0F800216940EA2B
:100BC000C10099490839086014E00020974908607D
:100BD000FFF70AFD054606E0FFF706FD401B022869
:100BE00001D9032026E7904808380068C0F3400088
:100BF0000028F1D1207800F0080008282CD1606985
:100C0000A8B101208A490860FFF7EEFC054606E01E
:100C1000FFF7EAFC401B022801D903200AE78248BB
:100C20006C300068C0F340000028F1D014E00020D0
:100C30007F490860FFF7D8FC054606E0FFF7D4FCC3
:100C4000401B022801D90320F4E677486C30006885
:100C5000C0F340000028F1D1207800F004000428FF
:100C600070D1002770483830006800F0805090B98B
:100C700000BF002000906C483830006840F0805081
:100C80006949383108600846006800F080500090DB
:100C900000BF00BF01276748006800F48070B0B94A
:100CA0006448006840F4807062490860FFF79CFC6B
:100CB000054606E0FFF798FC401B022801D90320F7
:100CC000B8E65C48006800F480700028F2D000BFED
:100CD000A068012808D154486830006840F001003D
:100CE0005149683108601DE0A06805280DD14E48C3
:100CF0006830006840F004004B49683108600846DD
:100D0000006840F0010008600CE047486830006867
:100D100020F001004449683108600846006820F06E
:100D20000400086000BFA068A8B1FFF75DFC05469D
:100D300009E0FFF759FC401B41F28831884202D993
:100D4000032077E626E0384868300068C0F34000AA
:100D50000028EED013E0FFF747FC054608E0FFF758
:100D600043FC401B41F28831884201D9032061E6EF
:100D70002D4868300068C0F340000028EFD1012FF3
:100D800007D129483830006820F080502649383192
:100D9000086000BFA069002845D02348006800F023
:100DA0000C0008285DD0A069022845D100201F4909
:100DB0000866FFF719FC054606E0FFF715FC401B27
:100DC000022801D9032035E6174808380068C0F327
:100DD00040600028F1D1D4E907010843616A40EA84
:100DE00081110122A06AC2EB500041EA00412C208F
:100DF000005D41EA00600C49091F086001200B49B1
:100E00000866FFF7F1FB054606E0FFF7EDFB401B28
:100E1000022801D903200DE6034808380068C0F312
:100E200040600028F1D03FE008380240000047420F
:100E3000800E47420070004000201C490866FFF702
:100E4000D3FB054606E0FFF7CFFB401B022801D984
:100E50000320EFE516480068C0F340600028F2D197
:100E600022E0A069012800D1E4E51148001D0668D0
:100E700006F48001E069814214D106F03F01206A46
:100E800081420FD147F6C0703040616A884209D173
:100E900006F44031A06A814204D106F07061E06A34
:100EA000814201D00120C5E50020C3E50000474292
:100EB0000038024070B504462546681EB0F1807FB8
:100EC00001D301200FE0681E4FF0E02148610F219F
:100ED0004FF0FF3000F082FD00204FF0E0218861EC
:100EE00007200861002070BD704700002DE9F04721
:100EF0000446206805682068C668206847694FF086
:100F00000008C14605F00F08B8F1000F0AD105F03E
:100F1000200038B106F0200020B1204600F08EFA03
:100F2000BDE8F087B8F1000F72D007F0010018B9E2
:100F300006F4907000286BD005F0010030B106F483
:100F4000807018B1E06B40F00100E06305F0040030
:100F500030B107F0010018B1E06B40F00200E0632F
:100F600005F0020030B107F0010018B1E06B40F06D
:100F70000400E06305F0080048B106F0200010B955
:100F800007F0010018B1E06B40F00800E063E06B8F
:100F900070B305F0200028B106F0200010B1204603
:100FA00000F04CFA20684069C0F38019E06B00F053
:100FB000080010B9B9F1000F23D0204600F01EFA46
:100FC0002068406900F04000402816D12068406940
:100FD00020F0400021684861606B50B11748616B98
:100FE0000865606BFFF7E6F910B1606B016D88472B
:100FF0000CE02046FFF778FF08E02046FFF774FF7B
:1010000004E02046FFF770FF0020E06388E7FFE779
:1010100005F0800030B106F0800018B1204600F0E5
:1010200055FC7DE705F0400030B106F0400018B1F6
:10103000204600F0F3F973E700BF71E7E9130008F9
:1010400010B504460CB9012010BDA06900B100E044
:1010500000BF94F8390028B9002084F838002046F1
:1010600000F028F8242084F839002068C06820F4B3
:1010700000502168C860204600F034FA20680069FA
:1010800020F49040216808612068406920F02A001F
:10109000216848612068C06840F400502168C86039
:1010A0000020E063202084F8390084F83A00002012
:1010B000CAE7000010B586B00446142101A8FFF766
:1010C00019F91F492068884237D100BF00200090DD
:1010D0001C48006840F400201A490860084600686F
:1010E00000F40020009000BF00BF00BF002000906F
:1010F00014481038006840F00100124910390860A7
:101100000846006800F00100009000BF00BF032007
:1011100001900220029001200390032004900820F7
:10112000059001A90848FFF759F90022052134204C
:10113000FFF7EAFA3420FFF7D7FA06B010BD000037
:10114000004C0040403802400000024010B5034609
:1011500093F83A0020282FD101B10AB9012010BD1F
:1011600000BF93F83800012801D10220F7E70120E1
:1011700083F8380000BF99629A85DA850020D86329
:10118000222083F83A0000BF002083F8380000BF17
:101190001868C06840F480701C68E0601868406996
:1011A00040F001001C6860611868C06840F02000D1
:1011B0001C68E0600020D2E70220D0E70021014A4D
:1011C000117070470C0000202DE9F84304460D46CD
:1011D00016461F464FF0000994F8390020285DD1CB
:1011E00005B116B90120BDE8F88300BF94F83800B6
:1011F000012801D10220F6E7012084F8380000BF61
:101200000020E063212084F83900FFF7EDF98146E2
:10121000A684E68400BF002084F8380000BF2BE0DD
:10122000E08C401EE084A068B0F5805F16D14B468C
:10123000002280212046009700F07CFB08B10320AB
:10124000D1E7A846B8F80000C0F30800216848605C
:10125000206908B9AD1C0FE06D1C0DE04B46002263
:1012600080212046009700F065FB08B10320BAE713
:1012700015F8010B21684860E08C0028D0D14B465E
:10128000002240212046009700F054FB08B10320C3
:10129000A9E7202084F839000020A4E70220A2E773
:1012A000704700BFFEE7000008B500BF00200090B7
:1012B0000648006840F001000449086008460068DC
:1012C00000F00100009000BF00BF08BD30380240B0
:1012D00010B50B480B4908604FF4165048600021C8
:1012E00008488160C16001610C2141610021816178
:1012F000C161FFF7A5FE08B1FFF759F810BD000066
:10130000004C00408000002000BFFEE700BFFEE769
:1013100010B5FFF76FF901F02BFB012801D001F0A8
:101320007DFA10BD00B593B0302107A8FEF7E2FFAB
:10133000142102A8FEF7DEFF00BF002001901D4827
:10134000006840F080501B4908600846006800F0C3
:101350008050019000BF00BF00BF002001901648E0
:10136000006840F48040144908600846006800F4B2
:101370008040019000BF00BF0220079001200A902A
:1013800010200B9000200D9007A8FFF74FFB08B12D
:10139000FFF70DF80F2002900020039004900590B5
:1013A0000690002102A8FFF701FA08B1FEF7FFFF3F
:1013B00013B000BD4038024000700040054800688E
:1013C00040F47000034908604FF000600149803923
:1013D0000860704788ED00E010B50248FFF786FD11
:1013E00010BD00008000002070B50546AC6B0020E9
:1013F000E085E0842046FFF777FD70BD0168C9688D
:1014000021F490710268D1600168496921F00101FD
:1014100002685161202180F83A10704710B50446E7
:101420002068C06820F040002168C860202084F84F
:1014300039002046FFF734FF002010BD70B5044688
:1014400094F83A0022284AD1A068B0F5805F13D101
:10145000A56A206940B920684068C0F30800288068
:10146000A06A801CA06219E020684068C0B2288091
:10147000A06A401CA06211E0206938B92068406869
:10148000C1B2A26A501CA062117007E020684068D7
:1014900000F07F01A26A501CA0621170E08D401E16
:1014A00080B2E085C8B92068C06820F020002168BB
:1014B000C8602068C06820F480702168C860206817
:1014C000406920F0010021684861202084F83A003A
:1014D0002046FFF773FE002070BD0020FCE70220CD
:1014E000FAE700002DE9F84F04462068006920F46F
:1014F0004050E1680843216808612169A0680843F9
:1015000061690843E169084300902068C06849F2B6
:101510000C618843009908432168C86020684069CD
:1015200020F44070A169084321684861E069B0F582
:10153000004F75D1E3492068884203D0E249206812
:1015400088426FD1FFF70AFA814602206168A0FB4A
:1015500001510B461920A9FB00712A463846FEF7B7
:1015600091FE6421B0FBF1F04FEA001A022061689D
:10157000A0FB01510B461920A9FB00712A463846F1
:10158000FEF780FE074602206168A0FB01510B4672
:101590001920A9FB00B12A465846FEF773FE6421C4
:1015A000B0FBF1F000EBC00101EB0010A7EB8000F5
:1015B000322101EBC0006421B0FBF1F000F0F80033
:1015C0000AEB400A02206168A0FB01510B4619207A
:1015D000A9FB00712A463846FEF754FE0746022052
:1015E0006168A0FB01510B461920A9FB00B12A46F6
:1015F0005846FEF747FE6421B0FBF1F000EBC00156
:1016000001EB0010A7EB8000322101EBC000642148
:10161000B0FBF1F000F007005044216888604FE112
:101620006EE0FFE7FFF78AF9814602206168A0FBC0
:1016300001510B461920A9FB00712A463846FEF7D6
:1016400021FE6421B0FBF1F04FEA001A022061682C
:10165000A0FB01510B461920A9FB00712A46384610
:10166000FEF710FE074602206168A0FB01510B4601
:101670001920A9FB00B12A465846FEF703FE642153
:10168000B0FBF1F000EBC00101EB0010A7EB800014
:10169000322101EBC0006421B0FBF1F000F0F80052
:1016A0000AEB400A02206168A0FB01510B46192099
:1016B000A9FB00712A463846FEF7E4FD07460220E2
:1016C0006168A0FB015003461920A9FB00B12A461E
:1016D0005846FEF7D7FD6421B0FBF1F000EBC001E6
:1016E00001EB0010A7EB8000322101EBC000642168
:1016F000B0FBF1F000F00700504421688860DFE0A3
:1017000070492068884203D06F49206888426BD1B5
:10171000FFF724F9814604206168A0FB01510B46C4
:101720001920A9FB00712A463846FEF7ABFD824618
:1017300004206168A0FB01510B461920A9FB007130
:101740002A463846FEF79EFD6421B0FBF1F000EB1F
:10175000C00101EB0010AAEB8000322101EB001068
:101760006421B0FBF1F000F0F00A04206168A0FBF6
:10177000015003461920A9FB00712A463846FEF79E
:1017800081FD6421B0FBF1F00AEB001A04206168CE
:10179000A0FB01510B461920A9FB00712A463846CF
:1017A000FEF770FD074604206168A0FB0150034668
:1017B0001920A9FB00B12A465846FEF763FD6421B3
:1017C000B0FBF1F000EBC00101EB0010A7EB8000D3
:1017D000322101EB00106421B0FBF1F000F00F00AA
:1017E0005044216888606BE0FFF7A8F88146042028
:1017F0006168A0FB015003461920A9FB00712A462D
:101800003846FEF73FFD824604206168A0FB015088
:1018100003461920A9FB00712A463846FEF732FD1F
:101820006421B0FBF1F000EBC00101EB0010AAEB6A
:101830008000322101EB00106421B0FBF1F000F0D8
:10184000F00A04206168A0FB015003461920A9FB9F
:1018500000712A463846FEF715FD6421B0FBF1F011
:101860000AEB001A04206168A0FB017003461920EE
:10187000A9FB005001463A462846FEF703FD0746FD
:1018800004206168A0FB015003461920A9FB00B1A8
:101890002A465846FEF7F6FC6421B0FBF1F000EB57
:1018A000C00101EB0010A7EB8000322101EB00101A
:1018B0006421B0FBF1F000F00F0050442168886013
:1018C000BDE8F88F0010014000140140014691F876
:1018D000390021282CD18868B0F5805F0FD10A6AC1
:1018E0001088C0F308000B685860086918B9086AC6
:1018F000801C086209E0086A401C086205E00B6A67
:10190000581C086218780B685860C88C401E80B25A
:10191000C88458B90868C06820F080000B68D86097
:101920000868C06840F040000B68D860002070472D
:101930000220FCE72DE9F04104460D461746984683
:10194000069E21E0701CF8B12EB1FEF74DFEA0EB13
:101950000800B04218D92068C06820F4D07021680F
:10196000C8602068406920F001002168486120209B
:1019700084F8390084F83A0000BF002084F8380069
:1019800000BF0320BDE8F081206800682840A8421D
:1019900001D1012000E00020B842D3D00020F1E7BF
:1019A00000BFFEE70FB4084B10B504A902AA0398C4
:1019B00000F038F8044602A9002000F0DDF82046C7
:1019C00010BC5DF814FB0000791B00080248006899
:1019D000C0F30220704700000CED00E010B50028B5
:1019E00004DB0A07130E054A135406E00A07140E17
:1019F000034A00F00F031B1FD45410BD00E400E0A5
:101A000018ED00E002E008C8121F08C1002AFAD150
:101A100070477047002001E001C1121F002AFBD16E
:101A2000704700002DE9FF4F89B09B460446002512
:101A300006E025280BD05A460B999047641C6D1C74
:101A400020780028F5D10DB02846BDE8F08F00279A
:101A5000B8460122474900E0074314F8013F203B04
:101A600002FA03F00842F7D120782E2819D114F891
:101A7000010F47F004072A280ED06FF02F022078BC
:101A8000A0F1300109290CD808EB880102EB4101D3
:101A900000EB0108641CF2E70A98641C50F8048B00
:101AA0000A9020780028CED0642808D0692806D073
:101AB00075281ED05A460B9990476D1C58E00A991C
:101AC0004FF00A0901C90A91002802DA40422D218B
:101AD00002E0390504D52B218DF82010012103E007
:101AE000F90704D02021F7E78A4608AE0DE000216F
:101AF000FAE70A994FF00A0901C90A91F7E749463E
:101B0000FEF70AFC303106F8011D0028F7D1ADEBD5
:101B1000060000F12009780701D44FF00108C845FC
:101B200002DDA8EB090000E000208046002706E067
:101B300008A85A46C05D0B9990476D1C7F1C5745FD
:101B4000F6DB04E030205A460B9990476D1CB8F143
:101B50000001A8F10108F5DC05E016F8010B5A4672
:101B60000B9990476D1CB9F10001A9F10109F4DC52
:101B7000641C65E7092801000A68531C0B6010709B
:101B8000704700001CB5FEF741FDFFF7CBFBFFF7E8
:101B90008BFBFFF79DFB1248052100238022CDE936
:101BA000001010A1114800F053FE04461048052112
:101BB00000238022CDE900100EA1104800F048FE5D
:101BC0000546012C09D1012D07D108200C490860D8
:101BD00040050C49086000F0C7FC00BFFEE70000AC
:101BE000000000205441534B5F31000011220008D7
:101BF000040000205441534B5F320000C52200080E
:101C000030380240000C02402DE9F04105460E46F6
:101C10001C4807681C480068001D00F07BFB50B999
:101C20001948006890F82C1001208840174909686D
:101C3000814316480160681C38B936B11248016802
:101C4000091D134800F0B0FB1AE07C190E4800682B
:101C50004460BC4207D20C480168091D0D48006869
:101C600000F088FB0CE008480168091D0A4800687C
:101C700000F080FB09480068844201D207480460F4
:101C8000BDE8F08134000020200000203800002052
:101C90002404002028000020240000205000002000
:101CA00010B5044600F08CFB23480068401C224914
:101CB00008602248006840B920480460084600686F
:101CC00001280DD100F03EF90AE01D48006838B93E
:101CD0001A480068C06AE16A884201D8174804605F
:101CE00018480068401C1749086094F82C1001201F
:101CF000884015490968084313490860E16A01EB07
:101D00008101124A02EB8100211D00F04DFB00F021
:101D100081FB0B48006868B108480068C06AE16A46
:101D2000884207D24FF0805009490860BFF34F8FB7
:101D3000BFF36F8F10BD0000300000202000002096
:101D40003C0000204C000020380000204803002008
:101D500004ED00E010B516E000F032FB0C48C0685E
:101D6000C468201D00F0D6FA0A480068401E0949E0
:101D7000086009480068401E0749086000F04AFBF7
:101D8000204600F00BF8044800680028E4D110BD9C
:101D900010040020300000202C00002010B5044664
:101DA00094F8510030B9206B00F052FB204600F04F
:101DB0004FFB1AE094F85100012803D1204600F0AF
:101DC00047FB12E094F85100022801D1012000E005
:101DD000002050B900BF502080F31188BFF34F8F0F
:101DE000BFF36F8F00BF00BFFEE710BD30B54FF4EB
:101DF0007053174800F007042CB1C01D20F00700F5
:101E0000134C041B1B1B0246124C22600024114D74
:101E10006C60D018083820F007000F4C20600024B8
:101E20000D4D2D686C600C4D2D682C601146441AC8
:101E30004C60094C24680C60084D4C682C60084DBF
:101E40004C682C604FF00044064D2C6030BD000003
:101E5000380400205C000020640000206C0000209A
:101E6000680000207000002000BFFFF773FF0648E5
:101E700000680128F9D94FF0805004490860BFF389
:101E80004F8FBFF36F8FF0E74803002004ED00E0B1
:101E90002DE9FF5F81460E469246DDE90E7B109CE0
:101EA000AAF10100216B01EB800828F0070808F077
:101EB000070008B9012000E0002050B900BF502001
:101EC00080F31188BFF34F8FBFF36F8F00BF00BF48
:101ED000FEE786B1002507E0715D04F1340041554D
:101EE000705D00B902E06D1C102DF5D300BF00211C
:101EF0004320015502E0002084F83400072F00D36E
:101F00000627E76267640020A064201D00F02FFA16
:101F100004F1180000F02BFA2461C7F10700A0615A
:101F200064620020E06484F8500049464046039A09
:101F300000F048F92060BBF1000F01D0CBF8004061
:101F4000BDE8FF9F10B5002407E004EB84010F4AB1
:101F500002EB810000F0FEF9641C072CF5D30C485D
:101F600000F0F8F90B4800F0F5F90B4800F0F2F931
:101F70000A4800F0EFF90A4800F0ECF90448094972
:101F8000086004480849086010BD000048030020AC
:101F9000D4030020E8030020FC03002010040020EC
:101FA00024040020240000202800002010B5014651
:101FB000164800E0006803688B42FBD30246436882
:101FC00013448B4204D143684C6823444360014668
:101FD0000A464B6813440468A34211D10C4C0368B1
:101FE0002468A34208D04B680468646823444B60AB
:101FF00003681B680B6005E0054B1B680B6001E084
:1020000003680B60884200D0016010BD5C000020B6
:10201000640000200A490968096809B9012100E043
:10202000002121B14FF0FF31064A116006E004495A
:102030000968C968C868034A4168116070470000B0
:1020400024000020500000200E480068401C08B901
:10205000012000E0002050B900BF502080F311881B
:10206000BFF34F8FBFF36F8F00BF00BFFEE700BF0E
:10207000502080F31188BFF34F8FBFF36F8F00BFE5
:1020800000BFFEE7740000202DE9F04104464FF048
:10209000000800F0C1FA4648006808B9FFF7A6FE3C
:1020A00044480068204000286BD1D4B1083404F0C3
:1020B0000700B0B104F00700C0F10800044404F0C8
:1020C000070008B9012000E0002050B900BF5020EF
:1020D00080F31188BFF34F8FBFF36F8F00BF00BF36
:1020E000FEE7002C4DD034480068844249D8334E76
:1020F0003046056801E02E462D686868A04202D28D
:1021000028680028F7D12A480068854239D030680D
:1021100000F10808286830606868001B102819D989
:102120002F1907F0070008B9012000E0002050B97E
:1021300000BF502080F31188BFF34F8FBFF36F8F24
:1021400000BF00BFFEE76868001B78606C6038461F
:10215000FFF72CFF184968680968081A16490860D3
:102160000846006816490968884203D21248006888
:10217000134908600F4968680968084368600020CF
:10218000286000F0A9FC08F0070008B9012000E071
:10219000002050B900BF502080F31188BFF34F8F4B
:1021A000BFF36F8F00BF00BFFEE74046BDE8F08180
:1021B0006400002070000020680000205C00002007
:1021C0006C000020001F4FF080730360001F21F09F
:1021D00001030360001F054B036014380260001FF9
:1021E0006FF00203036020387047000049200008A8
:1021F00070B504462046FEF788F885B24FF4FA63BE
:102200002A4621460148FEF7DFFF70BD800000200E
:1022100008B53120009025E013A0FFF7E9FF012267
:1022200069461A48FEF792FF00BF19480078012856
:10223000FBD09DF800003038C0B200909DF800003F
:102240004FF47A7110FB01F012490860084612A1A0
:1022500002681B48FFF7A6FB1948FFF7C9FF0120DA
:102260000B490870D8E700000A0D456E74657220AE
:102270004C454420466C6173682052617465202887
:102280005365636F6E6473293A200000800000205C
:102290000C000020080000200A0D466C617368697C
:1022A0006E67207261746520686173206368616E77
:1022B00067656420746F202564206D732E00000014
:1022C000C000002017E0012211030B48FEF786F939
:1022D0000A4800684FF47A714843B0FBF1F4204695
:1022E00000F014F906A0FFF783FF00224FF480519D
:1022F0000148FEF773F9E6E7000C024008000020F1
:102300000A0D48656C6C6F2066726F6D20546173A6
:102310006B20310001460A69D1E901309860D1E9AA
:10232000010358605068884201D1886850600020DD
:1023300008611068401E106010687047034B03600E
:10234000034B0B608023136070470000F4000020F3
:102350004801002000F1080141604FF0FF31816029
:1023600000F10801C1600161002101607047002196
:102370000161704710B502460B685C1C0CB910690E
:1023800007E002F1080000E04068446824689C42CD
:10239000FAD944684C604C68A160886041600A6169
:1023A0001468641C146010BD42684A6093688B60B6
:1023B000936859609160086103685B1C0360704713
:1023C00000BF502080F31188BFF34F8FBFF36F8F92
:1023D00000BF0E480068401C0C49086008460068B1
:1023E000012812D10A480068C0B208B9012000E0F3
:1023F000002050B900BF502080F31188BFF34F8FE9
:10240000BFF36F8F00BF00BFFEE77047740000206E
:1024100004ED00E00D48006850B900BF502080F383
:102420001188BFF34F8FBFF36F8F00BF00BFFEE770
:1024300006480068401E054908600846006820B943
:10244000002080F3118800BF00BF70477400002097
:1024500070B506463546002E3FD0083D2C461F4934
:1024600060680968084008B1012000E0002050B908
:1024700000BF502080F31188BFF34F8FBFF36F8FE1
:1024800000BF00BFFEE7206808B9012000E000207F
:1024900050B900BF502080F31188BFF34F8FBFF3B6
:1024A0006F8F00BF00BFFEE70C49606809680840F5
:1024B00098B1206888B909496068096888436060F4
:1024C00000F0AAF8064960680968084404490860F1
:1024D0002046FFF76BFD00F0FFFA70BD7000002092
:1024E0006800002000204FF0E02108618861064864
:1024F00000684FF47A71B0FBF1F0401E4FF0E0211C
:1025000048610720086170471C00002070B5044630
:102510000025D4B11248006808B9012000E000206D
:1025200050B900BF502080F31188BFF34F8FBFF325
:102530006F8F00BF00BFFEE700F06EF8002120465D
:10254000FFF762FB00F0C8FA05463DB94FF0805036
:1025500004490860BFF34F8FBFF36F8F70BD000059
:102560005800002004ED00E010B586B00020059072
:10257000049003AA04A905A8FFF7E0FE0022DDE904
:1025800004101346CDE9002102901CA11D48039AB6
:1025900000F090F91C4908600846006808B1012461
:1025A00000E00024012C15D100BF502080F31188D9
:1025B000BFF34F8FBFF36F8F00BF4FF0FF30134952
:1025C000086001201249086000201249086000F0EC
:1025D00071F810E0601C08B1012000E0002050B943
:1025E00000BF502080F31188BFF34F8FBFF36F8F70
:1025F00000BF00BFFEE706B010BD000049444C45D7
:1026000000000000691E0008540000205000002057
:102610003C0000203400002002480068401C0149B2
:1026200008607047580000201D48006818B101205C
:102630001C49086032E000201A4908601A48006806
:10264000B0FA80F0C0F11F0101EB8100174A52F887
:10265000200008B1012000E0002050B900BF502048
:1026600080F31188BFF34F8FBFF36F8F00BF00BFA0
:10267000FEE701EB81020D4B03EB820042685268DA
:10268000426000F108024368934202D142685268F6
:1026900042604268D268064B1A6000BF7047000073
:1026A000580000204400002038000020480300208B
:1026B000200000201CB5524800685249884201D0D1
:1026C000012000E0002050B900BF502080F31188A5
:1026D000BFF34F8FBFF36F8F00BF00BFFEE74848C7
:1026E00000684849491E884201D0012000E00020CE
:1026F00050B900BF502080F31188BFF34F8FBFF354
:102700006F8F00BF00BFFEE73F4908460078019089
:10271000FF200A4610700846007800909DF80000DF
:1027200000F0F0009DF80020904201D1012000E06F
:10273000002050B900BF502080F31188BFF34F8FA5
:10274000BFF36F8F00BF00BFFEE79DF8000000F0F1
:1027500050002E4A107007202D4A106009E02C48C6
:102760000068401E2A4A10609DF800004006000ED6
:1027700000909DF8000000F080008028EFD02448F1
:102780000068C0F10700042801D1012000E000200A
:1027900050B900BF502080F31188BFF34F8FBFF3B3
:1027A0006F8F00BF00BFFEE7194800680002184A9B
:1027B00010601046008800F4E0601060124A019832
:1027C00010700F482030006840F470000C49203130
:1027D00008600846006840F070400860FFF782FE1D
:1027E00000200C490860FDF7FFFC0B48006840F032
:1027F000404009490860FDF7E3FC00201CBD0000D3
:1028000000ED00E071C20F4100E400E0780000201C
:102810007C0000207400002034EF00E010B500BF01
:10282000502080F31188BFF34F8FBFF36F8F00BF2D
:1028300000F0AEF818B14FF080500449086000BFB6
:10284000002080F3118800BF10BD000004ED00E0FF
:102850002DE9FF4F85B0804689461746DDE912AB6A
:10286000B800FFF711FC064656B15420FFF70CFCE8
:1028700004460CB1266304E03046FFF7E9FD00E0B2
:1028800000248CB1002084F85100CDE900ABCDE9E3
:1028900002403A4649464046089BFFF7F9FA20466F
:1028A000FFF7FEF9012501E04FF0FF35284609B09A
:1028B000BDE8F08F2DE9F04F85B007468846914678
:1028C0009A46DDE90EB6109C0EB1012000E0002012
:1028D00050B900BF502080F31188BFF34F8FBFF372
:1028E0006F8F00BF00BFFEE70CB1012000E00020A9
:1028F00050B900BF502080F31188BFF34F8FBFF352
:102900006F8F00BF00BFFEE7542003900398542848
:1029100001D1012000E0002050B900BF502080F319
:102920001188BFF34F8FBFF36F8F00BF00BFFEE76B
:1029300000BFB4B1AEB125462C462E63022085F807
:102940005100002004A953464A46CDE900B1CDE923
:10295000025041463846FFF79BFA2846FFF7A0F998
:1029600001E000200490049805B0BDE8F08F00005D
:102970000549096809B9012005E00449096809B950
:10298000022000E0002070473C000020580000209A
:102990002DE9F0414FF0000844480068002877D145
:1029A00043480068451C4248056015BB4148006823
:1029B000006808B9012000E0002050B900BF502095
:1029C00080F31188BFF34F8FBFF36F8F00BF00BF3D
:1029D000FEE73848076838480068364908603648D6
:1029E000076036480068401C34490860FFF712FB56
:1029F00000BF3348006885423CD300BF2D480068C3
:102A0000006808B9012000E0002020B14FF0FF303D
:102A10002B4908602DE027480068C068C4686668D4
:102A2000B54202D22648066023E0201DFFF772FC63
:102A3000A06A18B104F11800FFF76CFC94F82C1090
:102A4000012088401F49096808431E490860E16A5F
:102A500001EB81011C4A02EB8100211DFFF7A4FC60
:102A60001A49E06A0968C96A8842C7D34FF0010869
:102A7000C4E700BF15480068C06A00EB8000124937
:102A800051F82000012801D94FF0010805E0FFE7C7
:102A90000F480068401C0E4908600E48006808B1E5
:102AA0004FF001084046BDE8F081000058000020CA
:102AB00034000020240000202800002048000020CE
:102AC0005000002038000020480300202000002093
:102AD000400000204400002070B500240026364845
:102AE000006850B900BF502080F31188BFF34F8FAA
:102AF000BFF36F8F00BF00BFFEE7FFF761FC2E48FA
:102B00000068401E2C4908600846006800284FD124
:102B10002A48006800284BD024E02948C068C468CF
:102B200004F11800FFF7F6FB201DFFF7F3FB94F804
:102B30002C10012088402349096808432149086076
:102B4000E16A01EB8101204A02EB8100211DFFF7C0
:102B50002BFC1E49E06A0968C96A884202D3012039
:102B60001B4908601648006808B9012000E00020F1
:102B70000028D2D00CB1FFF74DFA1648056865B1B0
:102B800000BFFFF705FF10B10120114908606D1E5D
:102B9000002DF6D100200F4908600D48006838B1BB
:102BA000012630070C490860BFF34F8FBFF36F8FCA
:102BB000FFF730FC304670BD580000203000002088
:102BC000FC030020380000204803002020000020E3
:102BD000440000204000002004ED00E00000000060
:102BE00000000000010203040607080900000000BD
:102BF00001020304142C00080000002080000000E3
:102C0000041A0008942C000880000020B84300003B
:102C1000141A00080000000000000000E803000093
:102C20000100000000000000100000000100000092
:102C30000024F4000000000000000000000000007C
:102C40000000000000000000000000000000000084
:102C50000000000000000000000000000000000074
:102C60000000000000000000000000000000000064
:102C70000000000000000000000000000000000054
:102C80000000000000000000AAAAAAAA000000009C
:042C90000000000040
:040000050800018965
:00000001FF
