:020000040800F2
:1000000078040020A101000849130008B511000878
:1000100045130008AD0200080D14000800000000A0
:100020000000000000000000000000004F13000866
:10003000BB030008000000004D1300085113000826
:10004000BB010008BB010008BB010008BB010008A0
:10005000BB010008BB010008BB010008BB01000890
:10006000BB010008BB010008BB010008BB01000880
:10007000BB010008BB010008BB010008BB01000870
:10008000BB010008BB010008BB010008BB01000860
:10009000BB010008BB010008BB010008BB01000850
:1000A000BB010008BB010008BB010008BB01000840
:1000B000BB010008BB010008BB010008BB01000830
:1000C000BB010008BB010008BB010008BB01000820
:1000D000BB010008BB010008BB010008BB01000810
:1000E000BB010008BB010008BB010008BB01000800
:1000F000BB010008BB010008BB010008BB010008F0
:10010000BB010008BB010008BB010008BB010008DF
:10011000BB010008BB010008BB010008BB010008CF
:10012000BB010008BB010008BB010008BB010008BF
:10013000BB010008BB010008BB010008BB010008AF
:10014000BB010008BB010008BB010008BB0100089F
:10015000BB010008BB010008BB010008BB0100088F
:10016000BB010008BB010008BB010008BB0100087F
:10017000BB010008BB010008BB0100080000000033
:10018000BB010008BB010008DFF810D000F07CF8CC
:100190000048004769140008AFF30080780400208D
:1001A0000648804706480047FEE7FEE7FEE7FEE711
:1001B000FEE7FEE7FEE7FEE7FEE7FEE7F1130008D5
:1001C000890100082DE9F05F0546002092469B4614
:1001D00088460646814640241BE02846414647465D
:1001E000224600F041F853465A46C01A914110D3B6
:1001F00011461846224600F028F82D1A67EB010830
:100200004F4622460120002100F01FF817EB00099D
:100210004E41201EA4F10104DFDC484631462A4647
:100220004346BDE8F09FD2B201E000F8012B491E21
:10023000FBD270470022F6E710B513460A46044683
:100240001946FFF7F0FF204610BD202A04DB203AB4
:1002500000FA02F1002070479140C2F1200320FA19
:1002600003F3194390407047202A04DB203A21FA17
:1002700002F00021704721FA02F3D040C2F12002BF
:100280009140084319467047064C074D06E0E06868
:1002900040F0010394E8070098471034AC42F6D3CD
:1002A000FFF776FF141500083415000800BFFEE7BD
:1002B0000146087810381823B0FBF3F20848805C38
:1002C000C865032A05D908686FF30900001D886511
:1002D00003E008686FF309008865886D70470000C7
:1002E000F4140008014600208A6A8B69CBB932B148
:1002F000012A0DD0022A03D0032A10D10EE000BF3C
:10030000CB6A03F08073B3F1807F00D1012007E056
:10031000CB6AB3F1C07F00D1012001E000E000BF53
:1003200034E08B69B3F5005F1AD132B1012A07D0EE
:10033000022A03D0032A11D10AE000BF01200EE0F7
:10034000CB6A03F08073B3F1807F00D1012006E017
:10035000CB6AB3F1C07F00D1012000E000BF15E0FF
:1003600032B1012A05D0022A04D0032A0CD103E0BD
:1003700000BF00BF012008E0CB6A03F08073B3F137
:10038000807F00D1012000E000BF00BF704730B582
:100390000468246824F4802405682C600468636081
:1003A0008468402C04D10468A2600468E16003E022
:1003B0000468A1600468E26030BD704772B600BF97
:1003C000FEE770B50446A56D00F0ACFA064694F859
:1003D0003500022808D08020606500BF002084F826
:1003E000340000BF012070BD2068006820F01600B6
:1003F000216808602068406920F080002168486119
:10040000206C08B9A06C28B12068006820F00800B2
:10041000216808602068006820F0010021680860F9
:100420000FE000F07FFA801B05280AD920206065C4
:1004300000BF002084F8340000BF032084F835009A
:10044000D1E72068006800F001000028E9D194F8A5
:100450005C103F208840A86000BF002084F8340072
:1004600000BF012084F835000020BCE72DE9F041F1
:100470000446002500F056FA074614B90120BDE8ED
:10048000F081606A00B100BF00BF002084F8340032
:1004900000BF022084F835002068006820F00100C9
:1004A000216808600AE000F03DFAC01B052805D964
:1004B00020206065032084F83500E0E720680068AC
:1004C00000F001000028EED12068056821480540B1
:1004D000D4E901010843E1680843216908436169DF
:1004E0000843A1690843E1690843216A08430543B9
:1004F000606A042803D1D4E90B010843054320684E
:1005000005602068456925F00705606A0543606A53
:1005100004280DD1A06A0543E06A48B12046FFF7E0
:10052000E1FE28B140206065012084F83500A6E78F
:10053000206845612046FFF7BBFE064694F85C1034
:100540003F208840B06000206065012084F83500BD
:10055000002094E73F8010F02DE9F05F04468846C4
:1005600017464FF0000A00F0DDF9834694F8350095
:10057000022809D08020606500BF002084F8340084
:1005800000BF0120BDE8F09F2068006800F4807083
:1005900020B14FF4807060650120F3E7B8F1000FDF
:1005A00005D194F85C10202000FA01F904E094F8D9
:1005B0005C10102000FA01F9A56D2E6842E0781C4D
:1005C00090B12FB100F0AEF9A0EB0B00B8420BD9FF
:1005D0002020606500BF002084F8340000BF0120A7
:1005E00084F835000320CDE72E6894F85C100820CD
:1005F0008840304040B1606D40F00100606594F883
:100600005C1008208840A86094F85C1001208840A5
:10061000304040B1606D40F00200606594F85C10BD
:1006200001208840A86094F85C1004208840304085
:1006300040B1606D40F00400606594F85C100420E7
:100640008840A86006EA090020B9606D00F001004A
:100650000028B4D0606DA0B1606D00F0010080B1E1
:100660002046FFF7AEFE94F85C1030208840A8606A
:1006700000BF002084F8340000BF012084F835005A
:1006800080E7B8F1000F0DD194F85C10302088405D
:10069000A86000BF002084F8340000BF012084F867
:1006A000350004E094F85C1010208840A8605046A3
:1006B00068E72DE9F04104460D4616461F464FF007
:1006C000000800BF94F83400012802D10220BDE8E0
:1006D000F081012084F8340000BF94F8350001282F
:1006E00011D1022084F83500002060653B46324677
:1006F00029462046FFF74BFE2068006840F00100C5
:100700002168086006E000BF002084F8340000BFC4
:100710004FF002084046DAE7F8B502460B460025DE
:10072000002400200021DCE0012606FA01F51E6805
:1007300006EA0504AC4273D15E68012E08D05E68FB
:10074000022E05D05E68112E02D05E68122E13D1E3
:1007500090684F000326BE40B0434F00DE68BE40A5
:1007600030439060506801268E40B0431E79C6F336
:1007700000168E4030435060D0684F000326BE40C4
:10078000B0434F009E68BE403043D0605E68022E8A
:1007900002D05E68122E13D1CF0802F1200656F85F
:1007A00027004E07F70E0F26BE40B0434F07FF0E3F
:1007B0001E69BE403043CF0802F1200646F82700EC
:1007C00010684F000326BE40B0431E7906F00306B2
:1007D0004F00BE40304310605E6806F08056B6F1B0
:1007E000805F7DD100BF00260096404E366846F4FB
:1007F00080463E4F3E603E46366806F48046009690
:1008000000BF00BF3A4E8F0856F827008E07370FFB
:100810000F26BE40B043374EB24202D1002624E03C
:100820005EE0354EB24201D101261EE0334EB242A7
:1008300001D1022619E0324EB24201D1032614E062
:10084000304EB24201D104260FE02F4EB24201D108
:1008500005260AE02D4EB24201D1062605E02C4EB7
:10086000B24201D1072600E008268F073F0FBE40A5
:1008700030431F4E8F0846F82700264E3068A043AD
:100880005E6806F48036B6F5803F00D12043214EE5
:100890003060361D3068A0435E6806F40036B6F559
:1008A000003F00D120431B4E361D3060361D30689E
:1008B000A0435E6806F48016B6F5801F00D1204381
:1008C000144E08363060361D3068A0435E6806F46A
:1008D0000016B6F5001F00D120430E4E0C363060D6
:1008E000491C1029FFF420AFF8BD00004438024035
:1008F00008380140000002400004024000080240A5
:10090000000C024000100240001402400018024097
:10091000001C0240003C01400AB1816101E00B046F
:10092000836170470148006870470000080000209C
:100930000348006803490978084401490860704782
:10094000080000201000002010B50D48006840F499
:1009500000700B4908600846006840F48060086039
:100960000846006840F480700860032000F096F8A4
:10097000002000F007F800F02BF8002010BD000068
:10098000003C024070B504460E4800784FF47A717E
:10099000B1FBF0F00C490968B1FBF0F5284600F016
:1009A000EFFB08B1012070BD102C07D200222146B8
:1009B000501E00F035F80548046001E00120F2E720
:1009C0000020F0E710000020140000200C000020A0
:1009D00008B500BF002000901048006840F4804037
:1009E0000E4908600846006800F48040009000BF8F
:1009F00000BF00BF00200090081F006840F080503A
:100A0000091F08600846006800F08050009000BF91
:100A100000BF072000F042F808BD00004438024043
:100A20002DE9F05F80460D461646002700F0F0FCE9
:100A3000074639462A46334601F00700C0F1070A47
:100A4000BAF1040F02D94FF0040A01E0C0F1070A1D
:100A5000D14600F1040ABAF1070F02D24FF0000AA2
:100A600001E0A0F1030AD4464FF0010A0AFA09FA9C
:100A7000AAF1010A0AEA020A0AFA0CFA4FF0010B7B
:100A80000BFA0CFBABF1010B0BEA030B4AEA0B046C
:100A90002146404600F0C4FCBDE8F09F00BF00F0D6
:100AA0000702064B19684FF6FF031940044B0B432E
:100AB00043EA0221014B196000BF70470CED00E0D2
:100AC0000000FA0570B504460D460CB9012070BD52
:100AD0005848006800F00F00A84209D255490D702F
:100AE0000846006800F00F00A84201D00120EEE7A0
:100AF000207800F0020002281DD1207800F00400C8
:100B0000042805D14C48006840F4E0504A49086088
:100B1000207800F00800082805D14748006840F414
:100B20006040454908604448006820F0F000A16832
:100B3000084341490860207800F00100A8B36068CC
:100B4000012807D13C4808380068C0F34040B8B9D4
:100B50000120BCE76068022802D06068032807D142
:100B6000354808380068C0F3406048B90120AEE756
:100B7000314808380068C0F3400008B90120A6E7F2
:100B80002D48006820F00300616808432A49086086
:100B9000FFF7C8FE064609E0FFF7C4FE801B41F2DE
:100BA0008831884202D9032091E707E02248006893
:100BB00000F00C006168B0EB810FEDD11D480068BA
:100BC00000F00F00A84209D91A490D7008460068C4
:100BD00000F00F00A84201D0012078E7207800F053
:100BE0000400042807D11448006820F4E050E168AC
:100BF000084311490860207800F00800082808D14F
:100C00000D48006820F46040216940EAC1000A49AB
:100C1000086000F019F808490968C1F30311074A90
:100C2000515CC8400649086006480068FFF7AAFE04
:100C300000204CE7003C024008380240FC14000849
:100C4000140000200C0000202DE9F04700240025AE
:100C50000026A1462548006800F00C0020B10428B9
:100C600005D008283AD105E0DFF8849039E0DFF8B4
:100C7000849036E01D48001F006800F03F041B48C8
:100C8000001F006800F4800078B11A481749091F56
:100C90000968C1F38811A0FB0170014622460023B8
:100CA0003846FFF78FFA05460EE011480F49091F35
:100CB0000968C1F38811A0FB017001462246002398
:100CC0003846FFF77FFA05460848001F0068C0F362
:100CD0000140401C4600B5FBF6F902E0DFF8109039
:100CE00000BF00BF4846BDE8F0870000083802405A
:100CF0000024F40000127A00F8B504460CB9012073
:100D0000F8BD207800F00100002874D0F948006890
:100D100000F00C0004280DD0F648006800F00C002C
:100D2000082813D1F348001F006800F48000B0F5D4
:100D3000800F0BD1EF4808380068C0F3404000280E
:100D400059D06068002856D10120D9E700BF6068FB
:100D5000B0F5803F08D1E7480838006840F480309B
:100D6000E449083908601EE06068B0F5A02F0DD195
:100D7000E0480838006840F48020DE4908390860FF
:100D80000846006840F4803008600CE0D948083814
:100D9000006820F48030D7490839086008460068A8
:100DA00020F48020086000BF606890B1FFF7BAFDB2
:100DB000054606E0FFF7B6FD401B642801D9032075
:100DC0009EE7CC4808380068C0F340400028F1D0C6
:100DD00011E0FFF7A7FD054606E0FFF7A3FD401B66
:100DE000642801D903208BE7C24808380068C0F3A3
:100DF00040400028F1D1207800F0020002285FD1A5
:100E0000BC48006800F00C0058B1BA48006800F017
:100E10000C0008281CD1B748001F006800F48000AF
:100E2000B0B9B44808380068C0F3400020B1E068A9
:100E3000012801D0012063E7AE480838006820F09F
:100E4000F800216940EAC100AA490839086037E082
:100E5000E06800B30120A8490860FFF763FD05467C
:100E600006E0FFF75FFD401B022801D9032047E79A
:100E7000A04808380068C0F340000028F1D09D4821
:100E80000838006820F0F800216940EAC10099495B
:100E90000839086014E0002097490860FFF742FD18
:100EA000054606E0FFF73EFD401B022801D903205E
:100EB00026E7904808380068C0F340000028F1D1C8
:100EC000207800F0080008282CD16069A8B1012022
:100ED0008A490860FFF726FD054606E0FFF722FD78
:100EE000401B022801D903200AE782486C300068C1
:100EF000C0F340000028F1D014E000207F490860D2
:100F0000FFF710FD054606E0FFF70CFD401B022829
:100F100001D90320F4E677486C300068C0F3400044
:100F20000028F1D1207800F00400042870D10027B7
:100F300070483830006800F0805090B900BF002041
:100F400000906C483830006840F080506949383172
:100F500008600846006800F08050009000BF00BFA5
:100F600001276748006800F48070B0B964480068E1
:100F700040F4807062490860FFF7D4FC054606E043
:100F8000FFF7D0FC401B022801D90320B8E65C48DB
:100F9000006800F480700028F2D000BFA06801282B
:100FA00008D154486830006840F001005149683168
:100FB00008601DE0A06805280DD14E486830006823
:100FC00040F004004B49683108600846006840F072
:100FD000010008600CE047486830006820F001001C
:100FE0004449683108600846006820F00400086041
:100FF00000BFA068A8B1FFF795FC054609E0FFF720
:1010000091FC401B41F28831884202D9032077E6E7
:1010100026E0384868300068C0F340000028EED071
:1010200013E0FFF77FFC054608E0FFF77BFC401B61
:1010300041F28831884201D9032061E62D486830A9
:101040000068C0F340000028EFD1012F07D12948E4
:101050003830006820F0805026493831086000BFE1
:10106000A069002845D02348006800F00C0008283B
:101070005DD0A069022845D100201F490866FFF70E
:1010800051FC054606E0FFF74DFC401B022801D944
:10109000032035E6174808380068C0F34060002890
:1010A000F1D1D4E907010843616A40EA81110122C4
:1010B000A06AC2EB500041EA00412C20005D41EAE9
:1010C00000600C49091F086001200B490866FFF702
:1010D00029FC054606E0FFF725FC401B022801D944
:1010E00003200DE6034808380068C0F3406000287C
:1010F000F1D03FE00838024000004742800E4742EE
:101100000070004000201C490866FFF70BFC0546F4
:1011100006E0FFF707FC401B022801D90320EFE59A
:1011200016480068C0F340600028F2D122E0A069B0
:10113000012800D1E4E51148001D066806F480018D
:10114000E069814214D106F03F01206A81420FD14B
:1011500047F6C0703040616A884209D106F44031D8
:10116000A06A814204D106F07061E06A814201D038
:101170000120C5E50020C3E50000474200380240D9
:1011800070B504462546681EB0F1807F01D301206A
:101190000FE0681E4FF0E02148610F214FF0FF3053
:1011A00000F03EF900204FF0E0218861072008613F
:1011B000002070BD00BFFEE708B500BF0020009012
:1011C0001448006840F4800012490860084600682E
:1011D00000F48000009000BF00BF0F480F49086076
:1011E0000020486080210D4881600021C1600161BC
:1011F00041618161C1610162042141620321816217
:101200000021C1620163FFF731F908B1FFF7D6F899
:1012100008BD000030380240106402401800002071
:1012200000B587B0142102A8FFF704F800BF002022
:1012300001903F48006840F010003D4908600846B2
:10124000006800F01000019000BF00BF00BF002048
:1012500001900846006840F00400086008460068F5
:1012600000F00400019000BF00BF00BF002001900B
:101270000846006840F0800008600846006800F0FA
:101280008000019000BF00BF00BF00200190084611
:10129000006840F0010008600846006800F00100A6
:1012A000019000BF00BF00BF002001900846006809
:1012B00040F0020008600846006800F0020001905B
:1012C00000BF00BF00BF002001900846006840F04A
:1012D000080008600846006800F00800019000BFA0
:1012E00000BF00224FF20F011248FFF715FB01204B
:1012F0000290114803900020049002A90F48FFF7C4
:101300000BFA0420029000200390049002A90C48DC
:10131000FFF702FA4FF20F00029001200390002025
:101320000490059002A90348FFF7F6F907B000BD45
:1013300030380240000C0240000011100000024052
:101340000004024000BFFEE700BFFEE770477047A1
:1013500010B5FFF7EDFA10BD00B593B0302107A826
:10136000FEF768FF142102A8FEF764FF00BF00200B
:1013700001901D48006840F080501B4908600846F5
:10138000006800F08050019000BF00BF00BF002047
:1013900001901648006840F48040144908600846EF
:1013A000006800F48040019000BF00BF0220079059
:1013B00001200A9010200B9000200D9007A8FFF745
:1013C0009BFC08B1FEF7FAFF0F200290002003906B
:1013D000049005900690002102A8FFF773FB08B166
:1013E000FEF7ECFF13B000BD403802400070004033
:1013F0000548006840F47000034908604FF0006041
:10140000014980390860704788ED00E000BFFEE7C1
:1014100002480068C0F30220704700000CED00E0B5
:1014200010B5002804DB0A07130E054A135406E022
:101430000A07140E034A00F00F031B1FD45410BDFB
:1014400000E400E018ED00E002E008C8121F08C147
:10145000002AFAD170477047002001E001C1121F35
:10146000002AFBD170470000FFF76EFAFFF774FF08
:101470000024FFF7D5FEFFF79FFE01220F211A4837
:10148000FFF74AFA2EE00123174A18321749184885
:10149000FFF70FF94FF0FF3200211548FFF75CF816
:1014A000FFF740FA044600BFFFF73CFA04F57A71F3
:1014B0008842F9D901230C4A18320C49091F0C48FB
:1014C000FFF7F7F84FF0FF3200210948FFF744F823
:1014D000FFF728FA044600BFFFF724FA04F57A71F3
:1014E0008842F9D9CFE70000000C02400400002038
:1014F000180000200006101600061016000000005C
:1015000000000000010203040607080900000000B3
:101510000102030434150008000000201800000038
:10152000481400084C150008180000206004000052
:101530005814000800000000FF0000000000000038
:0C15400010000000010000000024F40076
:040000050800018965
:00000001FF
