:020000040800F2
:10000000C049002071020008170D0008990C000873
:10001000150D0008A1030008F10E00080000000003
:10002000000000000000000000000000B101000816
:10003000A3030008000000000D020008190D0008CD
:100040008B0200088B0200088B0200088B0200085C
:100050008B0200088B0200088B0200088B0200084C
:100060008B0200088B0200088B0200088B0200083C
:100070008B0200088B0200088B0200088B0200082C
:100080008B0200088B0200088B02000800000000B1
:100090000000000000000000000000008B020008CB
:1000A0008B0200088B0200088B0200088B020008FC
:1000B0008B0200088B0200088B0200088B020008EC
:1000C0008B0200088B0200088B0200088B020008DC
:1000D0008B0200088B0200088B0200080000000061
:1000E0008B0200088B0200088B0200080000000051
:1000F0000000000000000000000000008B0200086B
:10010000000000008B0200088B0200088B02000830
:1001100000000000000000000000000000000000DF
:100120008B0200088B0200088B0200088B0200087B
:100130008B0200080000000000000000000000002A
:100140000000000000000000000000008B0200081A
:100150008B0200088B0200088B0200088B0200084B
:100160008B0200088B020008000000000000000065
:10017000000000000000000000000000000000007F
:10018000000000008B0200080000000000000000DA
:100190008B0200088B020008DFF810D000F0EEF8A8
:1001A00000480047310F0008AFF30080C04900202D
:1001B0002C4B19680868B0E8F04F80F30988BFF34A
:1001C0006F8F4FF0000080F311887047000000002F
:1001D00008480068006880F308884FF0000080F34A
:1001E000148862B661B6BFF34F8FBFF36F8F00DF25
:1001F00000BF00BF08ED00E0DFF80C00016841F42B
:1002000070010160704700BF88ED00E0EFF30980E6
:10021000BFF36F8F134B1A681EF0100F08BF20ED4D
:10022000108A20E9F04F106009B44FF0500080F3BD
:100230001188BFF34F8FBFF36F8F01F0F1FC4FF0C8
:10024000000080F3118809BC19680868B0E8F04F15
:100250001EF0100F08BFB0EC108A80F30988BFF3BE
:100260006F8F704710000020EFF30580704700008B
:100270000648804706480047FEE7FEE7FEE7FEE740
:10028000FEE7FEE7FEE7FEE7FEE7FEE7AD0D00084E
:10029000990100082DE9F05F0546002092469B4633
:1002A00088460646814640241BE02846414647468C
:1002B000224600F053F853465A46C01A914110D3D3
:1002C00011461846224600F03AF82D1A67EB01084D
:1002D0004F4622460120002100F031F817EB0009BB
:1002E0004E41201EA4F10104DFDC484631462A4677
:1002F0004346BDE8F09F40EA01039B0703D009E0B5
:1003000008C9121F08C0042AFAD203E011F8013B01
:1003100000F8013B521EF9D27047D2B201E000F85A
:10032000012B491EFBD270470022F6E710B5134699
:100330000A4604461946FFF7F0FF204610BD202A62
:1003400004DB203A00FA02F1002070479140C2F12C
:10035000200320FA03F3194390407047202A04DB5E
:10036000203A21FA02F00021704721FA02F3D0402E
:10037000C2F120029140084319467047064C074DD0
:1003800006E0E06840F0010394E807009847103465
:10039000AC42F6D3FFF704FFD0260008F026000891
:1003A000FEE770472DE9F84F00224FF001080325C2
:1003B0004FF00F0E0B6808FA02F42340A34271D1EC
:1003C0004E68012E05D0022E03D0112E01D0122E20
:1003D00015D18668570005FA07FC26EA0C06D1F805
:1003E0000CC00CFA07FC4CEA060CC0F808C04668C2
:1003F000A6430C79C4F30014944034434460C668A7
:10040000570005FA07FC8C6826EA0C06BC4034430A
:10041000C4604C68022C01D0122C13D1D40800EB1C
:100420008404A346D4F8209054074FEAD46A0EFA05
:100430000AF629EA06090E6906FA0AF646EA0906E4
:10044000CBF8206004680E7924EA0C0406F0030659
:10045000BE40264306604C68E40056D52E4C266804
:1004600046F480462660246822F0030604F48044A3
:1004700000942A4C3444A446D4F808489607370F11
:100480000EFA07F6B443264EB04201D1002615E01D
:10049000244EB04201D1012610E0234EB04202D1D9
:1004A00002260BE031E0214EB04201D1032605E0E7
:1004B0001F4EB04201D1042600E00726BE4026436D
:1004C000CCF808681B4E34684F689C43FF0300D586
:1004D0001C433460174E361D34684F689C43BF037D
:1004E00000D51C433460134E083634684F689C4373
:1004F000FF0200D51C4334600E4E0C3634684F6842
:100500009C43BF0200D51C433460521C102AFFF4E8
:1005100051AFBDE8F88F0000443802400030014080
:10052000000002400004024000080240000C0240AB
:1005300000100240003C01400AB18161704709048B
:10054000FBE70000014880687047000000000020C1
:1005500002488168027811448160704700000020E1
:100560000B4810B5016841F400710160016841F465
:1005700080610160016841F480710160032000F036
:1005800065F80F2000F006F800F024F8002010BDF8
:10059000003C024070B50D4D04464FF47A71287846
:1005A000B1FBF0F00A490968B1FBF0F000F0F8FA8D
:1005B00048B9102C07D200222146501E00F026F820
:1005C00000206C6070BD012070BD000000000020A4
:1005D0000C0000200C4882B0016841F480410160A9
:1005E000006800F4804000900748001F016841F057
:1005F000805101600068002200F0805000900F21BF
:10060000901E02B000F002B844380240F0B40E4B25
:100610001B680C46C3F30223C3F10705042D00D960
:100620000425191D072901D2002300E0DB1E012645
:1006300006FA05F1491E214099409E40761E16405B
:100640003143F0BC00F055BC0CED00E0064900F071
:10065000070208684FF6FF03184040EA0220034AE9
:1006600010430860704700000CED00E00000FA0540
:100670002DE9F0470E46050065D0DFF81481D8F863
:100680000000F7B200F00F00B04207D288F8007007
:10069000D8F8000000F00F00B04254D128683D4C5B
:1006A000810712D5400703D5206840F4E050206050
:1006B0002878000703D5206840F460402060206857
:1006C000A96820F0F000084320602878C0072DD0EA
:1006D000304968680839012812D0022813D003284D
:1006E00011D00968890700292DDA216821F003015A
:1006F00001432160FFF726FF814641F2883A0EE070
:1007000009688903EFE709688901ECE7FFF71AFF39
:10071000A0EB0901514502D90320BDE8F08720680C
:10072000696800F00C00B0EB810FEFD1D8F8001031
:10073000404601F00F01B14207D90770006800F090
:100740000F00B04201D00120E7E72878400705D527
:100750002068E96820F4E05008432060287800070A
:1007600006D52068296920F4604040EAC100206075
:1007700000F038F82168084AC1F30311515CC84001
:100780000649086006480068FFF704FF0020C4E738
:10079000003C024008380240B82600080C00002047
:1007A000040000200448054900680968044AC1F3B0
:1007B0008221515CC84070470C000020083802407C
:1007C000C82600080448054900680968044AC1F3BE
:1007D0004231515CC84070470C000020083802408C
:1007E000C8260008154810B5006810F00C0214481F
:1007F00013D04110042A0FD0082A0ED10F4C241F09
:100800002268236802F03F025B0207D52068C0F32C
:100810008810A0FB010106E0084610BD2168C1F365
:100820008811A1FB00010023FFF734FD2168C1F30B
:100830000141491C4900B0FBF1F010BD08380240ED
:100840000024F4002DE9F84F04006ED02078DFF882
:100850003C93C007A9F104054AD009F104000168DE
:10086000C1F38101012908D00068C0F3810002288A
:100870000AD1D9F80000400206D52868800337D590
:1008800060680028E1D033E06068B0F5803F10D0A8
:10089000B0F5A02F286810D020F480302860286898
:1008A00020F4802028606068A8B1FFF74BFE064660
:1008B0000DE0286840F48030F4E740F480202860A0
:1008C000F7E700BFFFF73EFE801B642873D8286857
:1008D0008003F7D50CE0FFF735FE064605E000BFC4
:1008E000FFF730FE801B6428F0D828688003F7D417
:1008F0002078DFF89C8280074FF0000A3ED5A3489D
:10090000001D016811F00C0F08D00068C0F38100D1
:1009100002280BD1D9F80000400207D428688007CC
:1009200016D5E068012800D112E02BE1E068B8B1EB
:100930000120C8F80000FFF705FE064605E000BFED
:10094000FFF700FE801B0228C0D828688007F7D573
:100950002868216920F0F80040EAC10028600DE015
:10096000C8F800A0FFF7EEFD064604E0FFF7EAFD39
:10097000801B02281FD828688007F7D4207800073A
:1009800022D5824E83486169703671B101210160C0
:10099000FFF7D8FD074604E0FFF7D4FDC01B02288F
:1009A00009D830688007F7D50EE0C0F800A0FFF73F
:1009B000C9FD074605E082E0FFF7C4FDC01B022821
:1009C0007DD830688007F7D42078400768D5DFF8F5
:1009D000BCB100270BF13C0BDBF80000C0000BD4CE
:1009E000DBF8001041F08051CBF80010DBF800007C
:1009F000012700F080500090674E3068C00510D489
:100A0000306840F480703060FFF79CFD009005E096
:100A1000FFF798FD0099401A022850D83068C005A9
:100A2000F6D55A4EA0686C3601280FD005283068DC
:100A300010D020F001003060306820F004003060F9
:100A4000A068B8B1FFF77EFD00900FE0306840F07D
:100A50000100F4E740F004003060F7E7FFF772FDB3
:100A60000099411A41F28830814266D83068800787
:100A7000F4D50EE0FFF766FD009007E0FFF762FD9A
:100A80000099411A41F28830814256D83068800777
:100A9000F4D42FB1DBF8001021F08051CBF8001016
:100AA000A069C8B33949091D0968C1F38101022948
:100AB0004AD00228504607D0C8F8600000E03CE069
:100AC000FFF740FD04463BE04746C8F86000FFF7EB
:100AD00039FD064605E000BFFFF734FD801B022804
:100AE0002BD828688001F7D4D4E907010843A16A0C
:100AF0002A4A490802EB0141626A41EA821108432D
:100B000094F82C1040EA0161C9F800100120386601
:100B1000FFF718FD044606E036E000BFFFF712FDC0
:100B2000001B022809D828688001F7D52CE000BFF7
:100B3000FFF708FD001B022802D90320BDE8F88F4B
:100B400028688001F4D41FE00128F7D0D9F800000C
:100B5000E26900F48001914214D1226A00F03F0161
:100B600091420FD147F6C071626A0140914209D1AA
:100B7000A26A00F44031914204D1E16A00F0706051
:100B8000884201D00120D9E70020D7E7043802408D
:100B900000004742800E4742007000400000FFFF07
:100BA00010B5401EB0F1807F01D3012010BD4FF081
:100BB000E02460610F21601700F09BF90020A06124
:100BC00007202061002010BD70B5040004D094F807
:100BD0003900002510B106E0012070BD84F83850BE
:100BE000204600F023F8242084F839002068C168EA
:100BF00021F40051C160204600F0E6F82068016948
:100C000021F4904101612068416921F02A0141618C
:100C10002068C16841F40051C160E563202084F878
:100C2000390084F83A00002070BD000010B586B08D
:100C3000044614216846FFF777FB14492068884270
:100C400021D113480021026842F0100202600068BE
:100C500000F0100005900E481438026842F00102BE
:100C60000260006800F0010005904FF4C060009041
:100C70000220CDE90101032003900720049069467A
:100C80000448FFF78FFB06B010BD000000100140C4
:100C90004438024000000240FEE7000030B587B053
:100CA00014216846FFF740FB16480024016841F014
:100CB00004010160016801F004010591016841F03F
:100CC000010101600068104D00F00100059022460E
:100CD00020212846FFF730FC4FF4005000900B48CD
:100CE000CDE9010469460A48FFF75CFB202000902B
:100CF0000120CDE90104694628460394FFF752FB21
:100D000007B030BD30380240000002400000211022
:100D100000080240FEE7FEE710B5FFF719FC01F0FE
:100D2000F1FA012803D0BDE8104001F021B810BD50
:100D300010B592B030216846FFF7F6FA14210CA8DE
:100D4000FFF7F2FA17480024016841F08051016072
:100D5000006800F0805011901348016841F4404150
:100D600001600068069400F4404011900220009059
:100D700001200390102004906846FFF763FD08B13E
:100D800072B6FEE70F20CDE90C040E940F940021FB
:100D90000CA81094FFF76CFC002801D072B6FEE797
:100DA00012B010BD40380240007000400548016894
:100DB00041F47001016003494FF000608039086020
:100DC0007047000088ED00E02DE9F041044600681E
:100DD0000169E26821F44051114301612169A06871
:100DE000E26908436169114308432168CA6849F20E
:100DF0000C639A430243CA6020684169A26921F4E6
:100E0000407111434161E069192764253226B0F52C
:100E1000004F354A354920684FF0000806D0884217
:100E200001D0904236D1FFF7CDFC35E0884201D0A9
:100E3000904202D1FFF7C6FC01E0FFF7B3FC616806
:100E40004A18A0FB070148EB0803FFF723FA014605
:100E5000B0FBF5F00201B1FBF5F06FF01803584359
:100E600001EB800006EBC000B0FBF5F000F0F800ED
:100E700002EB4002B1FBF5F0584301EB800006EBBA
:100E8000C000B0FBF5F000F0070021681044886056
:100E9000BDE8F081FFF786FC61688B0F8A00A0FB3C
:100EA0000701FFF7F7F90146B0FBF5F06FF0180204
:100EB000504301EB800006EB0010B0FBF5F000F0B2
:100EC000F002B1FBF5F002EB0012B1FBF5F06FF0B0
:100ED0001803584301EB800006EB0010B0FBF5F05F
:100EE00000F00F00D1E700000014014000100140A5
:100EF000FEE70907090E002804DB00F1E02080F876
:100F00000014704700F00F0000F1E02080F8141D7D
:100F1000704702E008C8121F08C1002AFAD17047C2
:100F20007047002001E001C1121F002AFBD1704769
:100F30001CB5FFF715FBFFF7FBFEFFF7AFFE1048F0
:100F40000E49002401604FF41651C0E901140C2130
:100F5000C460C0E904418461C461FFF735FE08B193
:100F600072B6FEE70820CDE900040023802205A127
:100F7000064801F06FF900F007FEFEE7001001409F
:100F8000840000205461736B310000005918000880
:100F90002DE9F041184C0F46054666692068001D92
:100FA00000F078FC38B9206890F82C1001208840B7
:100FB000A1698143A161681C07D137B12168BDE8EF
:100FC000F0410E48091D00F0BDBC20683544B54213
:100FD0004560216805D2A068BDE8F041091D00F018
:100FE00099BC6068091D00F095FC206B854200D219
:100FF0002563BDE8F081000010000020C408002037
:101000002DE9F041054600F0A9FC2D4C2069401C5B
:10101000206120682B4F10B1E06938B32CE02560C7
:101020002069012828D1002606EB860007EB800006
:1010300000F062FC761C0A2EF6D32248C83000F07D
:101040005BFC2048DC3000F057FC1E48F03000F01C
:1010500053FC1D4800F050FC1B48143000F04CFCC1
:1010600019483C3860601430A06005E02068E96AE7
:10107000C06A884200D82560E06A401CE062E96AE4
:101080000120A26988401043A06101EB810007EBB9
:101090008000291D00F056FC00F080FCE06900286B
:1010A0000CD02068E96AC06A884207D207494FF02D
:1010B00080500860BFF34F8FBFF36F8FBDE8F081A2
:1010C00010000020AC070020B008002004ED00E074
:1010D00038B500F043FC104CA068C8B90F4800F0C8
:1010E0000BFC0E48143000F007FC0C482060143054
:1010F00060600A4B00202833009003F148020C2165
:101100000A2000F04BFEA06010B105A100F0C4FC65
:10111000BDE8384000F042BC4C000020D808002058
:10112000546D72510000000030B4026C0B46002A6E
:101130000BD0C1681144C1608468A14201D3016829
:10114000C16030BC1846FFF7D6B830BC70472DE9F7
:10115000F041856B174604460026026C82B1C7B188
:10116000E068FFF7C8F8E168206C091AE1602268BE
:10117000914202D2A168081AE060022F16D017E04F
:101180002068A8B9A06801F035F906460020A060E3
:101190000EE06068FFF7AFF8216C6068084460609B
:1011A000A168884204D32068606001E005B16D1E2B
:1011B0006D1CA5633046BDE8F08110B5044690F87B
:1011C000510058B101280CD002280FD0502080F3D4
:1011D0001188BFF34F8FBFF36F8FFEE7206B00F0D6
:1011E000F1FB2046BDE8104000F0ECBB10BD000054
:1011F00010484FF47051420706D0C01D0D4920F031
:101200000700411AC1F570510B4A00230144C2E99D
:1012100000030839103A21F0070111604B600B60A0
:101220000B1AC0E9001393604FF000405360D06088
:1012300070470000C009002070000020144E154CBB
:10124000A6F582774FF08058DFF84C9012E000BF8F
:1012500000F084FBF068C568281D00F01BFB2069C6
:10126000401E2061E068401EE06000F097FB2846C9
:10127000FFF7A3FFE0680028EAD138680128F9D910
:10128000C9F80080BFF34F8FBFF36F8FF2E7000004
:10129000B00800201000002004ED00E00346009894
:1012A00029B10260C0E90F31012100F0ABBD00603F
:1012B000F8E72DE9F0479A46DDE9098481466FF0A9
:1012C0000303206B03EB82021044089E20F0070703
:1012D000780707D0502080F31188BFF34F8FBFF3FA
:1012E0006F8FFEE7002561B1002023180A5C83F8A8
:1012F00034200A5C12B1401C1028F6D384F8435005
:1013000001E084F834500A2E00D30926E662C4E9CD
:101310001165201D00F0FBFA04F1180000F0F7FA47
:101320002461C6F10A006462A061E56484F850504B
:1013300052464946384600F079FA2060B8F1000F6D
:1013400001D0C8F80040BDE8F0872DE9F0471E46FF
:10135000DDE9089417460D00804615D0002C11D009
:10136000FFF7B6FE04F11801C4F8008081E86002BE
:10137000201D00F0CCFA002F04D014F8240F40F008
:1013800004002070BDE8F087502080F31188BFF37F
:101390004F8FBFF36F8FFEE730B5114900E0114664
:1013A0000A688242FBD34B685C18844203D14068D0
:1013B00018444860084643681C18944209D1084CF8
:1013C000103C2468A24209D052681A4442600A685C
:1013D00012680260814200D0086030BD0460F9E705
:1013E0007000002070B5002441600B4D00619142F7
:1013F00006D8D11A8269914206D2011D686807E0B9
:101400009A4203D2994201D3012403E0011D2868C6
:1014100000F080FA204670BD4C00002010B5044654
:1014200000F09CFAA06B28B15FF0000400F0B6FA5F
:10143000204610BD0124F9E730B587B0394D67E08B
:101440000498002864DB069C606910B1201D00F040
:1014500021FA03A800F0D8F8024604980A2857D2C7
:10146000DFE800F00505052D334A05052D3394F816
:10147000240040F0010084F824000599A069059B30
:1014800001442046FFF7AEFF68B3216A2046884733
:1014900094F8240040073BD5002000900598A169EE
:1014A000002342181946204601F0D6F8D8B950203A
:1014B00080F31188BFF34F8FBFF36F8FFEE714F8EF
:1014C000240F20F00100207022E094F8240040F066
:1014D000010084F824000598A06128B18118134602
:1014E0002046FFF77FFF13E0502080F31188BFF301
:1014F0004F8FBFF36F8FFEE794F82400810703D46A
:10150000204600F05FFA03E020F0010084F8240098
:10151000002204A9A86800F0C7FD002890D107B0F8
:1015200030BD00004C0000202DE9FC410F4605466F
:1015300000F06EFB01A800F067F80446019818B1AE
:1015400000F0DEFFBDE8FC81254EAFB17068006899
:10155000D0B30027291B3A46B06800F0B1FA00F07A
:10156000CFFF0028EED11F494FF080500860BFF335
:101570004F8FBFF36F8FE5E7A542EBD800F0C0FFB8
:1015800030682746C068C468201D00F083F994F8CD
:101590002400410719D5A0692B4641193A46204637
:1015A000FFF720FFA8B100200346014600902A461D
:1015B000204601F051F860B9502080F31188BFF344
:1015C0004F8FBFF36F8FFEE707E020F0010084F834
:1015D0002400216A20468847B4E70127BAE70000C3
:1015E0004C00002004ED00E006484168096829B17C
:1015F0004168C968C9684968016370474FF0FF31A5
:10160000FAE700001000002070B5054600F088FEE3
:10161000064E04463069844203D200F009F80120E6
:1016200000E0002028602046346170BD4C0000209E
:10163000F8B5194D20E0C068C4680668201D00F0A8
:1016400029F9216A2046884794F82400400713D5D9
:10165000A0693044B04206D924616060211D286829
:1016600000F058F908E00020034601460090324699
:10167000204600F0F1FF38B1286801680029DAD16E
:101680006968C5E90010F8BD502080F31188BFF3E8
:101690004F8FBFF36F8FFEE74C0000200848406873
:1016A000401C4FF0500080F3118804D0BFF34F8FDF
:1016B000BFF36F8FFEE7BFF34F8FBFF36F8FFEE770
:1016C00078000020074C2068016841B1C068002103
:1016D000D0F80000FFF728FFFFF7AEFEF3E7012187
:1016E0000020F7E74C0000202DE9F041044600F00F
:1016F00035F994F9455004F1240609E0606A48B1CF
:10170000304600F0C3FE08B100F004FA6D1E6DB261
:10171000002DF3DC4FF0FF3684F8456000F03EF911
:1017200000F01CF994F9445004F1100709E0206915
:1017300048B1384600F0AAFE08B100F0EBF96D1E82
:101740006DB2002DF3DC84F84460BDE8F04100F098
:1017500025B900002DE9F0410546002700F058FAB0
:10176000314E306808B9FFF743FDF06805424BD1B0
:10177000C5B3083568070ED005F00700C0F10800B2
:101780000544680707D0502080F31188BFF34F8FBE
:10179000BFF36F8FFEE72DB37068854234D82248BF
:1017A000103001460C6801E020460C466168A942F1
:1017B00002D221680029F7D131688C4224D0076811
:1017C0002168016060680837411B10290FD9601932
:1017D000420708D0502080F31188BFF34F8FBFF32A
:1017E0006F8FFEE710E041606560FFF7D5FD61682F
:1017F0007068401A7060B268904200D2B060F068C1
:1018000001430020C4E9000100F07AFE780707D008
:10181000502080F31188BFF34F8FBFF36F8FFEE727
:101820003846BDE8F08100006000002010B5031FBD
:101830004FF080741C601B1F21F001011960191FFB
:10184000044B0B6014390A60091F6FF00202443820
:101850000A6010BD9D16000808B50A4800900023D4
:1018600001224FF47A7108A000F0ACFE044600F0AB
:1018700057FD02460020034600900121204600F05B
:10188000EBFEFEE7E9180008537175617265576158
:1018900076650000D0E9013201699A60D0E9012340
:1018A0005A604A68824201D182684A60002202611D
:1018B0000868401E0860086870470000034B03601A
:1018C00003F154000860802010607047C4000020BD
:1018D000044B036003F1540008604FF48070106003
:1018E00070470000180300200248416981F0200180
:1018F000416170470000024000F108014FF0FF32E3
:10190000C0E90112C160016100210160704700213E
:101910000161704730B50B685A1C02D000F1080213
:1019200002E0026904E02246546825689D42FAD923
:1019300053684B6099608A60516008610168491C76
:10194000016030BD42684A6093688B60936859605B
:10195000916008610168491C01607047502080F364
:101960001188BFF34F8FBFF36F8F0A494868401C3F
:10197000486001280CD10848006810F0FF0F07D01C
:10198000502080F31188BFF34F8FBFF36F8FFEE7B6
:10199000704700007800002004ED00E00849486826
:1019A00028B1401E486001D180F311887047502053
:1019B00080F31188BFF34F8FBFF36F8FFEE70000F6
:1019C0007800002070B5002827D0144DA0F108043D
:1019D0006168E868014207D1502080F31188BFF3A5
:1019E0004F8FBFF36F8FFEE722683AB1502080F32C
:1019F0001188BFF34F8FBFF36F8FFEE781436160A4
:101A000000F006F960686968084468602046FFF7DE
:101A1000C3FCBDE8704000F073BD70BD60000020E5
:101A20004FF0E02000210161816105494FF47A7295
:101A30000968B1FBF2F1491E41610721016170475C
:101A40000C00002010B5FEF70FFC114910280ED332
:101A500000F1E02090F8F0030A78904207D250207D
:101A600080F31188BFF34F8FBFF36F8FFEE70948F4
:101A70000068896800F4E060884207D9502080F34C
:101A80001188BFF34F8FBFF36F8FFEE710BD0000CB
:101A9000780000200CED00E010B5084B002200BFDC
:101AA00053F832401CB1521C082AF9D310BD43F838
:101AB000321003EBC201486010BD00006C0700202B
:101AC00070B515460E460446FFF748FF94F94410DA
:101AD0000020491C01D184F8440094F94510491CA8
:101AE00001D184F84500FFF759FFA06B28B92A46B9
:101AF000314604F1240000F02BF82046BDE8704088
:101B0000FFF7F2BD02498A6A026049694160704785
:101B10001000002001490120486270471000002099
:101B200010B50C4650B1094909681831FFF7F2FEAB
:101B30002046BDE810400121FFF72ABA502080F36B
:101B40001188BFF34F8FBFF36F8FFEE710000020A7
:101B500070B514460D4668B10A4909681831FFF797
:101B6000F1FE0CB14FF0FF3521462846BDE870402C
:101B7000FFF70EBA502080F31188BFF34F8FBFF3E9
:101B80006F8FFEE71000002030B587B0002403946B
:101B900005AA04A903A80494FFF790FEDDE9030158
:101BA0000094CDE90110002315A11748059A00F013
:101BB0007EFB164D002868631FD000F01DFD012834
:101BC00009D0401C19D1502080F31188BFF34F8FEA
:101BD000BFF36F8FFEE7502080F31188BFF34F8F64
:101BE000BFF36F8F4FF0FF3028630120E8616C6115
:101BF00007B0BDE8304000F041B807B030BD00008C
:101C000049444C45000000003D120008100000202F
:101C10000248816B491C816370470000100000205E
:101C20001448816B11B1012141627047002141626A
:101C30008169B1FA81F1C1F11F0101EB81020E4905
:101C400051F822306BB101EB820101F108034A68BF
:101C500052684A609A4201D152684A60D168016074
:101C60007047502080F31188BFF34F8FBFF36F8F01
:101C7000FEE7000010000020AC0700201CB537482C
:101C80000168374A914207D1502080F31188BFF391
:101C90004F8FBFF36F8FFEE700683149491E8842BE
:101CA00007D1502080F31188BFF34F8FBFF36F8FA0
:101CB000FEE72C4908780190FF20087008788DF81D
:101CC00000009DF800009DF8002000F0F000904218
:101CD00007D0502080F31188BFF34F8FBFF36F8F71
:101CE000FEE79DF80000204B00F050001870072020
:101CF000986005E09DF8002052008DF80020401EFD
:101D00009DF800201206F5D49860032807D05020D3
:101D100080F31188BFF34F8FBFF36F8FFEE74FF44F
:101D200040709860019808700C482030016841F4B8
:101D300070010160016841F070410160FFF770FEC1
:101D400000205860FEF758FA0848016841F0404109
:101D50000160FEF73DFA00201CBD000000ED00E030
:101D600071C20F4100E400E07800002034EF00E091
:101D700010B5502080F31188BFF34F8FBFF36F8FE2
:101D800000F0D4FA18B104494FF0805008600020E8
:101D900080F3118810BD000004ED00E038B5049D0B
:101DA00018B153B1CAB181B120E0502080F311883D
:101DB000BFF34F8FBFF36F8FFEE7502080F3118882
:101DC000BFF34F8FBFF36F8FFEE7502080F3118872
:101DD000BFF34F8FBFF36F8FFEE739B1502080F311
:101DE0001188BFF34F8FBFF36F8FFEE748241C4667
:101DF000012384F846302B460094FFF74FFA204623
:101E000038BD000070B50D46040025D0FFF7A6FDD3
:101E1000D4E90F20216802FB0011A1600021A16319
:101E2000216861600A46D4E90F01401E00FB0121D0
:101E3000E16021464FF0FF3001F8440F487004F193
:101E400010008DB1FFF758FD04F12400FFF754FD99
:101E5000FFF7A4FD012070BD502080F31188BFF36F
:101E60004F8FBFF36F8FFEE721690029F0D000F09C
:101E70000DFB0028ECD004494FF080500860BFF300
:101E80004F8FBFF36F8FE3E704ED00E02DE9FF47CD
:101E900082B01D468A464FF00008040003D0BAF114
:101EA000000F08D011E0502080F31188BFF34F8F4E
:101EB000BFF36F8FFEE7206C38B1502080F311889C
:101EC000BFF34F8FBFF36F8FFEE7022D0AD1E06B98
:101ED000012807D0502080F31188BFF34F8FBFF344
:101EE0006F8FFEE700F00EFA3F4F4FF000094FF002
:101EF000805648B9049838B1502080F31188BFF358
:101F00004F8FBFF36F8FFEE7FFF728FDA06BE16BEC
:101F1000884207D3022D05D00498D0B1B8F1000F44
:101F20001AD01EE02A4651462046FFF710F9616A92
:101F300019B104F1240000F0A9FA20B13E60BFF30A
:101F40004F8FBFF36F8FFFF729FD012006B0BDE86B
:101F5000F087FFF723FD22E06846FFF7D3FD4FF03F
:101F60000108FFF71BFDFFF753FEFFF7F7FC94F99D
:101F70004400401C01D184F8449094F94500401C71
:101F800001D184F84590FFF709FD04A9684600F0E7
:101F900027F930B12046FFF7A7FB00F0B1FA002087
:101FA000D4E7FFF7DBFCA06BE16B884213D1FFF7AE
:101FB000F5FC04F110000499FFF7B2FD2046FFF78D
:101FC00093FB00F09DFA00289ED13E60BFF34F8F37
:101FD000BFF36F8F98E7FFF7E1FC2046FFF784FB24
:101FE00000F08EFA90E7000004ED00E02DE9F047E4
:101FF0001F4690468946040003D0B9F1000F08D06F
:1020000011E0502080F31188BFF34F8FBFF36F8F23
:10201000FEE7206C38B1502080F31188BFF34F8F5A
:10202000BFF36F8FFEE7022F0AD1E06B012807D0C4
:10203000502080F31188BFF34F8FBFF36F8FFEE7FF
:10204000FFF700FD5020EFF3118680F31188BFF3F6
:102050004F8FBFF36F8FA06BE16B884206D3022FC7
:1020600004D0002086F31188BDE8F08794F945502C
:102070003A4649462046FFF76AF8681C04D06D1CB2
:1020800084F845500120EDE7606A0028FAD004F199
:10209000240000F0FBF90028F4D0B8F1000FF1D0D3
:1020A0000121C8F80010EDE72DE9F747002683B0BD
:1020B0008A46040003D0BAF1000F08D011E0502086
:1020C00080F31188BFF34F8FBFF36F8FFEE7206C53
:1020D00038B1502080F31188BFF34F8FBFF36F8F5B
:1020E000FEE700F00FF9DFF8F4804FF000094FF041
:1020F000805748B9059838B1502080F31188BFF354
:102100004F8FBFF36F8FFEE7FFF728FCA56BC5B1BC
:1021100051462046FFF708F86D1EA563206950B1AF
:1021200004F1100000F0B2F928B1C8F80070BFF354
:102130004F8FBFF36F8FFFF731FC012006B0BDE872
:10214000F087059808B11EB106E0FFF727FC27E0ED
:102150006846FFF7D7FC0126FFF720FCFFF758FD84
:10216000FFF7FCFB94F94400401C01D184F8449033
:1021700094F94500401C01D184F84590FFF70EFC0E
:1021800005A9684600F02CF8002820460AD0FFF781
:10219000ABFA00F0B5F92046FFF740F90028B3D0BC
:1021A0000020CBE7FFF73AF990B104F1240005993C
:1021B000FFF7B6FC2046FFF797FA00F0A1F90028D8
:1021C000A2D1C8F80070BFF34F8FBFF36F8F9BE7AA
:1021D0002046FFF789FA00F093F995E704ED00E057
:1021E0002DE9F0410C46050011D0C4B1FFF7B6FB54
:1021F000174B5A696E682068911B471C17D02F68CF
:102200009B6A9F4219D0964217D8012410E05020B3
:1022100080F31188BFF34F8FBFF36F8FFEE750201D
:1022200080F31188BFF34F8FBFF36F8FFEE7002459
:10223000FFF7B4FB2046BDE8F081884205D9401A7B
:1022400020602846FFF75EFCF1E700202060DCE715
:10225000100000202DE9FF5F8346DDE90E879946D7
:1022600016468A469000FFF775FA05001CD05420E8
:10227000FFF770FA040014D00020256384F85100A1
:10228000CDE90240CDE900874B46324651465846DB
:10229000FFF70FF82046FEF7B3FE012004B0BDE8BB
:1022A000F09F2846FFF78EFB4FF0FF30F6E7F0B5C2
:1022B00085B0DDE90B640A9DA6B1DCB15427009717
:1022C0002663022684F85160002604AFCDE9024659
:1022D000CDE90057FEF7EDFF2046FEF791FE04988A
:1022E00005B0F0BD502080F31188BFF34F8FBFF3CE
:1022F0006F8FFEE7502080F31188BFF34F8FBFF33D
:102300006F8FFEE70548C16919B1806B18B10020D5
:102310007047012070470220704700001000002025
:102320000148406970470000100000202DE9F0418D
:102330002E4C0027A06B40B1206A401C2062606ACE
:1023400000B101273846BDE8F0816669761C6661F8
:1023500013D16068006838B1502080F31188BFF352
:102360004F8FBFF36F8FFEE76068A1686160A06068
:10237000A06A401CA062FFF737F9206BDFF870807D
:10238000864209D36068006880B16068C068C5682B
:10239000686886420DD220632068C06A00EB800125
:1023A00058F821000128CAD90127C8E74FF0FF30AB
:1023B000F1E7281DFFF76EFAA86A18B105F11800B9
:1023C000FFF768FAE86A0121A26981401143A1611F
:1023D00000EB800108EB8100291DFFF7B3FAE86AE2
:1023E0002168C96A8842CDD30127CBE710000020BD
:1023F000AC07002070B504004FF0000140D0214D23
:102400002868844207D0502080F31188BFF34F8F93
:10241000BFF36F8FFEE7A06C38B1401EA064636C01
:10242000E26A9A422CD040B12AE0502080F3118811
:10243000BFF34F8FBFF36F8FFEE7201DFFF72AFA20
:10244000114A012150B9E06A00EB800352F82330B1
:1024500023B9AB6901FA00F08343AB61606CE062C1
:10246000C0F10A00A061E06AAB6981401943A9612B
:1024700000EB800002EB8000211DFFF763FA0121D1
:10248000084670BD10000020AC0700202DE9F04187
:10249000C068C468ACB104F118000746FFF7FAF948
:1024A000154DA86B0126A0B139461448FFF74AFA2A
:1024B000E06A2968C96A88421CD901206E62BDE8B9
:1024C000F081502080F31188BFF34F8FBFF36F8FDF
:1024D000FEE7201DFFF7DEF9E16AAA6906FA01F0BE
:1024E0001043A86101EB81000449F03901EB800041
:1024F000211DDBE70020E2E7100000209C080020FF
:102500002DE9F0472C4D00242746A86B38B1FFF782
:1025100025FAA86B401EA863A86B40B146E0502086
:1025200080F31188BFF34F8FBFF36F8FFEE72969E8
:10253000224E0120D1B3A6F1F00980463068E8B1FF
:10254000F068C46804F11800FFF7A4F9201DFFF734
:10255000A1F9E06AAA6908FA00F11143A96100EB48
:10256000800109EB8100211DFFF7ECF9E06A296881
:10257000C96A8842E2D3C5F82480DFE70CB1FFF7CF
:1025800033F82C6A44B14646FFF7D0FE00B16E62C4
:10259000641EF9D100202862686A38B10849012711
:1025A00038070860BFF34F8FBFF36F8FFFF7F6F95F
:1025B0003846BDE8F0870000100000209C0800208D
:1025C00004ED00E02DE9FC4781461E46174688468B
:1025D00028200A9DFFF7BEF804000AD0002084F8E6
:1025E0002400CDE9005433463A4641464846FEF7BA
:1025F000ACFE2046BDE8FC8710B586B0FEF768FD4E
:10260000114CA068B8B100200390049005AA04A959
:1026100003A8FFF75DF9DDE9032108208DE8070035
:1026200000230AA10B48059AFFF741FEE06010B1B4
:1026300006B0012010BD502080F31188BFF34F8FEA
:10264000BFF36F8FFEE700004C000020546D722036
:1026500053766300C5160008FEB51E4613460200F9
:10266000089D4FF0000014D0124CA768002F0FD027
:10267000CDE900130292062915DAFFF743FE02287E
:102680004FF000030DD000226946A068FFF7FEFB63
:10269000FEBD502080F31188BFF34F8FBFF36F8FC3
:1026A000FEE72A46F0E70023324669463846FFF740
:1026B0009DFCFEBD4C00002000000000000000005A
:1026C00001020304060708090000000001020304D8
:1026D000F02600080000002084000000120F00080F
:1026E00074270008840000203C490000220F0008E5
:1026F0000100000010000000000000000024F400B1
:1027000000000000000000000000000000000000C9
:1027100000000000000000000000000000000000B9
:1027200000000000000000000000000000000000A9
:102730000000000000000000000000000000000099
:102740000000000000000000000000000000000089
:102750000000000000000000000000000000000079
:10276000000000000000000000000000AAAAAAAAC1
:042770000000000065
:040000050800019955
:00000001FF
