:020000040800F2
:10000000B0410020610200089D1000083510000872
:10001000991000086D030008BD15000800000000DD
:10002000000000000000000000000000A101000826
:100030007103000800000000FD010008A110000885
:100040007B0200087B0200087B0200087B0200089C
:100050007B0200087B0200087B0200087B0200088C
:100060007B0200087B0200087B0200087B0200087C
:100070007B0200087B0200087B0200087B0200086C
:100080007B0200087B0200087B0200087B0200085C
:100090007B0200087B0200087B0200087B0200084C
:1000A0007B0200087B0200087B0200087B0200083C
:1000B0007B0200087B0200087B0200087B0200082C
:1000C0007B0200087B0200087B0200087B0200081C
:1000D0007B0200087B0200087B0200087B0200080C
:1000E0007B0200087B0200087B0200087B020008FC
:1000F0007B0200087B0200087B0200087B020008EC
:100100007B0200087B0200087B0200087B020008DB
:100110007B0200087B0200087B0200087B020008CB
:100120007B0200087B0200087B0200087B020008BB
:100130007B0200087B0200087B0200087B020008AB
:100140007B0200087B0200087B0200087B0200089B
:100150007B0200087B0200087B0200087B0200088B
:100160007B0200087B0200087B0200087B0200087B
:100170007B0200087B0200087B02000800000000F0
:100180007B0200087B020008DFF810D000F0DCF8EA
:100190000048004785160008AFF30080B0410020FA
:1001A0002C4B19680868B0E8F04F80F30988BFF35A
:1001B0006F8F4FF0000080F311887047000000003F
:1001C00008480068006880F308884FF0000080F35A
:1001D000148862B661B6BFF34F8FBFF36F8F00DF35
:1001E00000BF00BF08ED00E0DFF80C00016841F43B
:1001F00070010160704700BF88ED00E0EFF30980F7
:10020000BFF36F8F134B1A681EF0100F08BF20ED5D
:10021000108A20E9F04F106009B44FF0500080F3CD
:100220001188BFF34F8FBFF36F8F01F0F5FE4FF0D2
:10023000000080F3118809BC19680868B0E8F04F25
:100240001EF0100F08BFB0EC108A80F30988BFF3CE
:100250006F8F70471C000020EFF30580704700008F
:100260000648804706480047FEE7FEE7FEE7FEE750
:10027000FEE7FEE7FEE7FEE7FEE7FEE74D110008BA
:10028000890100082DE9F05F0546002092469B4653
:1002900088460646814640241BE02846414647469C
:1002A000224600F041F853465A46C01A914110D3F5
:1002B00011461846224600F028F82D1A67EB01086F
:1002C0004F4622460120002100F01FF817EB0009DD
:1002D0004E41201EA4F10104DFDC484631462A4687
:1002E0004346BDE8F09FD2B201E000F8012B491E61
:1002F000FBD270470022F6E710B513460A460446C3
:100300001946FFF7F0FF204610BD202A04DB203AF3
:1003100000FA02F1002070479140C2F1200320FA58
:1003200003F3194390407047202A04DB203A21FA56
:1003300002F00021704721FA02F3D040C2F12002FE
:100340009140084319467047064C074D06E0E068A7
:1003500040F0010394E8070098471034AC42F6D30C
:10036000FFF716FFC8270008E827000800BFFEE7D0
:10037000704772B600BFFEE7F8B502460B4600258F
:10038000002400200021DCE0012606FA01F51E68A9
:1003900006EA0504AC4273D15E68012E08D05E689F
:1003A000022E05D05E68112E02D05E68122E13D187
:1003B00090684F000326BE40B0434F00DE68BE4049
:1003C00030439060506801268E40B0431E79C6F3DA
:1003D00000168E4030435060D0684F000326BE4068
:1003E000B0434F009E68BE403043D0605E68022E2E
:1003F00002D05E68122E13D1CF0802F1200656F803
:1004000027004E07F70E0F26BE40B0434F07FF0EE2
:100410001E69BE403043CF0802F1200646F827008F
:1004200010684F000326BE40B0431E7906F0030655
:100430004F00BE40304310605E6806F08056B6F153
:10044000805F7DD100BF00260096404E366846F49E
:1004500080463E4F3E603E46366806F48046009633
:1004600000BF00BF3A4E8F0856F827008E07370F9F
:100470000F26BE40B043374EB24202D1002624E0E0
:100480005EE0354EB24201D101261EE0334EB2424B
:1004900001D1022619E0324EB24201D1032614E006
:1004A000304EB24201D104260FE02F4EB24201D1AC
:1004B00005260AE02D4EB24201D1062605E02C4E5B
:1004C000B24201D1072600E008268F073F0FBE4049
:1004D00030431F4E8F0846F82700264E3068A04351
:1004E0005E6806F48036B6F5803F00D12043214E89
:1004F0003060361D3068A0435E6806F40036B6F5FD
:10050000003F00D120431B4E361D3060361D306841
:10051000A0435E6806F48016B6F5801F00D1204324
:10052000144E08363060361D3068A0435E6806F40D
:100530000016B6F5001F00D120430E4E0C36306079
:10054000491C1029FFF420AFF8BD000044380240D8
:100550000838014000000240000402400008024048
:10056000000C02400010024000140240001802403B
:10057000001C0240003C0140014800687047000038
:100580000C00002003480068034909780844014929
:10059000086070470C0000201400002010B50D48C2
:1005A000006840F400700B4908600846006840F499
:1005B000806008600846006840F48070086003208E
:1005C00000F098F80F2000F007F800F02BF800205A
:1005D00010BD0000003C024070B504460E48007893
:1005E0004FF47A71B1FBF0F00C490968B1FBF0F5FA
:1005F000284600F017FC08B1012070BD102C07D26E
:1006000000222146501E00F037F80548046001E042
:100610000120F2E70020F0E714000020180000207D
:100620001000002008B500BF0020009011480068AD
:1006300040F480400F4908600846006800F480409C
:10064000009000BF00BF00BF00200090081F00689E
:1006500040F08050091F08600846006800F0805094
:10066000009000BF00BF00220F21901E00F004F890
:1006700008BD0000443802402DE9F05F80460D4679
:100680001646002700F09CFF074639462A463346A7
:1006900001F00700C0F1070ABAF1040F02D94FF0C8
:1006A000040A01E0C0F1070AD14600F1040ABAF1D8
:1006B000070F02D24FF0000A01E0A0F1030AD4466E
:1006C0004FF0010A0AFA09FAAAF1010A0AEA020A33
:1006D0000AFA0CFA4FF0010B0BFA0CFBABF1010B11
:1006E0000BEA030B4AEA0B042146404600F070FF78
:1006F000BDE8F09F00BF00F00702064B19684FF6F7
:10070000FF031940044B0B4343EA0221014B1960DC
:1007100000BF70470CED00E00000FA0570B504461C
:100720000D460CB9012070BD5848006800F00F005C
:10073000A84209D255490D700846006800F00F0024
:10074000A84201D00120EEE7207800F00200022844
:100750001DD1207800F00400042805D14C48006821
:1007600040F4E0504A490860207800F0080008286A
:1007700005D14748006840F4604045490860444856
:10078000006820F0F000A168084341490860207823
:1007900000F00100A8B36068012807D13C48083880
:1007A0000068C0F34040B8B90120BCE76068022887
:1007B00002D06068032807D1354808380068C0F3C4
:1007C000406048B90120AEE7314808380068C0F3FE
:1007D000400008B90120A6E72D48006820F003007A
:1007E000616808432A490860FFF7C6FE064609E02B
:1007F000FFF7C2FE801B41F28831884202D90320F4
:1008000091E707E02248006800F00C006168B0EB57
:10081000810FEDD11D48006800F00F00A84209D9F2
:100820001A490D700846006800F00F00A84201D078
:10083000012078E7207800F00400042807D114484C
:10084000006820F4E050E16808431149086020780E
:1008500000F00800082808D10D48006820F4604026
:10086000216940EAC1000A49086000F03FF80849E0
:100870000968C1F30311074A515CC8400649086082
:1008800006480068FFF7A8FE00204CE7003C024045
:1008900008380240B027000818000020100000208F
:1008A00001480068704700001800002000B5FFF7FD
:1008B000F7FF04490968C1F38221034A515CC8402B
:1008C00000BD000008380240C027000800B5FFF74F
:1008D000E7FF04490968C1F34231034A515CC8404B
:1008E00000BD000008380240C02700082DE9F0478D
:1008F000002400250026A1462548006800F00C00D1
:1009000020B1042805D008283AD105E0DFF884900A
:1009100039E0DFF8849036E01D48001F006800F0E1
:100920003F041B48001F006800F4800078B11A489B
:100930001749091F0968C1F38811A0FB017001461E
:10094000224600233846FFF79DFC05460EE011487D
:100950000F49091F0968C1F38811A0FB0170014606
:10096000224600233846FFF78DFC05460848001F45
:100970000068C0F30140401C4600B5FBF6F902E0F8
:10098000DFF8109000BF00BF4846BDE8F0870000C8
:10099000083802400024F40040787D01F8B5044690
:1009A0000CB90120F8BD207800F00100002874D0B7
:1009B000F948006800F00C0004280DD0F6480068E3
:1009C00000F00C00082813D1F348001F006800F461
:1009D0008000B0F5800F0BD1EF4808380068C0F3F5
:1009E0004040002859D06068002856D10120D9E73E
:1009F00000BF6068B0F5803F08D1E748083800685C
:100A000040F48030E449083908601EE06068B0F5C1
:100A1000A02F0DD1E0480838006840F48020DE495E
:100A2000083908600846006840F4803008600CE02F
:100A3000D9480838006820F48030D7490839086060
:100A40000846006820F48020086000BF606890B10C
:100A5000FFF792FD054606E0FFF78EFD401B642878
:100A600001D903209EE7CC4808380068C0F3404015
:100A70000028F1D011E0FFF77FFD054606E0FFF703
:100A80007BFD401B642801D903208BE7C24808384E
:100A90000068C0F340400028F1D1207800F0020047
:100AA00002285FD1BC48006800F00C0058B1BA4879
:100AB000006800F00C0008281CD1B748001F00682F
:100AC00000F48000B0B9B44808380068C0F34000B2
:100AD00020B1E068012801D0012063E7AE48083862
:100AE000006820F0F800216940EAC100AA490839ED
:100AF000086037E0E06800B30120A8490860FFF70C
:100B00003BFD054606E0FFF737FD401B022801D9F3
:100B1000032047E7A04808380068C0F340000028D9
:100B2000F1D09D480838006820F0F800216940EABB
:100B3000C10099490839086014E00020974908600D
:100B4000FFF71AFD054606E0FFF716FD401B0228D9
:100B500001D9032026E7904808380068C0F3400018
:100B60000028F1D1207800F0080008282CD1606915
:100B7000A8B101208A490860FFF7FEFC054606E09F
:100B8000FFF7FAFC401B022801D903200AE782483C
:100B90006C300068C0F340000028F1D014E0002061
:100BA0007F490860FFF7E8FC054606E0FFF7E4FC34
:100BB000401B022801D90320F4E677486C30006816
:100BC000C0F340000028F1D1207800F00400042890
:100BD00070D1002770483830006800F0805090B91C
:100BE00000BF002000906C483830006840F0805012
:100BF0006949383108600846006800F0805000906C
:100C000000BF00BF01276748006800F48070B0B9DA
:100C10006448006840F4807062490860FFF7ACFCEB
:100C2000054606E0FFF7A8FC401B022801D9032077
:100C3000B8E65C48006800F480700028F2D000BF7D
:100C4000A068012808D154486830006840F00100CD
:100C50005149683108601DE0A06805280DD14E4853
:100C60006830006840F004004B496831086008466D
:100C7000006840F0010008600CE0474868300068F8
:100C800020F001004449683108600846006820F0FF
:100C90000400086000BFA068A8B1FFF76DFC05461E
:100CA00009E0FFF769FC401B41F28831884202D914
:100CB000032077E626E0384868300068C0F340003B
:100CC0000028EED013E0FFF757FC054608E0FFF7D9
:100CD00053FC401B41F28831884201D9032061E670
:100CE0002D4868300068C0F340000028EFD1012F84
:100CF00007D129483830006820F080502649383123
:100D0000086000BFA069002845D02348006800F0B3
:100D10000C0008285DD0A069022845D100201F4999
:100D20000866FFF729FC054606E0FFF725FC401B97
:100D3000022801D9032035E6174808380068C0F3B7
:100D400040600028F1D1D4E907010843616A40EA14
:100D500081110122A06AC2EB500041EA00412C201F
:100D6000005D41EA00600C49091F086001200B4941
:100D70000866FFF701FC054606E0FFF7FDFB401B98
:100D8000022801D903200DE6034808380068C0F3A3
:100D900040600028F1D03FE00838024000004742A0
:100DA000800E47420070004000201C490866FFF793
:100DB000E3FB054606E0FFF7DFFB401B022801D9F5
:100DC0000320EFE516480068C0F340600028F2D128
:100DD00022E0A069012800D1E4E51148001D066861
:100DE00006F48001E069814214D106F03F01206AD7
:100DF00081420FD147F6C0703040616A884209D104
:100E000006F44031A06A814204D106F07061E06AC4
:100E1000814201D00120C5E50020C3E50000474222
:100E20000038024070B504462546681EB0F1807F48
:100E300001D301200FE0681E4FF0E02148610F212F
:100E40004FF0FF3000F0C4FB00204FF0E02188613C
:100E500007200861002070BD10B504460CB90120C0
:100E600010BDA06900B100E000BF94F8390028B9B6
:100E7000002084F83800204600F028F8242084F868
:100E800039002068C06820F400502168C8602046FE
:100E900000F06AF92068006920F490402168086138
:100EA0002068406920F02A00216848612068C068F5
:100EB00040F400502168C8600020E063202084F8DE
:100EC000390084F83A000020CAE7000010B586B067
:100ED0000446142101A8FFF70DFA1B492068884237
:100EE0002FD100BF002000901848006840F4002077
:100EF000164908600846006800F40020009000BF12
:100F000000BF00BF0020009010481038006840F07B
:100F100001000E49103908600846006800F0010021
:100F2000009000BF00BF032001900220029001202A
:100F30000390032004900820059001A90448FFF7BE
:100F40001BFA06B010BD0000004C004040380240C3
:100F5000000002402DE9F84304460D4616461F46A0
:100F60004FF0000994F83A00202861D105B116B974
:100F70000120BDE8F88300BF94F83800012801D1B2
:100F80000220F6E7012084F8380000BF0020E0636B
:100F9000222084F83A00FFF7EFFA8146A685E6851D
:100FA00000BF002084F8380000BF39E0E08D401E0B
:100FB000E085A068B0F5805F1BD14B460022202160
:100FC0002046009700F0C4FA08B10320D1E7A846F4
:100FD000206938B920684068C0F30800A8F800000C
:100FE000AD1C1DE020684068C0B2A8F800006D1C70
:100FF00016E04B46002220212046009700F0A8FA78
:1010000008B10320B5E7206920B92068406805F8D9
:10101000010B05E02068406800F07F0005F8010B37
:10102000E08D0028C2D1202084F83A000020A0E7FB
:1010300002209EE700BFFEE708B500BF0020009039
:101040000648006840F0010004490860084600684E
:1010500000F00100009000BF00BF08BD3038024022
:1010600010B50B480B4908604FF4E130486000218F
:1010700008488160C16001610C21416100218161EA
:10108000C161FFF7E9FE08B1FFF773F910BD000079
:10109000004C00407C00002000BFFEE700BFFEE7E0
:1010A00010B5FFF76FFA01F04DFA012801D001F0F9
:1010B000FDF910BD00B593B0302107A8FFF71AF96C
:1010C000142102A8FFF716F900BF002001901D4867
:1010D000006840F080501B4908600846006800F036
:1010E0008050019000BF00BF00BF00200190164853
:1010F000006840F48040144908600846006800F425
:101100008040019000BF00BF0220079001200A909C
:1011100010200B9000200D9007A8FFF73FFC08B1AE
:10112000FFF727F90F20029000200390049005900C
:101130000690002102A8FFF7F1FA08B1FFF719F9AC
:1011400013B000BD40380240007000400548006800
:1011500040F47000034908604FF000600149803995
:101160000860704788ED00E02DE9F84F04462068DC
:10117000006920F44050E168084321680861216952
:10118000A068084361690843E1690843009020684A
:10119000C06849F20C618843009908432168C8601F
:1011A0002068406920F44070A169084321684861C3
:1011B000E069B0F5004F75D1E3492068884203D05B
:1011C000E249206888426FD1FFF780FB8146022008
:1011D0006168A0FB01510B461920A9FB00712A464A
:1011E0003846FFF74FF86421B0FBF1F04FEA001AE0
:1011F00002206168A0FB01510B461920A9FB007178
:101200002A463846FFF73EF8074602206168A0FBF1
:1012100001510B461920A9FB00B12A465846FFF799
:1012200031F86421B0FBF1F000EBC00101EB0010DC
:10123000A7EB8000322101EBC0006421B0FBF1F08C
:1012400000F0F8000AEB400A02206168A0FB01519F
:101250000B461920A9FB00712A463846FFF712F801
:10126000074602206168A0FB01510B461920A9FB2B
:1012700000B12A465846FFF705F86421B0FBF1F0AB
:1012800000EBC00101EB0010A7EB8000322101EB65
:10129000C0006421B0FBF1F000F007005044216869
:1012A00088604FE16EE0FFE7FFF700FB8146022018
:1012B0006168A0FB01510B461920A9FB00712A4669
:1012C0003846FEF7DFFF6421B0FBF1F04FEA001A69
:1012D00002206168A0FB01510B461920A9FB007197
:1012E0002A463846FEF7CEFF074602206168A0FB7B
:1012F00001510B461920A9FB00B12A465846FEF7BA
:10130000C1FF6421B0FBF1F000EBC00101EB001064
:10131000A7EB8000322101EBC0006421B0FBF1F0AB
:1013200000F0F8000AEB400A02206168A0FB0151BE
:101330000B461920A9FB00712A463846FEF7A2FF8A
:10134000074602206168A0FB015003461920A9FB53
:1013500000B12A465846FEF795FF6421B0FBF1F034
:1013600000EBC00101EB0010A7EB8000322101EB84
:10137000C0006421B0FBF1F000F007005044216888
:101380008860DFE070492068884203D06F49206898
:1013900088426BD1FFF79AFA814604206168A0FB6E
:1013A00001510B461920A9FB00712A463846FEF769
:1013B00069FF824604206168A0FB01510B46192099
:1013C000A9FB00712A463846FEF75CFF6421B0FB9A
:1013D000F1F000EBC00101EB0010AAEB800032211C
:1013E00001EB00106421B0FBF1F000F0F00A0420E2
:1013F0006168A0FB015003461920A9FB00712A4631
:101400003846FEF73FFF6421B0FBF1F00AEB001A0B
:1014100004206168A0FB01510B461920A9FB007153
:101420002A463846FEF72EFF074604206168A0FBD7
:10143000015003461920A9FB00B12A465846FEF781
:1014400021FF6421B0FBF1F000EBC00101EB0010C3
:10145000A7EB8000322101EB00106421B0FBF1F01A
:1014600000F00F005044216888606BE0FFF71EFA1F
:10147000814604206168A0FB015003461920A9FBA6
:1014800000712A463846FEF7FDFE82460420616858
:10149000A0FB015003461920A9FB00712A463846DB
:1014A000FEF7F0FE6421B0FBF1F000EBC00101EBB0
:1014B0000010AAEB8000322101EB00106421B0FB88
:1014C000F1F000F0F00A04206168A0FB015003462F
:1014D0001920A9FB00712A463846FEF7D3FE642185
:1014E000B0FBF1F00AEB001A04206168A0FB017068
:1014F00003461920A9FB005001463A462846FEF74C
:10150000C1FE074604206168A0FB01500346192074
:10151000A9FB00B12A465846FEF7B4FE6421B0FB91
:10152000F1F000EBC00101EB0010A7EB80003221CD
:1015300001EB00106421B0FBF1F000F00F0050440B
:1015400021688860BDE8F88F001001400014014058
:101550002DE9F04104460D4617469846069E21E0C7
:10156000701CF8B12EB1FFF707F8A0EB0800B042ED
:1015700018D92068C06820F4D0702168C86020683D
:10158000406920F0010021684861202084F839007A
:1015900084F83A0000BF002084F8380000BF032020
:1015A000BDE8F081206800682840A84201D10120F0
:1015B00000E00020B842D3D00020F1E700BFFEE7F2
:1015C00002480068C0F30220704700000CED00E004
:1015D00010B5002804DB0A07130E054A135406E071
:1015E0000A07140E034A00F00F031B1FD45410BD4A
:1015F00000E400E018ED00E002E008C8121F08C196
:10160000002AFAD170477047002001E001C1121F83
:10161000002AFBD17047000008B508201649086071
:10162000C00516490860C00014491831086021E05F
:101630004FF0FF3000231A46022100901048006846
:1016400000F0D4FD0D481830006840F400500B49FC
:10165000183108604FF47A7000F020FC0748183009
:10166000006840F000500549183108604FF47A7066
:1016700000F014FCDCE7000030380240000C0240AF
:10168000080000201CB5FEF789FFFFF713FDFFF7E8
:10169000D3FCFFF7E5FC00F033FD1049086010486B
:1016A000072100238022CDE900100EA1114800F08F
:1016B00017FF04461048072100238022CDE90010BF
:1016C0000EA1134800F00CFF0546012D03D1012C9B
:1016D00001D100F037FE00BFFEE700000800002047
:1016E000040000205541525420436F6E74726F6C99
:1016F0006C6572005D1C000800000020204C454411
:1017000020436F6E74726F6C6C6572200000000075
:10171000191600082DE9F04105460E461C480768D9
:101720001C480068001D00F0BBFA50B91948006859
:1017300090F82C1001208840174909688143164809
:101740000160681C38B936B112480168091D134898
:1017500000F0F2FA1AE07C190E4800684460BC42BE
:1017600007D20C480168091D0D48006800F0CAFA4C
:101770000CE008480168091D0A48006800F0C2FA38
:1017800009480068844201D207480460BDE8F0813E
:10179000300000201C0000203400002098010020B0
:1017A00024000020200000204C00002010B504463A
:1017B00000F0CEFA23480068401C22490860224805
:1017C000006840B9204804600846006801280DD12F
:1017D00000F0DEF80AE01D48006838B91A480068D1
:1017E000C06AE16A884201D8174804601848006856
:1017F000401C1749086094F82C10012088401549B6
:101800000968084313490860E16A01EB8101124A43
:1018100002EB8100211D00F08FFA00F0C3FA0B48A3
:10182000006868B108480068C06AE16A884207D267
:101830004FF0805009490860BFF34F8FBFF36F8F9F
:1018400010BD00002C0000201C00002038000020EB
:101850004800002034000020BC00002004ED00E01F
:1018600030B54FF47053174800F007042CB1C01D79
:1018700020F00700134C041B1B1B0246124C226075
:101880000024114D6C60D018083820F007000F4C70
:10189000206000240D4D2D686C600C4D2D682C606F
:1018A0001146441A4C60094C24680C60084D4C6881
:1018B0002C60084D4C682C604FF00044064D2C60A5
:1018C00030BD0000AC010020580000206000002066
:1018D00068000020640000206C0000202DE9FF5FFC
:1018E00081460E469246DDE90E7B109CAAF101006E
:1018F000216B01EB800828F0070808F0070008B901
:10190000012000E0002050B900BF502080F3118872
:10191000BFF34F8FBFF36F8F00BF00BFFEE786B1ED
:10192000002507E0715D04F134004155705D00B998
:1019300002E06D1C102DF5D300BF0021432001559E
:1019400002E0002084F83400072F00D30627E76266
:1019500067640020A064201D00F0D1F904F1180094
:1019600000F0CDF92461C7F10700A0616462002096
:10197000E06484F8500049464046039A00F058F964
:101980002060BBF1000F01D0CBF80040BDE8FF9F05
:1019900010B5002407E004EB84010F4A02EB81003C
:1019A00000F0A0F9641C072CF5D30C4800F09AF95C
:1019B0000B4800F097F90B4800F094F90A4800F042
:1019C00091F90A4800F08EF9044809490860044872
:1019D0000849086010BD0000BC000020480100203C
:1019E0005C0100207001002084010020980100208B
:1019F000200000202400002010B50146164800E019
:101A0000006803688B42FBD30246436813448B4251
:101A100004D143684C682344436001460A464B683E
:101A200013440468A34211D10C4C03682468A342F8
:101A300008D04B680468646823444B6003681B68E3
:101A40000B6005E0054B1B680B6001E003680B6051
:101A5000884200D0016010BD5800002060000020C6
:101A60000A490968096809B9012100E0002121B18A
:101A70004FF0FF31064A116006E004490968C96861
:101A8000C868034A416811607047000020000020C8
:101A90004C0000200E480068401C08B9012000E0FE
:101AA000002050B900BF502080F31188BFF34F8F42
:101AB000BFF36F8F00BF00BFFEE700BF502080F371
:101AC0001188BFF34F8FBFF36F8F00BF00BFFEE7DA
:101AD0007000002010B50346002022B903EA01047B
:101AE00034B1012004E003EA01048C4200D101205A
:101AF00010BD00002DE9F04104464FF0000800F051
:101B000083FA4648006808B9FFF7AAFE444800680F
:101B1000204000286BD1D4B1083404F00700B0B1E4
:101B200004F00700C0F10800044404F0070008B9FD
:101B3000012000E0002050B900BF502080F3118840
:101B4000BFF34F8FBFF36F8F00BF00BFFEE7002CC6
:101B50004DD034480068844249D8334E3046056839
:101B600001E02E462D686868A04202D2286800284D
:101B7000F7D12A480068854239D0306800F108085A
:101B8000286830606868001B102819D92F1907F0E1
:101B9000070008B9012000E0002050B900BF502024
:101BA00080F31188BFF34F8FBFF36F8F00BF00BF6B
:101BB000FEE76868001B78606C603846FFF71CFF22
:101BC000184968680968081A1649086008460068D4
:101BD00016490968884203D2124800681349086010
:101BE0000F4968680968084368600020286000F0B1
:101BF0005DFD08F0070008B9012000E0002050B9A1
:101C000000BF502080F31188BFF34F8FBFF36F8F59
:101C100000BF00BFFEE74046BDE8F0816000002045
:101C20006C000020640000205800002068000020A4
:101C3000001F4FF080730360001F21F00103036059
:101C4000001F054B036014380260001F6FF0020391
:101C50000360203870470000951A000808B519E0A5
:101C60004FF0FF33012269460B48FFF773F99DF8E7
:101C70000000012805D102210848006800F04FFA51
:101C800007E09DF8000020B902210448006800F038
:101C900009FA00BFE4E700007C00002008000020F3
:101CA00001460A69D1E901309860D1E90103586021
:101CB0005068884201D1886850600020086110682F
:101CC000401E10601068704705490968886904491A
:101CD0000968C96AC1F10701014A12689161704738
:101CE0001C00002000F1080141604FF0FF318160CD
:101CF00000F10801C160016100210160704700210D
:101D00000161704710B502460B685C1C0CB9106984
:101D100007E002F1080000E04068446824689C4243
:101D2000FAD944684C604C68A160886041600A61DF
:101D30001468641C146010BD42684A6093688B602C
:101D4000936859609160086103685B1C0360704789
:101D500000BF502080F31188BFF34F8FBFF36F8F08
:101D600000BF0E480068401C0C4908600846006827
:101D7000012812D10A480068C0B208B9012000E069
:101D8000002050B900BF502080F31188BFF34F8F5F
:101D9000BFF36F8F00BF00BFFEE7704770000020E9
:101DA00004ED00E00D48006850B900BF502080F3FA
:101DB0001188BFF34F8FBFF36F8F00BF00BFFEE7E7
:101DC00006480068401E054908600846006820B9BA
:101DD000002080F3118800BF00BF70477000002012
:101DE00070B506463546002E3FD0083D2C461F49AB
:101DF00060680968084008B1012000E0002050B97F
:101E000000BF502080F31188BFF34F8FBFF36F8F57
:101E100000BF00BFFEE7206808B9012000E00020F5
:101E200050B900BF502080F31188BFF34F8FBFF32C
:101E30006F8F00BF00BFFEE70C496068096808406B
:101E400098B1206888B9094960680968884360606A
:101E500000F0DAF806496068096808440449086037
:101E60002046FFF7C9FD00F021FC70BD6C0000208A
:101E70006400002000204FF0E021086188610648DE
:101E800000684FF47A71B0FBF1F0401E4FF0E02192
:101E900048610720086170471800002070B50446AB
:101EA0000025D4B11248006808B9012000E00020E4
:101EB00050B900BF502080F31188BFF34F8FBFF39C
:101EC0006F8F00BF00BFFEE700F09EF800212046A4
:101ED000FFF720FC00F0EAFB05463DB94FF08050CB
:101EE00004490860BFF34F8FBFF36F8F70BD0000D0
:101EF0005400002004ED00E070B504460D4616467F
:101F000054B900BF502080F31188BFF34F8FBFF347
:101F10006F8F00BF00BFFEE71048006808B10120C6
:101F200000E0002050B900BF502080F31188BFF3BB
:101F30004F8FBFF36F8F00BF00BFFEE745F000403B
:101F40000749096888610648016818312046FFF78B
:101F5000F3FE01213046FFF7DDFB70BD5400002089
:101F60001C00002070B505460E462248006808B1E6
:101F7000012000E0002050B900BF502080F31188FC
:101F8000BFF34F8FBFF36F8F00BF00BFFEE746F078
:101F900000402860EC6854B900BF502080F31188DD
:101FA000BFF34F8FBFF36F8F00BF00BFFEE7284620
:101FB000FFF776FE201DFFF773FE94F82C1001202A
:101FC00088400D49096808430B490860E16A01EB44
:101FD00081010A4A02EB8100211DFFF7ADFE08498D
:101FE000E06A0968C96A884202D901200549086087
:101FF00070BD00005400002034000020BC00002010
:102000001C0000204000002002480068401C0149DC
:1020100008607047540000201D48006818B1012076
:102020001C49086032E000201A4908601A4800681C
:10203000B0FA80F0C0F11F0101EB8100174A52F89D
:10204000200008B1012000E0002050B900BF50205E
:1020500080F31188BFF34F8FBFF36F8F00BF00BFB6
:10206000FEE701EB81020D4B03EB820042685268F0
:10207000426000F108024368934202D1426852680C
:1020800042604268D268064B1A6000BF7047000089
:10209000540000204000002034000020BC0000203C
:1020A0001C0000202DE9F04105460E462C4655B98E
:1020B00000BF502080F31188BFF34F8FBFF36F8FA5
:1020C00000BF00BFFEE706F07F4008B9012000E036
:1020D000002050B900BF502080F31188BFF34F8F0C
:1020E000BFF36F8F00BF00BFFEE7FFF731FE276829
:1020F0002068B0432060FFF755FE3846BDE8F08108
:1021000010B51C20FFF7F6FC044634B10020206017
:10211000201DFFF7E7FD00202076204610BD2DE9A9
:10212000FE4F07468846002001903C46009057B974
:1021300000BF502080F31188BFF34F8FBFF36F8F24
:1021400000BF00BFFEE708F07F4008B9012000E0B3
:10215000002050B900BF502080F31188BFF34F8F8B
:10216000BFF36F8F00BF00BFFEE704F1040909F160
:1021700008000290FFF748FFD9F80C60206840EA99
:102180000800206026E0D6F804B0356800200090F2
:1021900005F07F4A25F07F450AF0806028B9206865
:1021A000284040B10120009005E020682840A84266
:1021B00001D101200090009858B10AF0807010B150
:1021C000019828430190206840F000713046FFF7E5
:1021D000C9FE5E4602988642D5D12068019988439F
:1021E000206000F063FA2068BDE8FE8F2DE9FF4F04
:1021F00083B081460D461746DDF840804C464FF0CF
:10220000000A00200190B9F1000F0AD100BF502050
:1022100080F31188BFF34F8FBFF36F8F00BF00BFF4
:10222000FEE705F07F4008B9012000E0002050B92A
:1022300000BF502080F31188BFF34F8FBFF36F8F23
:1022400000BF00BFFEE70DB1012000E0002050B943
:1022500000BF502080F31188BFF34F8FBFF36F8F03
:1022600000BF00BFFEE700F06DF910B9B8F1000F34
:1022700001D1012000E0002050B900BF502080F3C0
:102280001188BFF34F8FBFF36F8F00BF00BFFEE712
:10229000FFF7BAFE206800902946069A0098FFF7DB
:1022A00019FC0290029838B1009E4FF00008C7B1A7
:1022B0002068A843206014E0B8F1000F03D1009E0D
:1022C000012001900DE00FB14AF0807A069808B124
:1022D0004AF0806A45EA0A014246201DFFF70CFEDB
:1022E000002600F0E3F98346B8F1000F23D0BBF1DC
:1022F000000F07D14FF0805011490860BFF34F8F96
:10230000BFF36F8FFFF7E0FC064606F0007080B960
:10231000FFF71EFD266829463046069AFFF7DAFBCE
:1023200018B117B12068A843206001200190FFF781
:1023300039FD26F07F46304607B0BDE8F08F00003B
:1023400004ED00E01CB5524800685249884201D0B3
:10235000012000E0002050B900BF502080F3118818
:10236000BFF34F8FBFF36F8F00BF00BFFEE748483A
:1023700000684849491E884201D0012000E0002041
:1023800050B900BF502080F31188BFF34F8FBFF3C7
:102390006F8F00BF00BFFEE73F49084600780190FD
:1023A000FF200A4610700846007800909DF8000053
:1023B00000F0F0009DF80020904201D1012000E0E3
:1023C000002050B900BF502080F31188BFF34F8F19
:1023D000BFF36F8F00BF00BFFEE79DF8000000F065
:1023E00050002E4A107007202D4A106009E02C483A
:1023F0000068401E2A4A10609DF800004006000E4A
:1024000000909DF8000000F080008028EFD0244864
:102410000068C0F10700042801D1012000E000207D
:1024200050B900BF502080F31188BFF34F8FBFF326
:102430006F8F00BF00BFFEE7194800680002184A0E
:1024400010601046008800F4E0601060124A0198A5
:1024500010700F482030006840F470000C492031A3
:1024600008600846006840F070400860FFF702FD11
:1024700000200C490860FDF7B7FE0B48006840F0EB
:10248000404009490860FDF79BFE00201CBD00008C
:1024900000ED00E071C20F4100E400E07400002094
:1024A000780000207000002034EF00E010B500BF7D
:1024B000502080F31188BFF34F8FBFF36F8F00BFA1
:1024C00000F050F818B14FF080500449086000BF88
:1024D000002080F3118800BF10BD000004ED00E073
:1024E0002DE9FF4F85B0804689461746DDE912ABDE
:1024F000B800FFF7FFFA064656B15420FFF7FAFA84
:1025000004460CB1266304E03046FFF769FC00E0A6
:1025100000248CB1002084F85100CDE900ABCDE956
:1025200002403A4649464046089BFFF7D7F9204605
:10253000FFF73CF9012501E04FF0FF35284609B0CF
:10254000BDE8F08F0549096809B9012005E0044993
:10255000096809B9022000E0002070473800002017
:10256000540000202DE9F0414FF000084448006875
:10257000002877D143480068451C4248056015BBD8
:1025800041480068006808B9012000E0002050B907
:1025900000BF502080F31188BFF34F8FBFF36F8FC0
:1025A00000BF00BFFEE73848076838480068364972
:1025B00008603648076036480068401C34490860A7
:1025C000FFF74EFA00BF3348006885423CD300BF96
:1025D0002D480068006808B9012000E0002020B103
:1025E0004FF0FF302B4908602DE027480068C06895
:1025F000C4686668B54202D22648066023E0201D02
:10260000FFF74EFBA06A18B104F11800FFF748FB72
:1026100094F82C10012088401F49096808431E497E
:102620000860E16A01EB81011C4A02EB8100211D77
:10263000FFF782FB1A49E06A0968C96A8842C7D372
:102640004FF00108C4E700BF15480068C06A00EBFE
:102650008000124951F82000012801D94FF00108EB
:1026600005E0FFE70F480068401C0E4908600E486F
:10267000006808B14FF001084046BDE8F081000055
:102680005400002030000020200000202400002002
:10269000440000204C00002034000020BC0000203A
:1026A0001C0000203C0000204000002070B50024E9
:1026B00000263648006850B900BF502080F31188CA
:1026C000BFF34F8FBFF36F8F00BF00BFFEE7FFF771
:1026D0003FFB2E480068401E2C49086008460068F1
:1026E00000284FD12A48006800284BD024E0294810
:1026F000C068C46804F11800FFF7D2FA201DFFF784
:10270000CFFA94F82C100120884023490968084327
:1027100021490860E16A01EB8101204A02EB810056
:10272000211DFFF709FB1E49E06A0968C96A884252
:1027300002D301201B4908601648006808B901202F
:1027400000E000200028D2D00CB1FFF789F916482C
:10275000056865B100BFFFF705FF10B10120114901
:1027600008606D1E002DF6D100200F4908600D484D
:10277000006838B1012630070C490860BFF34F8F5D
:10278000BFF36F8FFFF70EFB304670BD5400002083
:102790002C0000207001002034000020BC0000202C
:1027A0001C000020400000203C00002004ED00E060
:1027B00000000000000000000102030406070809F1
:1027C0000000000001020304E827000800000020C8
:1027D0007C000000F8150008642800087C00002038
:1027E000344100000816000800000000000000004E
:1027F00000000000000000001000000001000000C8
:102800000024F400000000000000000000000000B0
:1028100000000000000000000000000000000000B8
:1028200000000000000000000000000000000000A8
:102830000000000000000000000000000000000098
:102840000000000000000000000000000000000088
:102850000000000000000000AAAAAAAA00000000D0
:042860000000000074
:040000050800018965
:00000001FF
