:020000040800F2
:1000000078040020A1010008630D0008F50C000829
:10001000610D0008AD020008050E00080000000098
:10002000000000000000000000000000670D000854
:100030006303000800000000650D0008690D00085A
:10004000BB010008BB010008BB010008BB010008A0
:10005000BB010008BB010008BB010008BB01000890
:10006000BB010008BB010008BB010008BB01000880
:10007000BB010008BB010008BB010008BB01000870
:10008000BB010008BB010008BB010008BB01000860
:10009000BB010008BB010008BB010008BB01000850
:1000A000BB010008BB010008BB010008BB01000840
:1000B000BB010008BB010008BB010008BB01000830
:1000C000BB010008BB010008BB010008BB01000820
:1000D000BB010008BB010008BB010008BB01000810
:1000E000BB010008BB010008BB010008BB01000800
:1000F000BB010008BB010008BB010008BB010008F0
:10010000BB010008BB010008BB010008BB010008DF
:10011000BB010008BB010008BB010008BB010008CF
:10012000B1020008BB010008BB010008BB010008C8
:10013000BB010008BB010008BB010008BB010008AF
:10014000BB010008BB010008BB010008BB0100089F
:10015000BB010008BB010008BB010008BB0100088F
:10016000BB010008BB010008BB010008BB0100087F
:10017000BB010008BB010008BB0100080000000033
:10018000BB010008BB010008DFF810D000F07CF8CC
:1001900000480047450E0008AFF3008078040020B7
:1001A0000648804706480047FEE7FEE7FEE7FEE711
:1001B000FEE7FEE7FEE7FEE7FEE7FEE7E90D0008E3
:1001C000890100082DE9F05F0546002092469B4614
:1001D00088460646814640241BE02846414647465D
:1001E000224600F041F853465A46C01A914110D3B6
:1001F00011461846224600F028F82D1A67EB010830
:100200004F4622460120002100F01FF817EB00099D
:100210004E41201EA4F10104DFDC484631462A4647
:100220004346BDE8F09FD2B201E000F8012B491E21
:10023000FBD270470022F6E710B513460A46044683
:100240001946FFF7F0FF204610BD202A04DB203AB4
:1002500000FA02F1002070479140C2F1200320FA19
:1002600003F3194390407047202A04DB203A21FA17
:1002700002F00021704721FA02F3D040C2F12002BF
:100280009140084319467047064C074D06E0E06868
:1002900040F0010394E8070098471034AC42F6D3CD
:1002A000FFF776FF940E0008B40E0008FEE700008A
:1002B000014800F057B8000014000020016818231E
:1002C000CAB2103AB2FBF3F2054B6FF30901032AED
:1002D0009B5CC36500D9091D816508467047000015
:1002E0007C0E000810B5014600208B698A6A4FF029
:1002F000C07453B1B3F5005F15D072B1012A0CD0B0
:10030000022A0AD0032A09D104E01AB1012A06D030
:10031000022A03D1C96AC90100D5012010BDC96AEA
:10032000A142FAD010BD002AF7D0012AF2D0022A49
:10033000F3D0032AF3D010BD704730B504682568A8
:1003400025F480252560046863608368402B03687A
:1003500003D099600068C26030BD9A600068C160D7
:1003600030BD70472DE9F84304464FF00009CDF841
:10037000009063484FF41651A56D0068B0FBF1F78B
:100380002E6894F85C10082000FA01F131420FD079
:1003900021680A6852070BD50A6822F004020A6035
:1003A00094F85C108840A860606D40F001006065C2
:1003B00094F85C104FF0010808FA01F0304208D0C0
:1003C00021684969090604D5A860606D40F0020003
:1003D000606594F85C1004208840304208D02168A1
:1003E0000968890704D5A860606D40F00400606565
:1003F00094F85C1010208840304218D021680968B9
:10040000090714D5A86020680168490304D500686D
:10041000000308D5A16C07E00168C90503D4016891
:1004200021F008010160216C09B12046884794F849
:100430005C1020208840304231D021680968C9060C
:100440002DD5A86094F8350005282068016806D0ED
:10045000490347D5006800031DD4616C1CE021F0FE
:10046000160101602068416921F080014161206C22
:1004700008B9A06C20B12068016821F00801016072
:1004800094F85C103F208840A86084F8349084F889
:100490003580216D1FE0E16B09B120468847606D12
:1004A00000282BD0606DC00714D0052084F83500DB
:1004B0002068016821F0010101600098401C009053
:1004C000B84203D820680068C007F6D184F8349099
:1004D00084F83580E16C002910D001B02046BDE8D9
:1004E000F04308470168C905D5D4016821F010011F
:1004F000016084F8349084F83580CCE7BDE8F88357
:10050000100000202DE9F041044600F0C5F8064631
:100510005CB1002584F83450022084F8350020684E
:10052000016821F0010101600DE00120BDE8F081CA
:1005300000F0B2F8801B052805D920206065032053
:1005400084F83500F2E720680068C007F0D122681F
:10055000116820480140D4E901031843D4E9033667
:100560003343184363691843A3691843E369184385
:10057000236A18430843616A042903D1D4E90B13A1
:1005800019430843106020684069666A20F007013B
:1005900030460E43012704280CD1A06A0643E06AC6
:1005A00040B12046FFF79EFE20B14020606584F8F0
:1005B0003570BAE7206846612046FFF77FFE94F861
:1005C0005C203F2191408160656584F83570002092
:1005D000ACE700003F8010F010B590F834400023E5
:1005E000012C0CD0012480F8344090F83540012CC7
:1005F00007D00123002180F83410184610BD0220D6
:1006000010BD0629F6D2DFE801F0030507090B0D3E
:10061000C263EFE70264EDE74264EBE78264E9E777
:10062000C264E7E70265E5E72DE9F0410446866D1F
:1006300090F83400002501280DD0012084F8340002
:1006400094F835700020012F07D084F8340002257B
:100650002846BDE8F0810220FBE7022784F83570C8
:1006600060652046FFF769FE94F85C103F208840E3
:10067000B0602068016841F016010160206C20B173
:100680002068016841F0080101602068016841F0BC
:1006900001010160DCE7000001488068704700004C
:1006A000040000200248816802781144816070478C
:1006B000040000200B4810B5016841F4007101608E
:1006C000016841F480610160016841F4807101605A
:1006D000032000F06FF8002000F006F800F024F886
:1006E000002010BD003C024070B50D4D04464FF493
:1006F0007A712878B1FBF0F00A490968B1FBF0F093
:1007000000F0E4FA48B9102C07D200222146501E0E
:1007100000F030F800206C6070BD012070BD00005A
:1007200004000020100000200A4808B5016841F4C8
:1007300080410160006800F4804000900548001F7F
:10074000016841F080510160006800F08050009025
:1007500008BD000044380240002809DB00F01F02F9
:10076000012191404009800000F1E020C0F8001113
:1007700070470000F0B40E4B1B680C46C3F3022315
:10078000C3F10705042D00D90425191D072901D23D
:10079000002300E0DB1E012606FA05F1491E214078
:1007A00099409E40761E16403143F0BC00F02BBBB2
:1007B0000CED00E0064900F0070208684FF6FF0361
:1007C000184040EA0220034A1043086070470000C6
:1007D0000CED00E00000FA052DE9F0470E4605009B
:1007E00065D0DFF81481D8F80000F7B200F00F00F0
:1007F000B04207D288F80070D8F8000000F00F006F
:10080000B04254D128683D4C810712D5400703D52A
:10081000206840F4E05020602878000703D5206865
:1008200040F4604020602068A96820F0F000084390
:1008300020602878C0072DD0304968680839012821
:1008400012D0022813D0032811D009688907002983
:100850002DDA216821F0030101432160FFF71CFF1D
:10086000814641F2883A0EE009688903EFE709689A
:100870008901ECE7FFF710FFA0EB0901514502D910
:100880000320BDE8F0872068696800F00C00B0EB39
:10089000810FEFD1D8F80010404601F00F01B142AE
:1008A00007D90770006800F00F00B04201D00120A6
:1008B000E7E72878400705D52068E96820F4E0508C
:1008C000084320602878000706D52068296920F4AD
:1008D000604040EAC100206000F018F82168084A32
:1008E000C1F30311515CC84006490860064800681E
:1008F000FFF7FAFE0020C4E7003C0240083802403F
:10090000840E00081000002008000020154810B5D3
:10091000006810F00C02144813D01449042A0FD0B8
:10092000082A0ED10F4C241F2268236802F03F02D0
:100930005B0207D52068C0F38810A0FB010106E028
:10094000084610BD2168C1F38811A1FB00010023F6
:10095000FFF738FC2168C1F30141491C4900B0FB95
:10096000F1F010BD083802400024F40040787D0109
:100970002DE9F84F04006ED02078DFF83C93C007D3
:10098000A9F104054AD009F104000168C1F381010D
:10099000012908D00068C0F3810002280AD1D9F8E3
:1009A0000000400206D52868800337D5606800281B
:1009B000E1D033E06068B0F5803F10D0B0F5A02FF3
:1009C000286810D020F480302860286820F4802027
:1009D00028606068A8B1FFF75FFE06460DE0286852
:1009E00040F48030F4E740F480202860F7E700BF4F
:1009F000FFF752FE801B642873D828688003F7D560
:100A00000CE0FFF749FE064605E000BFFFF744FE95
:100A1000801B6428F0D828688003F7D42078DFF89A
:100A20009C8280074FF0000A3ED5A348001D016854
:100A300011F00C0F08D00068C0F3810002280BD120
:100A4000D9F80000400207D42868800716D5E0686E
:100A5000012800D112E02BE1E068B8B10120C8F80C
:100A60000000FFF719FE064605E000BFFFF714FE81
:100A7000801B0228C0D828688007F7D5286821691C
:100A800020F0F80040EAC10028600DE0C8F800A09E
:100A9000FFF702FE064604E0FFF7FEFD801B02287A
:100AA0001FD828688007F7D42078000722D5824E07
:100AB00083486169703671B101210160FFF7ECFD77
:100AC000074604E0FFF7E8FDC01B022809D830689C
:100AD0008007F7D50EE0C0F800A0FFF7DDFD074660
:100AE00005E082E0FFF7D8FDC01B02287DD8306802
:100AF0008007F7D42078400768D5DFF8BCB100271D
:100B00000BF13C0BDBF80000C0000BD4DBF800104D
:100B100041F08051CBF80010DBF80000012700F015
:100B200080500090674E3068C00510D4306840F4A3
:100B300080703060FFF7B0FD009005E0FFF7ACFD7E
:100B40000099401A022850D83068C005F6D55A4E90
:100B5000A0686C3601280FD00528306810D020F02E
:100B600001003060306820F004003060A068B8B147
:100B7000FFF792FD00900FE0306840F00100F4E7CD
:100B800040F004003060F7E7FFF786FD0099411A56
:100B900041F28830814266D830688007F4D50EE093
:100BA000FFF77AFD009007E0FFF776FD0099411A04
:100BB00041F28830814256D830688007F4D42FB192
:100BC000DBF8001021F08051CBF80010A069C8B309
:100BD0003949091D0968C1F3810102294AD0022857
:100BE000504607D0C8F8600000E03CE0FFF754FD35
:100BF00004463BE04746C8F86000FFF74DFD064657
:100C000005E000BFFFF748FD801B02282BD82868AD
:100C10008001F7D4D4E907010843A16A2A4A4908A8
:100C200002EB0141626A41EA8211084394F82C10F8
:100C300040EA0161C9F8001001203866FFF72CFD79
:100C4000044606E036E000BFFFF726FD001B022841
:100C500009D828688001F7D52CE000BFFFF71CFDFC
:100C6000001B022802D90320BDE8F88F2868800104
:100C7000F4D41FE00128F7D0D9F80000E26900F4AD
:100C80008001914214D1226A00F03F0191420FD1BC
:100C900047F6C071626A0140914209D1A26A00F42C
:100CA0004031914204D1E16A00F07060884201D085
:100CB0000120D9E70020D7E704380240000047426E
:100CC000800E4742007000400000FFFF10B5401E3C
:100CD000B0F1807F01D3012010BD4FF0E0246061AE
:100CE0000F21601700F08FF80020A061072020611D
:100CF000002010BDFEE70000164808B5026800217C
:100D000042F4800202600068134A00F48000009000
:100D10001248C0E900218022C0E902215201C0E945
:100D200004129200C0E906210422C0E9081203223D
:100D3000C0E90A210163FFF7E5FB08B172B6FEE7DF
:100D4000002211463820FFF715FDBDE80840382085
:100D5000FFF702BD3038024010640240140000204A
:100D6000FEE7FEE770477047FFF79CBC10B592B0F6
:100D700030216846FFF75EFA14210CA8FFF75AFAF3
:100D800017480024016841F080510160006800F0BC
:100D9000805011901348016841F48041016000685F
:100DA000069400F4804011900220009001200390EE
:100DB000102004906846FFF7DBFD08B172B6FEE72D
:100DC0000F20CDE90C040E940F9400210CA8109470
:100DD000FFF702FD002801D072B6FEE712B010BD89
:100DE00040380240007000400548016841F470013D
:100DF000016003494FF000608039086070470000CF
:100E000088ED00E0FEE70907090E002804DB00F189
:100E1000E02080F80014704700F00F0000F1E0209F
:100E200080F8141D704702E008C8121F08C1002A8C
:100E3000FAD170477047002001E001C1121F002A5B
:100E4000FBD17047FFF736FCFFF790FFFFF754FF29
:100E5000064A00210648FFF7BFFB064C0123224645
:100E600005490348FFF7E0FBF8E7000039030008F5
:100E70001400002000C00120000000200006101611
:100E8000000610160000000000000000010203042C
:100E900006070809B40E0008000000201400000036
:100EA000260E0008C80E000814000020640400008C
:100EB000360E0008214365B7010000001000000055
:080EC000000000000024F40012
:040000050800018965
:00000001FF
