:020000040800F2
:1000000060440020710200085D1100086D100008B6
:1000100059110008B90300087D160008000000000F
:10002000000000000000000000000000B101000816
:10003000BD030008000000000D0200086111000867
:100040008B0200088B0200088B0200088B0200085C
:100050008B0200088B0200088B0200088B0200084C
:100060008B0200088B0200088B0200088B0200083C
:100070008B0200088B0200088B0200088B0200082C
:100080008B0200088B0200088B02000800000000B1
:100090000000000000000000000000008B020008CB
:1000A0008B0200088B0200088B0200088B020008FC
:1000B0008B0200088B0200088B0200088B020008EC
:1000C0008B0200088B0200088B0200088B020008DC
:1000D0008B0200088B0200088B0200080000000061
:1000E0008B0200088B0200088B0200080000000051
:1000F0000000000000000000000000008B0200086B
:10010000000000008B0200088B0200088B02000830
:1001100000000000000000000000000000000000DF
:100120008B0200088B0200088B0200088B0200087B
:100130008B0200080000000000000000000000002A
:100140000000000000000000000000008B0200081A
:100150008B0200088B0200088B0200088B0200084B
:100160008B0200088B020008000000000000000065
:10017000000000000000000000000000000000007F
:10018000000000008B0200080000000000000000DA
:100190008B0200088B020008DFF810D000F0FAF89C
:1001A0000048004761180008AFF300806044002059
:1001B0002C4B19680868B0E8F04F80F30988BFF34A
:1001C0006F8F4FF0000080F311887047000000002F
:1001D00008480068006880F308884FF0000080F34A
:1001E000148862B661B6BFF34F8FBFF36F8F00DF25
:1001F00000BF00BF08ED00E0DFF80C00016841F42B
:1002000070010160704700BF88ED00E0EFF30980E6
:10021000BFF36F8F134B1A681EF0100F08BF20ED4D
:10022000108A20E9F04F106009B44FF0500080F3BD
:100230001188BFF34F8FBFF36F8F01F0E3FF4FF0D3
:10024000000080F3118809BC19680868B0E8F04F15
:100250001EF0100F08BFB0EC108A80F30988BFF3BE
:100260006F8F704718000020EFF305807047000083
:100270000648804706480047FEE7FEE7FEE7FEE740
:10028000FEE7FEE7FEE7FEE7FEE7FEE70D120008E9
:10029000990100082DE9F05F0546002092469B4633
:1002A00088460646814640241BE02846414647468C
:1002B000224600F05EF853465A46C01A914110D3C8
:1002C00011461846224600F045F82D1A67EB010842
:1002D0004F4622460120002100F03CF817EB0009B0
:1002E0004E41201EA4F10104DFDC484631462A4677
:1002F0004346BDE8F09FD2B201E000F8012B491E51
:10030000FBD270470022F6E710B513460A460446B2
:100310001946FFF7F0FF204610BD421C10F8011BE4
:100320000029FBD1801A704730B50B4601460020EA
:100330002022012409E021FA02F59D4205D303FAA7
:1003400002F5491B04FA02F52844151EA2F1010228
:10035000F1DC30BD202A04DB203A00FA02F1002053
:1003600070479140C2F1200320FA03F319439040F3
:100370007047202A04DB203A21FA02F0002170475E
:1003800021FA02F3D040C2F12002914008431946FD
:1003900070470000064C074D06E0E06840F001039E
:1003A00094E8070098471034AC42F6D3FFF7F8FE04
:1003B000D0270008F027000800BFFEE7704772B69C
:1003C00000BFFEE7F8B503460A46002500240020DA
:1003D0000021CDE0012606FA01F5166806EA0504BB
:1003E000AC4273D15668012E08D05668022E05D053
:1003F0005668112E02D05668122E13D198684F00FD
:100400000326BE40B0434F00D668BE4030439860DC
:10041000586801268E40B0431679C6F300168E4008
:1004200030435860D8684F000326BE40B0434F00A9
:100430009668BE403043D8605668022E02D0566897
:10044000122E13D1CF0803F1200656F827004E07CD
:10045000F70E0F26BE40B0434F07FF0E1669BE4091
:100460003043CF0803F1200646F8270018684F00F4
:100470000326BE40B043167906F003064F00BE4087
:1004800030431860566806F08056B6F1805F6ED132
:1004900000BF00260096384E366846F48046364F38
:1004A0003E603E46366806F48046009600BF00BFB8
:1004B000324E8F0856F827008E07370F0F26BE40A2
:1004C000B0432F4EB34202D1002615E04FE02D4E2F
:1004D000B34201D101260FE02B4EB34201D10226D7
:1004E0000AE02A4EB34201D1032605E0284EB3426A
:1004F00001D1042600E007268F073F0FBE4030439E
:100500001E4E8F0846F82700224E3068A0435668DA
:1005100006F48036B6F5803F00D120431D4E306092
:10052000361D3068A043566806F40036B6F5003F25
:1005300000D12043174E361D3060361D3068A04371
:10054000566806F48016B6F5801F00D12043114E80
:1005500008363060361D3068A043566806F4001631
:10056000B6F5001F00D120430A4E0C363060491CFE
:100570001029FFF42FAFF8BD44380240083801407D
:10058000000002400004024000080240000C02404B
:1005900000100240003C014042690A408A4202D1F8
:1005A0000A04826100E0816170470AB1816101E063
:1005B0000B04836170470000014800687047000029
:1005C00008000020034800680349097808440149ED
:1005D00008607047080000201000002010B50D488A
:1005E000006840F400700B4908600846006840F459
:1005F000806008600846006840F48070086003204E
:1006000000F098F80F2000F007F800F02BF8002019
:1006100010BD0000003C024070B504460E48007852
:100620004FF47A71B1FBF0F00C490968B1FBF0F5B9
:10063000284600F017FC08B1012070BD102C07D22D
:1006400000222146501E00F037F80548046001E002
:100650000120F2E70020F0E7100000201400002045
:100660000C00002008B500BF002000901148006871
:1006700040F480400F4908600846006800F480405C
:10068000009000BF00BF00BF00200090081F00685E
:1006900040F08050091F08600846006800F0805054
:1006A000009000BF00BF00220F21901E00F004F850
:1006B00008BD0000443802402DE9F05F80460D4639
:1006C0001646002700F0F0FF074639462A46334613
:1006D00001F00700C0F1070ABAF1040F02D94FF088
:1006E000040A01E0C0F1070AD14600F1040ABAF198
:1006F000070F02D24FF0000A01E0A0F1030AD4462E
:100700004FF0010A0AFA09FAAAF1010A0AEA020AF2
:100710000AFA0CFA4FF0010B0BFA0CFBABF1010BD0
:100720000BEA030B4AEA0B042146404600F0C4FFE3
:10073000BDE8F09F00BF00F00702064B19684FF6B6
:10074000FF031940044B0B4343EA0221014B19609C
:1007500000BF70470CED00E00000FA0570B50446DC
:100760000D460CB9012070BD5848006800F00F001C
:10077000A84209D255490D700846006800F00F00E4
:10078000A84201D00120EEE7207800F00200022804
:100790001DD1207800F00400042805D14C480068E1
:1007A00040F4E0504A490860207800F0080008282A
:1007B00005D14748006840F4604045490860444816
:1007C000006820F0F000A1680843414908602078E3
:1007D00000F00100A8B36068012807D13C48083840
:1007E0000068C0F34040B8B90120BCE76068022847
:1007F00002D06068032807D1354808380068C0F384
:10080000406048B90120AEE7314808380068C0F3BD
:10081000400008B90120A6E72D48006820F0030039
:10082000616808432A490860FFF7C6FE064609E0EA
:10083000FFF7C2FE801B41F28831884202D90320B3
:1008400091E707E02248006800F00C006168B0EB17
:10085000810FEDD11D48006800F00F00A84209D9B2
:100860001A490D700846006800F00F00A84201D038
:10087000012078E7207800F00400042807D114480C
:10088000006820F4E050E1680843114908602078CE
:1008900000F00800082808D10D48006820F46040E6
:1008A000216940EAC1000A49086000F03FF80849A0
:1008B0000968C1F30311074A515CC8400649086042
:1008C00006480068FFF7A8FE00204CE7003C024005
:1008D00008380240B8270008140000200C0000204F
:1008E00001480068704700001400002000B5FFF7C1
:1008F000F7FF04490968C1F38221034A515CC840EB
:1009000000BD000008380240C827000800B5FFF706
:10091000E7FF04490968C1F34231034A515CC8400A
:1009200000BD000008380240C82700082DE9F04744
:10093000002400250026A1462548006800F00C0090
:1009400020B1042805D008283AD105E0DFF88490CA
:1009500039E0DFF8849036E01D48001F006800F0A1
:100960003F041B48001F006800F4800078B11A485B
:100970001749091F0968C1F38811A0FB01700146DE
:10098000224600233846FFF785FC05460EE0114855
:100990000F49091F0968C1F38811A0FB01700146C6
:1009A000224600233846FFF775FC05460848001F1D
:1009B0000068C0F30140401C4600B5FBF6F902E0B8
:1009C000DFF8109000BF00BF4846BDE8F087000088
:1009D000083802400024F40000127A00F8B50446FA
:1009E0000CB90120F8BD207800F00100002874D077
:1009F000F948006800F00C0004280DD0F6480068A3
:100A000000F00C00082813D1F348001F006800F420
:100A10008000B0F5800F0BD1EF4808380068C0F3B4
:100A20004040002859D06068002856D10120D9E7FD
:100A300000BF6068B0F5803F08D1E748083800681B
:100A400040F48030E449083908601EE06068B0F581
:100A5000A02F0DD1E0480838006840F48020DE491E
:100A6000083908600846006840F4803008600CE0EF
:100A7000D9480838006820F48030D7490839086020
:100A80000846006820F48020086000BF606890B1CC
:100A9000FFF792FD054606E0FFF78EFD401B642838
:100AA00001D903209EE7CC4808380068C0F34040D5
:100AB0000028F1D011E0FFF77FFD054606E0FFF7C3
:100AC0007BFD401B642801D903208BE7C24808380E
:100AD0000068C0F340400028F1D1207800F0020007
:100AE00002285FD1BC48006800F00C0058B1BA4839
:100AF000006800F00C0008281CD1B748001F0068EF
:100B000000F48000B0B9B44808380068C0F3400071
:100B100020B1E068012801D0012063E7AE48083821
:100B2000006820F0F800216940EAC100AA490839AC
:100B3000086037E0E06800B30120A8490860FFF7CB
:100B40003BFD054606E0FFF737FD401B022801D9B3
:100B5000032047E7A04808380068C0F34000002899
:100B6000F1D09D480838006820F0F800216940EA7B
:100B7000C10099490839086014E0002097490860CD
:100B8000FFF71AFD054606E0FFF716FD401B022899
:100B900001D9032026E7904808380068C0F34000D8
:100BA0000028F1D1207800F0080008282CD16069D5
:100BB000A8B101208A490860FFF7FEFC054606E05F
:100BC000FFF7FAFC401B022801D903200AE78248FC
:100BD0006C300068C0F340000028F1D014E0002021
:100BE0007F490860FFF7E8FC054606E0FFF7E4FCF4
:100BF000401B022801D90320F4E677486C300068D6
:100C0000C0F340000028F1D1207800F0040004284F
:100C100070D1002770483830006800F0805090B9DB
:100C200000BF002000906C483830006840F08050D1
:100C30006949383108600846006800F0805000902B
:100C400000BF00BF01276748006800F48070B0B99A
:100C50006448006840F4807062490860FFF7ACFCAB
:100C6000054606E0FFF7A8FC401B022801D9032037
:100C7000B8E65C48006800F480700028F2D000BF3D
:100C8000A068012808D154486830006840F001008D
:100C90005149683108601DE0A06805280DD14E4813
:100CA0006830006840F004004B496831086008462D
:100CB000006840F0010008600CE0474868300068B8
:100CC00020F001004449683108600846006820F0BF
:100CD0000400086000BFA068A8B1FFF76DFC0546DE
:100CE00009E0FFF769FC401B41F28831884202D9D4
:100CF000032077E626E0384868300068C0F34000FB
:100D00000028EED013E0FFF757FC054608E0FFF798
:100D100053FC401B41F28831884201D9032061E62F
:100D20002D4868300068C0F340000028EFD1012F43
:100D300007D129483830006820F0805026493831E2
:100D4000086000BFA069002845D02348006800F073
:100D50000C0008285DD0A069022845D100201F4959
:100D60000866FFF729FC054606E0FFF725FC401B57
:100D7000022801D9032035E6174808380068C0F377
:100D800040600028F1D1D4E907010843616A40EAD4
:100D900081110122A06AC2EB500041EA00412C20DF
:100DA000005D41EA00600C49091F086001200B4901
:100DB0000866FFF701FC054606E0FFF7FDFB401B58
:100DC000022801D903200DE6034808380068C0F363
:100DD00040600028F1D03FE0083802400000474260
:100DE000800E47420070004000201C490866FFF753
:100DF000E3FB054606E0FFF7DFFB401B022801D9B5
:100E00000320EFE516480068C0F340600028F2D1E7
:100E100022E0A069012800D1E4E51148001D066820
:100E200006F48001E069814214D106F03F01206A96
:100E300081420FD147F6C0703040616A884209D1C3
:100E400006F44031A06A814204D106F07061E06A84
:100E5000814201D00120C5E50020C3E500004742E2
:100E60000038024070B504462546681EB0F1807F08
:100E700001D301200FE0681E4FF0E02148610F21EF
:100E80004FF0FF3000F018FC00204FF0E0218861A7
:100E900007200861002070BD10B504460CB9012080
:100EA00010BDA06900B100E000BF94F8390028B976
:100EB000002084F83800204600F028F8242084F828
:100EC00039002068C06820F400502168C8602046BE
:100ED00000F0AAF92068006920F4904021680861B8
:100EE0002068406920F02A00216848612068C068B5
:100EF00040F400502168C8600020E063202084F89E
:100F0000390084F83A000020CAE7000010B586B026
:100F10000446142101A8FFF7F5F91B49206888420F
:100F200030D100BF002000901848006840F0100049
:100F3000164908600846006800F01000009000BFE5
:100F400000BF00BF0020009010481438006840F037
:100F500001000E49143908600846006800F00100DD
:100F6000009000BF00BF4FF4C060019002200290CB
:100F700000200390032004900720059001A9044855
:100F8000FFF720FA06B010BD0010014044380240BF
:100F9000000002402DE9F84304460D4616461F4660
:100FA0004FF0000994F8390020285DD105B116B939
:100FB0000120BDE8F88300BF94F83800012801D172
:100FC0000220F6E7012084F8380000BF0020E0632B
:100FD000212084F83900FFF7EFFA8146A684E684E1
:100FE00000BF002084F8380000BF2BE0E08C401EDA
:100FF000E084A068B0F5805F16D14B4600228021C6
:101000002046009700F004FB08B10320D1E7A84672
:10101000B8F80000C0F3080021684860206908B9EA
:10102000AD1C0FE06D1C0DE04B46002280212046D8
:10103000009700F0EDFA08B10320BAE715F8010BAC
:1010400021684860E08C0028D0D14B460022402126
:101050002046009700F0DCFA08B10320A9E7202021
:1010600084F839000020A4E70220A2E700BFFEE7D1
:1010700000B587B0142102A8FFF744F900BF002093
:1010800001902348006840F00400214908600846A8
:10109000006800F00400019000BF00BF00BF002006
:1010A00001900846006840F00100086008460068AA
:1010B00000F00100019000BF00BF00222021154870
:1010C000FFF773FA4FF4005002901348039000208A
:1010D000049002A91148FFF775F90C200290022034
:1010E000039000200490032005900720069002A999
:1010F0000848FFF767F920200290012003900020A4
:101100000490059002A90348FFF75CF907B000BD01
:101110003038024000000240000021100008024068
:1011200010B50B480B4908604FF416504860002179
:1011300008488160C16001610C2141610021816129
:10114000C161FFF7A9FE08B1FFF739F910BD000032
:1011500000100140DC00002000BFFEE700BFFEE7FA
:1011600010B5FFF72FFA01F0F1F9012801D001F0D5
:1011700043F910BD00B593B0302107A8FFF7C2F8BE
:10118000142102A8FFF7BEF800BF002001901D48FF
:10119000006840F080501B4908600846006800F075
:1011A0008050019000BF00BF00BF00200190164892
:1011B000006840F44040144908600846006800F4A4
:1011C0004040019000BF00BF0220079001200A901C
:1011D00010200B9000200D9007A8FFF7FFFB08B12F
:1011E000FFF7EDF80F200290002003900490059087
:1011F0000690002102A8FFF7B1FA08B1FFF7DFF867
:1012000013B000BD4038024000700040054800683F
:1012100040F47000034908604FF0006001498039D4
:101220000860704788ED00E02DE9F84F044620681B
:10123000006920F44050E168084321680861216991
:10124000A068084361690843E16908430090206889
:10125000C06849F20C618843009908432168C8605E
:101260002068406920F44070A16908432168486102
:10127000E069B0F5004F75D1E3492068884203D09A
:10128000E249206888426FD1FFF740FB8146022087
:101290006168A0FB01510B461920A9FB00712A4689
:1012A0003846FEF7F7FF6421B0FBF1F04FEA001A71
:1012B00002206168A0FB01510B461920A9FB0071B7
:1012C0002A463846FEF7E6FF074602206168A0FB83
:1012D00001510B461920A9FB00B12A465846FEF7DA
:1012E000D9FF6421B0FBF1F000EBC00101EB00106D
:1012F000A7EB8000322101EBC0006421B0FBF1F0CC
:1013000000F0F8000AEB400A02206168A0FB0151DE
:101310000B461920A9FB00712A463846FEF7BAFF92
:10132000074602206168A0FB01510B461920A9FB6A
:1013300000B12A465846FEF7ADFF6421B0FBF1F03C
:1013400000EBC00101EB0010A7EB8000322101EBA4
:10135000C0006421B0FBF1F000F0070050442168A8
:1013600088604FE16EE0FFE7FFF7C0FA8146022098
:101370006168A0FB01510B461920A9FB00712A46A8
:101380003846FEF787FF6421B0FBF1F04FEA001A00
:1013900002206168A0FB01510B461920A9FB0071D6
:1013A0002A463846FEF776FF074602206168A0FB12
:1013B00001510B461920A9FB00B12A465846FEF7F9
:1013C00069FF6421B0FBF1F000EBC00101EB0010FC
:1013D000A7EB8000322101EBC0006421B0FBF1F0EB
:1013E00000F0F8000AEB400A02206168A0FB0151FE
:1013F0000B461920A9FB00712A463846FEF74AFF22
:10140000074602206168A0FB015003461920A9FB92
:1014100000B12A465846FEF73DFF6421B0FBF1F0CB
:1014200000EBC00101EB0010A7EB8000322101EBC3
:10143000C0006421B0FBF1F000F0070050442168C7
:101440008860DFE070492068884203D06F492068D7
:1014500088426BD1FFF75AFA814604206168A0FBED
:1014600001510B461920A9FB00712A463846FEF7A8
:1014700011FF824604206168A0FB01510B46192030
:10148000A9FB00712A463846FEF704FF6421B0FB31
:10149000F1F000EBC00101EB0010AAEB800032215B
:1014A00001EB00106421B0FBF1F000F0F00A042021
:1014B0006168A0FB015003461920A9FB00712A4670
:1014C0003846FEF7E7FE6421B0FBF1F00AEB001AA4
:1014D00004206168A0FB01510B461920A9FB007193
:1014E0002A463846FEF7D6FE074604206168A0FB70
:1014F000015003461920A9FB00B12A465846FEF7C1
:10150000C9FE6421B0FBF1F000EBC00101EB00105B
:10151000A7EB8000322101EB00106421B0FBF1F059
:1015200000F00F005044216888606BE0FFF7DEF99F
:10153000814604206168A0FB015003461920A9FBE5
:1015400000712A463846FEF7A5FE824604206168EF
:10155000A0FB015003461920A9FB00712A4638461A
:10156000FEF798FE6421B0FBF1F000EBC00101EB47
:101570000010AAEB8000322101EB00106421B0FBC7
:10158000F1F000F0F00A04206168A0FB015003466E
:101590001920A9FB00712A463846FEF77BFE64211C
:1015A000B0FBF1F00AEB001A04206168A0FB0170A7
:1015B00003461920A9FB005001463A462846FEF78B
:1015C00069FE074604206168A0FB0150034619200C
:1015D000A9FB00B12A465846FEF75CFE6421B0FB29
:1015E000F1F000EBC00101EB0010A7EB800032210D
:1015F00001EB00106421B0FBF1F000F00F0050444B
:1016000021688860BDE8F88F001001400014014097
:101610002DE9F04104460D4617469846069E21E006
:10162000701CF8B12EB1FEF7C7FFA0EB0800B04266
:1016300018D92068C06820F4D0702168C86020687C
:10164000406920F0010021684861202084F83900B9
:1016500084F83A0000BF002084F8380000BF03205F
:10166000BDE8F081206800682840A84201D101202F
:1016700000E00020B842D3D00020F1E700BFFEE731
:101680000FB4084B10B504A902AA039800F038F86B
:10169000044602A9002000F0DDF8204610BC5DF8E9
:1016A00014FB00005518000802480068C0F302202F
:1016B000704700000CED00E010B5002804DB0A07BD
:1016C000130E054A135406E00A07140E034A00F0ED
:1016D0000F031B1FD45410BD00E400E018ED00E020
:1016E00002E008C8121F08C1002AFAD170477047EB
:1016F000002001E001C1121F002AFBD17047000049
:101700002DE9FF4F89B09B460446002506E02528B9
:101710000BD05A460B999047641C6D1C207800280A
:10172000F5D10DB02846BDE8F08F0027B84601225C
:10173000474900E0074314F8013F203B02FA03F059
:101740000842F7D120782E2819D114F8010F47F05C
:1017500004072A280ED06FF02F022078A0F1300164
:1017600009290CD808EB880102EB410100EB0108C4
:10177000641CF2E70A98641C50F8048B0A902078E5
:101780000028CED0642808D0692806D075281ED03D
:101790005A460B9990476D1C58E00A994FF00A0978
:1017A00001C90A91002802DA40422D2102E03905E0
:1017B00004D52B218DF82010012103E0F90704D076
:1017C0002021F7E78A4608AE0DE00021FAE70A99E2
:1017D0004FF00A0901C90A91F7E74946FEF7A4FD4F
:1017E000303106F8011D0028F7D1ADEB060000F1FD
:1017F0002009780701D44FF00108C84502DDA8EBA5
:10180000090000E000208046002706E008A85A46AC
:10181000C05D0B9990476D1C7F1C5745F6DB04E0BB
:1018200030205A460B9990476D1CB8F10001A8F181
:101830000108F5DC05E016F8010B5A460B999047B4
:101840006D1CB9F10001A9F10109F4DC641C65E724
:10185000092801000A68531C0B60107070470000D3
:101860001CB5FEF7BBFEFFF785FCFFF701FCFFF799
:1018700057FC0020072103468022CDE9001004A177
:10188000054800F0D3FD00F05DFC00BFFEE700005E
:101890005461736B31000000891E00082DE9F0418E
:1018A00005460E461C4807681C480068001D00F0ED
:1018B00017FB50B91948006890F82C100120884097
:1018C00017490968814316480160681C38B936B168
:1018D00012480168091D134800F054FB1AE07C19F6
:1018E0000E4800684460BC4207D20C480168091DDC
:1018F0000D48006800F02CFB0CE008480168091D49
:101900000A48006800F024FB09480068844201D2BC
:1019100007480460BDE8F0812C000020180000207A
:10192000300000204C040020200000201C0000207B
:101930004800002010B5044600F030FB2348006842
:10194000401C224908602248006840B920480460D1
:101950000846006801280DD100F040F90AE01D4852
:10196000006838B91A480068C06AE16A884201D83C
:101970001748046018480068401C1749086094F82C
:101980002C10012088401549096808431349086054
:10199000E16A01EB8101124A02EB8100211D00F096
:1019A000F1FA00F025FB0B48006868B108480068B0
:1019B000C06AE16A884207D24FF080500949086046
:1019C000BFF34F8FBFF36F8F10BD000028000020C2
:1019D00018000020340000204400002030000020C7
:1019E0007003002004ED00E010B516E000F0D6FA18
:1019F0000C48C068C468201D00F072FA0A480068EC
:101A0000401E0949086009480068401E07490860EF
:101A100000F0EEFA204600F00BF8044800680028B9
:101A2000E4D110BD3804002028000020240000204C
:101A300010B5044694F8510030B9206B00F0F6FA66
:101A4000204600F0F3FA1AE094F85100012803D17F
:101A5000204600F0EBFA12E094F85100022801D180
:101A6000012000E0002050B900BF502080F3118811
:101A7000BFF34F8FBFF36F8F00BF00BFFEE710BDF6
:101A800030B54FF47053174800F007042CB1C01D57
:101A900020F00700134C041B1B1B0246124C226053
:101AA0000024114D6C60D018083820F007000F4C4E
:101AB000206000240D4D2D686C600C4D2D682C604D
:101AC0001146441A4C60094C24680C60084D4C685F
:101AD0002C60084D4C682C604FF00044064D2C6083
:101AE00030BD000060040020540000205C00002095
:101AF00064000020600000206800002000BFFFF7A5
:101B000073FF07480068012807D94FF08050054946
:101B10000860BFF34F8FBFF36F8F00F001FAEEE75D
:101B20007003002004ED00E02DE9FF5F81460E46C2
:101B30009246DDE90E7B109CAAF10100216B01EBBE
:101B4000800828F0070808F0070008B9012000E025
:101B5000002050B900BF502080F31188BFF34F8F91
:101B6000BFF36F8F00BF00BFFEE786B1002507E01F
:101B7000715D04F134004155705D00B902E06D1CE7
:101B8000102DF5D300BF00214320015502E00020B5
:101B900084F83400072F00D30627E762676400202B
:101BA000A064201D00F0D1F904F1180000F0CDF977
:101BB0002461C7F10700A06164620020E06484F83A
:101BC000500049464046039A00F048F92060BBF1B6
:101BD000000F01D0CBF80040BDE8FF9F10B50024F6
:101BE00007E004EB84010F4A02EB810000F0A0F94A
:101BF000641C072CF5D30C4800F09AF90B4800F050
:101C000097F90B4800F094F90A4800F091F90A4856
:101C100000F08EF904480949086004480849086042
:101C200010BD000070030020FC0300201004002001
:101C300024040020380400204C0400201C00002054
:101C40002000002010B50146164800E00068036837
:101C50008B42FBD30246436813448B4204D1436852
:101C60004C682344436001460A464B6813440468A9
:101C7000A34211D10C4C03682468A34208D04B68DE
:101C80000468646823444B6003681B680B6005E0CC
:101C9000054B1B680B6001E003680B60884200D0B5
:101CA000016010BD540000205C0000200A49096852
:101CB000096809B9012100E0002121B14FF0FF318D
:101CC000064A116006E004490968C968C868034A01
:101CD00041681160704700001C000020480000208F
:101CE0000E480068401C08B9012000E0002050B9EF
:101CF00000BF502080F31188BFF34F8FBFF36F8F69
:101D000000BF00BFFEE700BF502080F31188BFF383
:101D10004F8FBFF36F8F00BF00BFFEE76C00002046
:101D20002DE9F04104464FF0000800F063FA464800
:101D3000006808B9FFF7A4FE444800682040002866
:101D40006BD1D4B1083404F00700B0B104F007003F
:101D5000C0F10800044404F0070008B9012000E0C5
:101D6000002050B900BF502080F31188BFF34F8F7F
:101D7000BFF36F8F00BF00BFFEE7002C4DD034488B
:101D80000068844249D8334E3046056801E02E464B
:101D90002D686868A04202D228680028F7D12A4836
:101DA0000068854239D0306800F108082868306042
:101DB0006868001B102819D92F1907F0070008B907
:101DC000012000E0002050B900BF502080F31188AE
:101DD000BFF34F8FBFF36F8F00BF00BFFEE7686890
:101DE000001B78606C603846FFF72CFF1849686864
:101DF0000968081A16490860084600681649096803
:101E0000884203D212480068134908600F49686885
:101E10000968084368600020286000F04BFC08F067
:101E2000070008B9012000E0002050B900BF502091
:101E300080F31188BFF34F8FBFF36F8F00BF00BFD8
:101E4000FEE74046BDE8F0815C000020680000200D
:101E5000600000205400002064000020001F4FF0AC
:101E600080730360001F21F001030360001F054B16
:101E7000036014380260001F6FF002030360203813
:101E800070470000E11C000819E020210C48FEF713
:101E900083FB642000F028F90A480BA102680E4871
:101EA000FFF7EEFB0C48FEF738FA84B264232246B3
:101EB00009490A48FFF76EF8002002490860E4E784
:101EC0000000024000000020436F756E74657220B0
:101ED000203D2025640D0A0078000020DC00002051
:101EE00001460A69D1E901309860D1E901035860DF
:101EF0005068884201D188685060002008611068ED
:101F0000401E106010687047034B0360034B0B606A
:101F100080231360704700001C0100207001002026
:101F200002480068401C014908607047000000201A
:101F300000F1080141604FF0FF31816000F10801BC
:101F4000C16001610021016070470021016170479B
:101F500010B502460B685C1C0CB9106907E002F171
:101F6000080000E04068446824689C42FAD944684C
:101F70004C604C68A160886041600A611468641C10
:101F8000146010BD42684A6093688B609368596022
:101F90009160086103685B1C0360704700BF5020BC
:101FA00080F31188BFF34F8FBFF36F8F00BF0E48D0
:101FB0000068401C0C49086008460068012812D1DE
:101FC0000A480068C0B208B9012000E0002050B9FA
:101FD00000BF502080F31188BFF34F8FBFF36F8F86
:101FE00000BF00BFFEE770476C00002004ED00E07A
:101FF0000D48006850B900BF502080F31188BFF32E
:102000004F8FBFF36F8F00BF00BFFEE70648006829
:10201000401E054908600846006820B9002080F38A
:10202000118800BF00BF70476C00002070B50646E5
:102030003546002E3FD0083D2C461F496068096890
:10204000084008B1012000E0002050B900BF502036
:1020500080F31188BFF34F8FBFF36F8F00BF00BFB6
:10206000FEE7206808B9012000E0002050B900BF59
:10207000502080F31188BFF34F8FBFF36F8F00BFE5
:1020800000BFFEE70C4960680968084098B1206805
:1020900088B90949606809688843606000F0AAF857
:1020A0000649606809680844044908602046FFF74B
:1020B000C9FD00F0FFFA70BD68000020600000203C
:1020C00000204FF0E02108618861064800684FF465
:1020D0007A71B0FBF1F0401E4FF0E021486107201B
:1020E000086170471400002070B504460025D4B183
:1020F0001248006808B9012000E0002050B900BF74
:10210000502080F31188BFF34F8FBFF36F8F00BF54
:1021100000BFFEE700F06EF800212046FFF7BEFB8F
:1021200000F0C8FA05463DB94FF0805004490860F8
:10213000BFF34F8FBFF36F8F70BD000050000020C2
:1021400004ED00E010B586B000200590049003AACD
:1021500004A905A8FFF7D8FE0022DDE90410134604
:10216000CDE9002102901CA11D48039A00F090F9CE
:102170001C4908600846006808B1012400E00024FA
:10218000012C15D100BF502080F31188BFF34F8F71
:10219000BFF36F8F00BF4FF0FF301349086001207D
:1021A0001249086000201249086000F071F810E040
:1021B000601C08B1012000E0002050B900BF502091
:1021C00080F31188BFF34F8FBFF36F8F00BF00BF45
:1021D000FEE706B010BD000049444C450000000079
:1021E000FD1A00084C0000204800002034000020A8
:1021F0002C00002002480068401C0149086070471C
:10220000500000201D48006818B101201C490860DA
:1022100032E000201A4908601A480068B0FA80F0DD
:10222000C0F11F0101EB8100174A52F8200008B1EC
:10223000012000E0002050B900BF502080F3118839
:10224000BFF34F8FBFF36F8F00BF00BFFEE701EBFF
:1022500081020D4B03EB820042685268426000F13C
:1022600008024368934202D1426852684260426861
:10227000D268064B1A6000BF704700005000002073
:102280003C000020300000207003002018000020D7
:102290001CB5524800685249884201D0012000E034
:1022A000002050B900BF502080F31188BFF34F8F3A
:1022B000BFF36F8F00BF00BFFEE748480068484982
:1022C000491E884201D0012000E0002050B900BF23
:1022D000502080F31188BFF34F8FBFF36F8F00BF83
:1022E00000BFFEE73F49084600780190FF200A46FC
:1022F00010700846007800909DF8000000F0F00093
:102300009DF80020904201D1012000E0002050B94A
:1023100000BF502080F31188BFF34F8FBFF36F8F42
:1023200000BF00BFFEE79DF8000000F050002E4AFD
:10233000107007202D4A106009E02C480068401EEC
:102340002A4A10609DF800004006000E00909DF89B
:10235000000000F080008028EFD024480068C0F121
:102360000700042801D1012000E0002050B900BF7F
:10237000502080F31188BFF34F8FBFF36F8F00BFE2
:1023800000BFFEE7194800680002184A10601046B6
:10239000008800F4E0601060124A019810700F4845
:1023A0002030006840F470000C4920310860084675
:1023B000006840F070400860FFF782FE00200C4982
:1023C0000860FDF719FF0B48006840F040400949DC
:1023D0000860FDF7FDFE00201CBD000000ED00E0E0
:1023E00071C20F4100E400E0700000207400002082
:1023F0006C00002034EF00E010B500BF502080F3E7
:102400001188BFF34F8FBFF36F8F00BF00F0AEF89E
:1024100018B14FF080500449086000BF002080F3DD
:10242000118800BF10BD000004ED00E02DE9FF4F52
:1024300085B0804689461746DDE912ABB800FFF744
:102440006FFC064656B15420FFF76AFC04460CB1F7
:10245000266304E03046FFF7E9FD00E000248CB17C
:10246000002084F85100CDE900ABCDE902403A46A6
:1024700049464046089BFFF757FB2046FFF75AFAAC
:10248000012501E04FF0FF35284609B0BDE8F08F87
:102490002DE9F04F85B00746884691469A46DDE91A
:1024A0000EB6109C0EB1012000E0002050B900BF14
:1024B000502080F31188BFF34F8FBFF36F8F00BFA1
:1024C00000BFFEE70CB1012000E0002050B900BFC2
:1024D000502080F31188BFF34F8FBFF36F8F00BF81
:1024E00000BFFEE7542003900398542801D1012037
:1024F00000E0002050B900BF502080F31188BFF3E6
:102500004F8FBFF36F8F00BF00BFFEE700BFB4B1B6
:10251000AEB125462C462E63022085F851000020DE
:1025200004A953464A46CDE900B1CDE902504146DF
:102530003846FFF7F9FA2846FFF7FCF901E00020DA
:102540000490049805B0BDE8F08F000005490968C3
:1025500009B9012005E00449096809B9022000E031
:102560000020704734000020500000202DE9F04189
:102570004FF0000844480068002877D143480068BD
:10258000451C4248056015BB41480068006808B911
:10259000012000E0002050B900BF502080F31188D6
:1025A000BFF34F8FBFF36F8F00BF00BFFEE7384808
:1025B000076838480068364908603648076036487A
:1025C0000068401C34490860FFF770FB00BF3348C7
:1025D000006885423CD300BF2D480068006808B9F8
:1025E000012000E0002020B14FF0FF302B490860AF
:1025F0002DE027480068C068C4686668B54202D20A
:102600002648066023E0201DFFF76AFCA06A18B187
:1026100004F11800FFF764FC94F82C1001208840A6
:102620001F49096808431E490860E16A01EB8101FE
:102630001C4A02EB8100211DFFF7A4FC1A49E06A45
:102640000968C96A8842C7D34FF00108C4E700BFD0
:1026500015480068C06A00EB8000124951F820005C
:10266000012801D94FF0010805E0FFE70F48006895
:10267000401C0E4908600E48006808B14FF0010880
:102680004046BDE8F0810000500000202C000020F2
:102690001C000020200000204000002048000020F6
:1026A00030000020700300201800002038000020B7
:1026B0003C00002070B5002400263648006850B960
:1026C00000BF502080F31188BFF34F8FBFF36F8F8F
:1026D00000BF00BFFEE7FFF761FC2E480068401E08
:1026E0002C4908600846006800284FD12A48006835
:1026F00000284BD024E02948C068C46804F11800C1
:10270000FFF7EEFB201DFFF7EBFB94F82C100120E8
:10271000884023490968084321490860E16A01EBC0
:102720008101204A02EB8100211DFFF72BFC1E498D
:10273000E06A0968C96A884202D301201B4908601F
:102740001648006808B9012000E000200028D2D017
:102750000CB1FFF7ABFA1648056865B100BFFFF78B
:1027600005FF10B10120114908606D1E002DF6D142
:1027700000200F4908600D48006838B10126300775
:102780000C490860BFF34F8FBFF36F8FFFF730FC2A
:10279000304670BD50000020280000202404002096
:1027A0003000002070030020180000203C000020B2
:1027B0003800002004ED00E00000000000000000F0
:1027C00001020304060708090000000001020304D7
:1027D000F02700080000002078000000E016000844
:1027E0006828000878000020E8430000F016000880
:1027F00000000000050000000000000010000000C4
:10280000010000000024F4000000000000000000AF
:1028100000000000000000000000000000000000B8
:1028200000000000000000000000000000000000A8
:102830000000000000000000000000000000000098
:102840000000000000000000000000000000000088
:10285000000000000000000000000000AAAAAAAAD0
:08286000000000000000000070
:040000050800019955
:00000001FF
