:020000040800F2
:10000000B843002061020008BD090008B9090008D2
:10001000BB0900086D030008710A00080000000019
:10002000000000000000000000000000A101000826
:100030006F03000800000000FD010008BF09000870
:100040007B0200087B0200087B0200087B0200089C
:100050007B0200087B0200087B0200087B0200088C
:100060007B0200087B0200087B0200087B0200087C
:100070007B0200087B0200087B0200087B0200086C
:100080007B0200087B0200087B0200087B0200085C
:100090007B0200087B0200087B0200087B0200084C
:1000A0007B0200087B0200087B0200087B0200083C
:1000B0007B0200087B0200087B0200087B0200082C
:1000C0007B0200087B0200087B0200087B0200081C
:1000D0007B0200087B0200087B0200087B0200080C
:1000E0007B0200087B0200087B0200087B020008FC
:1000F0007B0200087B0200087B0200087B020008EC
:100100007B0200087B0200087B0200087B020008DB
:100110007B0200087B0200087B0200087B020008CB
:100120007B0200087B0200087B0200087B020008BB
:100130007B0200087B0200087B0200087B020008AB
:100140007B0200087B0200087B0200087B0200089B
:100150007B0200087B0200087B0200087B0200088B
:100160007B0200087B0200087B0200087B0200087B
:100170007B0200087B0200087B02000800000000F0
:100180007B0200087B020008DFF810D000F0DCF8EA
:1001900000480047B10A0008AFF30080B8430020D0
:1001A0002C4B19680868B0E8F04F80F30988BFF35A
:1001B0006F8F4FF0000080F311887047000000003F
:1001C00008480068006880F308884FF0000080F35A
:1001D000148862B661B6BFF34F8FBFF36F8F00DF35
:1001E00000BF00BF08ED00E0DFF80C00016841F43B
:1001F00070010160704700BF88ED00E0EFF30980F7
:10020000BFF36F8F134B1A681EF0100F08BF20ED5D
:10021000108A20E9F04F106009B44FF0500080F3CD
:100220001188BFF34F8FBFF36F8F00F0E5FF4FF0E2
:10023000000080F3118809BC19680868B0E8F04F25
:100240001EF0100F08BFB0EC108A80F30988BFF3CE
:100250006F8F704710000020EFF30580704700009B
:100260000648804706480047FEE7FEE7FEE7FEE750
:10027000FEE7FEE7FEE7FEE7FEE7FEE7550A0008B9
:10028000890100082DE9F05F0546002092469B4653
:1002900088460646814640241BE02846414647469C
:1002A000224600F041F853465A46C01A914110D3F5
:1002B00011461846224600F028F82D1A67EB01086F
:1002C0004F4622460120002100F01FF817EB0009DD
:1002D0004E41201EA4F10104DFDC484631462A4687
:1002E0004346BDE8F09FD2B201E000F8012B491E61
:1002F000FBD270470022F6E710B513460A460446C3
:100300001946FFF7F0FF204610BD202A04DB203AF3
:1003100000FA02F1002070479140C2F1200320FA58
:1003200003F3194390407047202A04DB203A21FA56
:1003300002F00021704721FA02F3D040C2F12002FE
:100340009140084319467047064C074D06E0E068A7
:1003500040F0010394E8070098471034AC42F6D30C
:10036000FFF716FFDC150008FC150008FEE77047D4
:100370000148806870470000000000200248816842
:100380000278114481607047000000200B4810B5CE
:10039000016841F400710160016841F4806101600D
:1003A000016841F480710160032000F065F80F20BE
:1003B00000F006F800F024F8002010BD003C0240D8
:1003C00070B50D4D04464FF47A712878B1FBF0F00A
:1003D0000A490968B1FBF0F000F0DAFA48B9102CCC
:1003E00007D200222146501E00F026F800206C6043
:1003F00070BD012070BD0000000000200C00002036
:100400000C4882B0016841F480410160006800F44A
:10041000804000900748001F016841F08051016052
:100420000068002200F0805000900F21901E02B062
:1004300000F002B844380240F0B40E4B1B680C4682
:10044000C3F30223C3F10705042D00D90425191DA8
:10045000072901D2002300E0DB1E012606FA05F180
:10046000491E214099409E40761E16403143F0BC03
:1004700000F0FFBA0CED00E0064900F00702086842
:100480004FF6FF03184040EA0220034A1043086079
:10049000704700000CED00E00000FA052DE9F04780
:1004A0000E46050065D0DFF81481D8F80000F7B2D9
:1004B00000F00F00B04207D288F80070D8F80000B2
:1004C00000F00F00B04254D128683D4C810712D58E
:1004D000400703D5206840F4E050206028780007EA
:1004E00003D5206840F4604020602068A96820F0AF
:1004F000F000084320602878C0072DD03049686894
:100500000839012812D0022813D0032811D0096815
:10051000890700292DDA216821F0030101432160B8
:10052000FFF726FF814641F2883A0EE00968890309
:10053000EFE709688901ECE7FFF71AFFA0EB090173
:10054000514502D90320BDE8F0872068696800F0B2
:100550000C00B0EB810FEFD1D8F80010404601F04D
:100560000F01B14207D90770006800F00F00B042D8
:1005700001D00120E7E72878400705D52068E96821
:1005800020F4E050084320602878000706D5206852
:10059000296920F4604040EAC100206000F018F8AA
:1005A0002168084AC1F30311515CC840064908603C
:1005B00006480068FFF704FF0020C4E7003C024043
:1005C00008380240CC1500080C0000200400002070
:1005D000154810B5006810F00C02144813D01449E7
:1005E000042A0FD0082A0ED10F4C241F226823683A
:1005F00002F03F025B0207D52068C0F38810A0FB21
:10060000010106E0084610BD2168C1F38811A1FB75
:1006100000010023FFF736FE2168C1F30141491CA8
:100620004900B0FBF1F010BD083802400024F4008E
:1006300040787D012DE9F84F04006ED02078DFF876
:100640003C93C007A9F104054AD009F104000168F0
:10065000C1F38101012908D00068C0F3810002289C
:100660000AD1D9F80000400206D52868800337D5A2
:1006700060680028E1D033E06068B0F5803F10D0BA
:10068000B0F5A02F286810D020F4803028602868AA
:1006900020F4802028606068A8B1FFF769FE064654
:1006A0000DE0286840F48030F4E740F480202860B2
:1006B000F7E700BFFFF75CFE801B642873D828684B
:1006C0008003F7D50CE0FFF753FE064605E000BFB8
:1006D000FFF74EFE801B6428F0D828688003F7D40B
:1006E0002078DFF89C8280074FF0000A3ED5A348AF
:1006F000001D016811F00C0F08D00068C0F38100E4
:1007000002280BD1D9F80000400207D428688007DE
:1007100016D5E068012800D112E02BE1E068B8B1FD
:100720000120C8F80000FFF723FE064605E000BFE1
:10073000FFF71EFE801B0228C0D828688007F7D567
:100740002868216920F0F80040EAC10028600DE027
:10075000C8F800A0FFF70CFE064604E0FFF708FE0D
:10076000801B02281FD828688007F7D4207800074C
:1007700022D5824E83486169703671B101210160D2
:10078000FFF7F6FD074604E0FFF7F2FDC01B022865
:1007900009D830688007F7D50EE0C0F800A0FFF751
:1007A000E7FD074605E082E0FFF7E2FDC01B0228F7
:1007B0007DD830688007F7D42078400768D5DFF807
:1007C000BCB100270BF13C0BDBF80000C0000BD4E0
:1007D000DBF8001041F08051CBF80010DBF800008E
:1007E000012700F080500090674E3068C00510D49B
:1007F000306840F480703060FFF7BAFD009005E08B
:10080000FFF7B6FD0099401A022850D83068C0059D
:10081000F6D55A4EA0686C3601280FD005283068EE
:1008200010D020F001003060306820F0040030600B
:10083000A068B8B1FFF79CFD00900FE0306840F071
:100840000100F4E740F004003060F7E7FFF790FDA7
:100850000099411A41F28830814266D83068800799
:10086000F4D50EE0FFF784FD009007E0FFF780FD70
:100870000099411A41F28830814256D83068800789
:10088000F4D42FB1DBF8001021F08051CBF8001028
:10089000A069C8B33949091D0968C1F3810102295A
:1008A0004AD00228504607D0C8F8600000E03CE07B
:1008B000FFF75EFD04463BE04746C8F86000FFF7DF
:1008C00057FD064605E000BFFFF752FD801B0228DA
:1008D0002BD828688001F7D4D4E907010843A16A1E
:1008E0002A4A490802EB0141626A41EA821108433F
:1008F00094F82C1040EA0161C9F800100120386614
:10090000FFF736FD044606E036E000BFFFF730FD96
:10091000001B022809D828688001F7D52CE000BF09
:10092000FFF726FD001B022802D90320BDE8F88F3F
:1009300028688001F4D41FE00128F7D0D9F800001E
:10094000E26900F48001914214D1226A00F03F0173
:1009500091420FD147F6C071626A0140914209D1BC
:10096000A26A00F44031914204D1E16A00F0706063
:10097000884201D00120D9E70020D7E7043802409F
:1009800000004742800E4742007000400000FFFF19
:1009900010B5401EB0F1807F01D3012010BD4FF093
:1009A000E02460610F21601700F063F80020A0616F
:1009B00007202061002010BDFEE7FEE7FEE710B52E
:1009C000FFF7DCFC00F02EFD012803D0BDE810404D
:1009D00000F0BABC10BD000010B592B030216846DE
:1009E000FFF788FC14210CA8FFF784FC17480024AB
:1009F000016841F080510160006800F08050119062
:100A00001348016841F4804101600068069400F4D5
:100A1000804011900220009001200390102004904B
:100A20006846FFF707FE08B172B6FEE70F20CDE972
:100A30000C040E940F9400210CA81094FFF72EFDC7
:100A4000002801D072B6FEE712B010BD4038024057
:100A5000007000400548016841F4700101600349DD
:100A60004FF00060803908607047000088ED00E0BA
:100A7000FEE70907090E002804DB00F1E02080F8FA
:100A80000014704700F00F0000F1E02080F8141D02
:100A9000704702E008C8121F08C1002AFAD1704747
:100AA0007047002001E001C1121F002AFBD17047EE
:100AB0001FB5FFF76BFCFFF78FFF0E49082008609A
:100AC0000D494FF0A060086002A80524CDE9004060
:100AD0000023802209A10B4800F04CFC03A8CDE9BB
:100AE00000400023802208A1094800F043FC00F0E8
:100AF00045FBFEE730380240000C02405461736B46
:100B00005F310000650F00085461736B5F320000B5
:100B1000890F00082DE9F041184C0F46054666691B
:100B20002068001D00F040FA38B9206890F82C10B9
:100B300001208840A1698143A161681C07D137B1B8
:100B40002168BDE8F0410E48091D00F071BA206827
:100B50003544B5424560216805D2A068BDE8F04142
:100B6000091D00F04DBA6068091D00F049FA206BBC
:100B7000854200D22563BDE8F0810000100000200E
:100B8000A00300202DE9F041054600F05DFA2E4C4F
:100B90002069401C206120682C4F10B1E06940B3EF
:100BA0002DE025602069012829D1002606EB86006A
:100BB00007EB800000F016FA761C072EF6D32348C8
:100BC0008C3000F00FFA2148A03000F00BFA1F48DB
:100BD000B43000F007FA1D48C83000F003FA1B4893
:100BE000DC3000F0FFF919488C3060601430A060F0
:100BF00005E02068E96AC06A884200D82560E06A9A
:100C0000401CE062E96A0120A26988401043A061AB
:100C100001EB810007EB8000291D00F009FA00F0CC
:100C200033FAE06900280CD02068E96AC06A88427B
:100C300007D207494FF080500860BFF34F8FBFF3D2
:100C40006F8FBDE8F081000010000020C40200207A
:100C500004ED00E010B5044690F8510058B10128A9
:100C60000CD002280FD0502080F31188BFF34F8F93
:100C7000BFF36F8FFEE7206B00F01AFA2046BDE845
:100C8000104000F015BA10BD10484FF470514207E3
:100C900006D0C01D0D4920F00700411AC1F5705162
:100CA0000B4A00230144C2E900030839103A21F03D
:100CB000070111604B600B600B1AC0E900139360D1
:100CC0004FF000405360D06070470000B403002034
:100CD0005C000020144E154CA6F1C8074FF0805858
:100CE000DFF84C9012E000BF00F0AEF9F068C56884
:100CF000281D00F059F92069401E2061E068401E5F
:100D0000E06000F0C1F92846FFF7A4FFE068002882
:100D1000EAD138680128F9D9C9F80080BFF34F8FAC
:100D2000BFF36F8FF2E700008C030020100000205B
:100D300004ED00E02DE9F0479A46DDE9098481469B
:100D40006FF00303206B03EB82021044089E20F037
:100D50000707780707D0502080F31188BFF34F8F23
:100D6000BFF36F8FFEE7002561B1002023180A5CF6
:100D700083F834200A5C12B1401C1028F6D384F8A2
:100D8000435001E084F83450072E00D30626E66273
:100D9000C4E91165201D00F030F904F1180000F0DD
:100DA0002CF92461C6F107006462A061E56484F84F
:100DB000505052464946384600F0BEF82060B8F11F
:100DC000000F01D0C8F80040BDE8F08730B51149E8
:100DD00000E011460A688242FBD34B685C188442EB
:100DE00003D1406818444860084643681C18944280
:100DF00009D1084C103C2468A24209D052681A4418
:100E000042600A6812680260814200D0086030BD0A
:100E10000460F9E75C00002006484168096829B1D0
:100E20004168C968C9684968016370474FF0FF317C
:100E3000FAE700001000002008484068401C4FF00E
:100E4000500080F3118804D0BFF34F8FBFF36F8F32
:100E5000FEE7BFF34F8FBFF36F8FFEE76400002004
:100E60002DE9F0410546002700F0BEF9314E30680B
:100E700008B9FFF709FFF06805424BD1C5B3083543
:100E800068070ED005F00700C0F1080005446807A8
:100E900007D0502080F31188BFF34F8FBFF36F8FBF
:100EA000FEE72DB37068854234D8224810300146E1
:100EB0000C6801E020460C466168A94202D2216814
:100EC0000029F7D131688C4224D00768216801607D
:100ED00060680837411B10290FD96019420708D0F4
:100EE000502080F31188BFF34F8FBFF36F8FFEE761
:100EF00010E041606560FFF769FF61687068401A43
:100F00007060B268904200D2B060F0680143002087
:100F1000C4E9000100F0F8FA780707D0502080F308
:100F20001188BFF34F8FBFF36F8FFEE73846BDE8E0
:100F3000F08100004C00002010B5031F4FF08074BA
:100F40001C601B1F21F001011960191F044B0B606D
:100F500014390A60091F6FF0020244380A6010BD9C
:100F6000390E0008074C4FF47A75206840F4805021
:100F70002060284600F0DCF8206840F080502060B7
:100F8000F3E70000180C0240064C206840F40050C3
:100F90002060C82000F0CCF8206840F000502060AD
:100FA000F3E70000180C0240D0E9013201699A60B1
:100FB000D0E901235A604A68824201D182684A60BE
:100FC000002202610868401E08600868704700003F
:100FD000034B036003F154000860802010607047E9
:100FE0007000002000F108014FF0FF32C0E901124B
:100FF000C1600161002101607047002101617047FB
:1010000030B50B685A1C02D000F1080202E00269F8
:1010100004E02246546825689D42FAD953684B6023
:1010200099608A60516008610168491C016030BDA7
:1010300042684A6093688B60936859609160086168
:101040000168491C01607047502080F31188BFF38C
:101050004F8FBFF36F8F0A494868401C48600128D2
:101060000CD10848006810F0FF0F07D0502080F323
:101070001188BFF34F8FBFF36F8FFEE770470000FB
:101080006400002004ED00E00849486828B1401ED3
:10109000486001D180F311887047502080F3118897
:1010A000BFF34F8FBFF36F8FFEE700006400002097
:1010B00070B5002827D0144DA0F108046168E868D5
:1010C000014207D1502080F31188BFF34F8FBFF347
:1010D0006F8FFEE722683AB1502080F31188BFF38A
:1010E0004F8FBFF36F8FFEE78143616000F07CF8A4
:1010F00060686968084468602046FFF767FEBDE8DD
:10110000704000F001BA70BD4C0000204FF0E020AC
:1011100000210161816105494FF47A720968B1FBD0
:10112000F2F1491E41610721016170470C00002066
:1011300010B5020014D00F48806B38B1502080F3F6
:101140001188BFF34F8FBFF36F8FFEE700F04CF8AD
:1011500000211046FFF7DEFC00F0D6F9002807D189
:1011600005494FF080500860BFF34F8FBFF36F8F7A
:1011700010BD00001000002004ED00E010B586B0A6
:101180000024039405AA04A903A80494FFF720FFF0
:10119000DDE903010094CDE9011000230EA1104800
:1011A000059A00F014F90F490028486311D0502027
:1011B00080F31188BFF34F8FBFF36F8F4FF0FF3075
:1011C00008630120C8614C6106B0BDE8104000F022
:1011D00041B806B010BD000049444C450000000075
:1011E000D50C0008100000200248816B491C816367
:1011F00070470000100000201448816B11B10121DC
:1012000041627047002141628169B1FA81F1C1F107
:101210001F0101EB81020E4951F822306BB101EB45
:10122000820101F108034A6852684A609A4201D17A
:1012300052684A60D16801607047502080F311887D
:10124000BFF34F8FBFF36F8FFEE700001000002049
:10125000C40200201CB537480168374A914207D1C3
:10126000502080F31188BFF34F8FBFF36F8FFEE7DD
:1012700000683149491E884207D1502080F3118807
:10128000BFF34F8FBFF36F8FFEE72C4908780190B3
:10129000FF20087008788DF800009DF800009DF888
:1012A000002000F0F000904207D0502080F3118819
:1012B000BFF34F8FBFF36F8FFEE79DF80000204B09
:1012C00000F0500018700720986005E09DF800209D
:1012D00052008DF80020401E9DF800201206F5D423
:1012E0009860032807D0502080F31188BFF34F8FF8
:1012F000BFF36F8FFEE74FF440709860019808705D
:101300000C482030016841F470010160016841F02F
:1013100070410160FFF7FAFE00205860FEF764FF9D
:101320000848016841F040410160FEF749FF002094
:101330001CBD000000ED00E071C20F4100E400E0C0
:101340006400002034EF00E010B5502080F31188D5
:10135000BFF34F8FBFF36F8F00F072F818B10449DD
:101360004FF080500860002080F3118810BD00000D
:1013700004ED00E02DE9FF5F8346DDE90E87994625
:1013800016468A469000FFF76BFD05001CD05420DE
:10139000FFF766FD040014D00020256384F8510097
:1013A000CDE90240CDE900874B46324651465846CA
:1013B000FFF7C0FC2046FFF7E5FB012004B0BDE8C5
:1013C000F09F2846FFF774FE4FF0FF30F6E7F0B5C8
:1013D00085B0DDE90B640A9DA6B1DCB15427009706
:1013E0002663022684F85160002604AFCDE9024648
:1013F000CDE90057FFF79EFC2046FFF7C3FB04989A
:1014000005B0F0BD502080F31188BFF34F8FBFF3BC
:101410006F8FFEE7502080F31188BFF34F8FBFF32B
:101420006F8FFEE70548C16919B1806B18B10020C4
:101430007047012070470220704700001000002014
:101440002DE9F0412E4C0027A06B40B1206A401CD2
:101450002062606A00B101273846BDE8F081666904
:10146000761C666113D16068006838B1502080F343
:101470001188BFF34F8FBFF36F8FFEE76068A168DD
:101480006160A060A06A401CA062FFF7C5FC206BF1
:10149000DFF87080864209D36068006880B16068B8
:1014A000C068C568686886420DD220632068C06A3B
:1014B00000EB800158F821000128CAD90127C8E7AC
:1014C0004FF0FF30F1E7281DFFF76EFDA86A18B155
:1014D00005F11800FFF768FDE86A0121A269814063
:1014E0001143A16100EB800108EB8100291DFFF78A
:1014F0009FFDE86A2168C96A8842CDD30127CBE7FE
:1015000010000020C40200202DE9F0472C4D0024DB
:101510002746A86B38B1FFF797FDA86B401EA8635C
:10152000A86B40B146E0502080F31188BFF34F8F85
:10153000BFF36F8FFEE72969224E0120D1B3A6F1D8
:10154000B40980463068E8B1F068C46804F1180056
:10155000FFF72AFD201DFFF727FDE06AAA6908FAB8
:1015600000F11143A96100EB800109EB8100211D0D
:10157000FFF75EFDE06A2968C96A8842E2D3C5F8D0
:101580002480DFE70CB1FFF747FC2C6A44B14646E4
:10159000FFF756FF00B16E62641EF9D10020286289
:1015A000686A38B10849012738070860BFF34F8FD0
:1015B000BFF36F8FFFF768FD3846BDE8F087000086
:1015C000100000207803002004ED00E0000000007F
:1015D000000000000102030406070809FC150008CA
:1015E0000000002070000000920A00086C1600083D
:1015F0007000002048430000A20A0008010000001B
:1016000010000000000000000024F40000000000B2
:1016100000000000000000000000000000000000CA
:1016200000000000000000000000000000000000BA
:1016300000000000000000000000000000000000AA
:10164000000000000000000000000000000000009A
:10165000000000000000000000000000000000008A
:0C16600000000000AAAAAAAA00000000D6
:040000050800018965
:00000001FF
