:020000040800F2
:10000000B8410020610200085D150008F5140008E1
:1000100059150008350800087D1A00080000000086
:10002000000000000000000000000000A101000826
:100030003908000800000000FD01000861150008F3
:100040007B0200087B0200087B0200087B0200089C
:100050007B0200087B0200087B0200087B0200088C
:100060007B0200087B0200087B0200087B0200087C
:100070007B0200087B0200087B0200087B0200086C
:100080007B0200087B0200087B0200087B0200085C
:100090007B0200087B0200087B0200087B0200084C
:1000A0007B0200087B0200087B0200087B0200083C
:1000B0007B0200087B0200087B0200087B0200082C
:1000C0007B0200087B0200087B0200087B0200081C
:1000D0007B0200087B0200087B0200087B0200080C
:1000E0007B0200087B0200087B0200087B020008FC
:1000F0007B0200087B0200087B0200087B020008EC
:100100007B0200087B0200087B0200087B020008DB
:100110007B0200087B0200087B0200087B020008CB
:100120007B0200087B0200087B0200087B020008BB
:100130007B0200087B0200087B0200087B020008AB
:100140007B0200087B0200087B0200087B0200089B
:100150007B0200087B0200087B0200087B0200088B
:100160007B0200087B0200087B0200087B0200087B
:100170007B0200087B0200087B02000800000000F0
:100180007B0200087B020008DFF810D000F040FB83
:100190000048004795240008AFF30080B8410020D4
:1001A0002C4B19680868B0E8F04F80F30988BFF35A
:1001B0006F8F4FF0000080F311887047000000003F
:1001C00008480068006880F308884FF0000080F35A
:1001D000148862B661B6BFF34F8FBFF36F8F00DF35
:1001E00000BF00BF08ED00E0DFF80C00016841F43B
:1001F00070010160704700BF88ED00E0EFF30980F7
:10020000BFF36F8F134B1A681EF0100F08BF20ED5D
:10021000108A20E9F04F106009B44FF0500080F3CD
:100220001188BFF34F8FBFF36F8F02F099FF4FF02C
:10023000000080F3118809BC19680868B0E8F04F25
:100240001EF0100F08BFB0EC108A80F30988BFF3CE
:100250006F8F704724000020EFF305807047000087
:100260000648804706480047FEE7FEE7FEE7FEE750
:10027000FEE7FEE7FEE7FEE7FEE7FEE70D160008F5
:10028000890100082DE9F05F0546002092469B4653
:1002900088460646814640241BE02846414647469C
:1002A000224600F005FA53465A46C01A914110D32F
:1002B00011461846224600F0ECF92D1A67EB0108AA
:1002C0004F4622460120002100F0E3F917EB000918
:1002D0004E41201EA4F10104DFDC484631462A4687
:1002E0004346BDE8F09F40EA01039B0703D009E0C5
:1002F00008C9121F08C0042AFAD203E011F8013B12
:1003000000F8013B521EF9D27047D2B201E000F86A
:10031000012B491EFBD270470022F6E710B51346A9
:100320000A4604461946FFF7F0FF204610BD421C5E
:1003300010F8011B0029FBD1801A70472DE9FE4FF0
:10034000804681EA0300C00F0C46009021F0004176
:1003500023F00045B8EB0200A94105D240462146F2
:1003600090461C460B46024623F00040104347D0FF
:10037000270DC7F30A00C3F30A510290401A0190F7
:1003800040286BDAC3F3130040F4801B00989246B8
:1003900020B10023D2EB030A63EB0B0B0198594603
:1003A000C0F14002504600F074F906460D46504632
:1003B0005946019A00F08CF910EB080061410024C5
:1003C00087EA115284EAE7731A4340D0009A62B375
:1003D000019A012A4FEA075215DC001B61EB02016A
:1003E0004FF0004202EA0752CDE90042001C41F5FD
:1003F000801132462B4600F08CF903B0BDE8F08F37
:1004000040462146F9E7001B61EB0201001C41F563
:10041000801300185B412018A2F5001747EB030179
:1004200040EAD570B6196D4111E06D084FEA360605
:1004300045EAC0754FEA0752001B61EB0201001C40
:1004400041F5801149084FEA300000195141324608
:100450002B4603B0BDE8F04F00F04CB900980122E4
:1004600040000023D0EB020263EBE07300982146CA
:100470004FEAE074B8EB000061EB0401E9E783F0B8
:1004800000435BE781F0004158E72DE9FE4F81EA28
:10049000030404F0004421F0004100944FF0000BED
:1004A00023F0004350EA01045ED052EA03045BD01B
:1004B000C3F30A54C1F30A552C44A4F2F334019453
:1004C000A0FB0254C1F3130141F48011C3F31303E1
:1004D00043F4801301FB024400FB034E840A970A95
:1004E00044EA815447EA8357A4FB076802958D0AC2
:1004F00005FB07854FEA932C04FB0C542705029D4E
:100500004FEA065847EA1637B5EB08056EEB070CBD
:10051000870E920E47EA811742EA8312A7FB020177
:10052000B6EB0B0164EB00042B0D43EA0C335E18B1
:1005300044EB1C50DA465146E7FB0201C5F31304B5
:100540004FEA0B3343EA14534FEA0432019C43EA67
:100550000603A4F10C040294009CCDE900B400F061
:10056000D8F803B0BDE8F08F00200146F9E72DE987
:10057000F04D81EA030404F0004B21F000451446DD
:100580004FF0000A23F0004150EA050220D054EA5F
:1005900001021DD0C5F30A570246C5F31303C1F388
:1005A0001300C1F30A5640F4801543F48013A7EBFF
:1005B0000608101BD64608F2FD3873EB050002D37F
:1005C00008F1010801E092185B41B8F1000F03DA6D
:1005D00000200146BDE8F08D00204FF48011064652
:1005E00084460EE0171B73EB050705D3121B63EB64
:1005F000050306434CEA010C49084FEA3000921803
:100600005B4150EA0107EDD152EA030012D082EAC1
:10061000040083EA0501084305D0101BAB4106D254
:100620000122002306E000224FF0004302E06FF0B9
:10063000010253101AEB06004CEB085110EB0A00B4
:1006400041EB0B01BDE8F04D00F054B80EB540F29F
:10065000334102910021CDE900110A460B4600F01A
:1006600058F803B000BD30B50B46014600202022EB
:10067000012409E021FA02F59D4205D303FA02F5AF
:10068000491B04FA02F52844151EA2F10102F1DC0F
:1006900030BD202A04DB203A00FA02F10020704726
:1006A0009140C2F1200320FA03F3194390407047B0
:1006B000202A04DB203A21FA02F00021704721FAB7
:1006C00002F3D040C2F1200291400843194670471E
:1006D000202A06DBCB17203A41FA02F043EAE07306
:1006E00006E041FA02F3D040C2F1200291400843F3
:1006F0001946704710B5141E73F1000408DA401C47
:1007000041F1000192185B411A4301D120F0010030
:1007100010BD2DE9F04D92469B4611B1B1FA81F220
:1007200002E0B0FA80F220329046FFF7B2FF0446B2
:100730000F4640EA0A0041EA0B0153465A46084375
:1007400013D0114653EA010019D0C8F140025046B7
:10075000FFF7AEFF05460E46504659464246FFF7A4
:1007600098FF084305D0012004E020463946BDE843
:10077000F08D0020054346EAE0762C4337430A9883
:100780006305E40AA0EB08000022FD0A44EA47548E
:100790000A3002D500200146E9E701051019694138
:1007A000DDE9084500196941BDE8F04DA2E7C1F354
:1007B0000A52C1F3130140F2FF3341F480119A420F
:1007C00002DA00200146704740F233439A42A2F217
:1007D000334202DC5242FFF76BBFFFF75ABF000003
:1007E00030B5041E71F1000404DB4FF000444042B8
:1007F00064EB0101141E73F1000405DB1C464FF08D
:100800000043524263EB0403994208BF904230BD5B
:10081000064C074D06E0E06840F0010394E807004D
:1008200098471034AC42F6D3FFF7B2FC043F0008FF
:10083000243F000800BFFEE7704772B600BFFEE726
:10084000F8B502460B460025002400200021DCE01C
:10085000012606FA01F51E6806EA0504AC4273D1CA
:100860005E68012E08D05E68022E05D05E68112EEB
:1008700002D05E68122E13D190684F000326BE404E
:10088000B0434F00DE68BE403043906050680126A0
:100890008E40B0431E79C6F300168E403043506040
:1008A000D0684F000326BE40B0434F009E68BE4054
:1008B0003043D0605E68022E02D05E68122E13D1E3
:1008C000CF0802F1200656F827004E07F70E0F2634
:1008D000BE40B0434F07FF0E1E69BE403043CF08F5
:1008E00002F1200646F8270010684F000326BE409C
:1008F000B0431E7906F003064F00BE40304310603F
:100900005E6806F08056B6F1805F7DD100BF00269C
:100910000096404E366846F480463E4F3E603E4666
:10092000366806F48046009600BF00BF3A4E8F0836
:1009300056F827008E07370F0F26BE40B043374EBC
:10094000B24202D1002624E05EE0354EB24201D12F
:1009500001261EE0334EB24201D1022619E0324E8A
:10096000B24201D1032614E0304EB24201D1042636
:100970000FE02F4EB24201D105260AE02D4EB242C1
:1009800001D1062605E02C4EB24201D1072600E037
:1009900008268F073F0FBE4030431F4E8F0846F892
:1009A0002700264E3068A0435E6806F48036B6F510
:1009B000803F00D12043214E3060361D3068A04377
:1009C0005E6806F40036B6F5003F00D120431B4EAA
:1009D000361D3060361D3068A0435E6806F4801610
:1009E000B6F5801F00D12043144E08363060361D06
:1009F0003068A0435E6806F40016B6F5001F00D10B
:100A000020430E4E0C363060491C1029FFF420AFF5
:100A1000F8BD0000443802400838014000000240A0
:100A20000004024000080240000C02400010024096
:100A30000014024000180240001C0240003C01402B
:100A40000148006870470000140000200348006857
:100A500003490978084401490860704714000020E0
:100A60001C00002010B50D48006840F400700B49D0
:100A700008600846006840F4806008600846006826
:100A800040F480700860032000F098F80F2000F018
:100A900007F800F02BF8002010BD0000003C0240D9
:100AA00070B504460E4800784FF47A71B1FBF0F04F
:100AB0000C490968B1FBF0F5284600F017FC08B1B5
:100AC000012070BD102C07D200222146501E00F0DC
:100AD00037F80548046001E00120F2E70020F0E764
:100AE0001C000020200000201800002008B500BFD6
:100AF000002000901148006840F480400F490860D1
:100B00000846006800F48040009000BF00BF00BFAE
:100B100000200090081F006840F08050091F086006
:100B20000846006800F08050009000BF00BF00221F
:100B30000F21901E00F004F808BD00004438024068
:100B40002DE9F05F80460D461646002700F0ACFF09
:100B5000074639462A46334601F00700C0F1070A26
:100B6000BAF1040F02D94FF0040A01E0C0F1070AFC
:100B7000D14600F1040ABAF1070F02D24FF0000A81
:100B800001E0A0F1030AD4464FF0010A0AFA09FA7B
:100B9000AAF1010A0AEA020A0AFA0CFA4FF0010B5A
:100BA0000BFA0CFBABF1010B0BEA030B4AEA0B044B
:100BB0002146404600F080FFBDE8F09F00BF00F0F6
:100BC0000702064B19684FF6FF031940044B0B430D
:100BD00043EA0221014B196000BF70470CED00E0B1
:100BE0000000FA0570B504460D460CB9012070BD31
:100BF0005848006800F00F00A84209D255490D700E
:100C00000846006800F00F00A84201D00120EEE77E
:100C1000207800F0020002281DD1207800F00400A6
:100C2000042805D14C48006840F4E0504A49086067
:100C3000207800F00800082805D14748006840F4F3
:100C40006040454908604448006820F0F000A16811
:100C5000084341490860207800F00100A8B36068AB
:100C6000012807D13C4808380068C0F34040B8B9B3
:100C70000120BCE76068022802D06068032807D121
:100C8000354808380068C0F3406048B90120AEE735
:100C9000314808380068C0F3400008B90120A6E7D1
:100CA0002D48006820F00300616808432A49086065
:100CB000FFF7C6FE064609E0FFF7C2FE801B41F2C1
:100CC0008831884202D9032091E707E02248006872
:100CD00000F00C006168B0EB810FEDD11D48006899
:100CE00000F00F00A84209D91A490D7008460068A3
:100CF00000F00F00A84201D0012078E7207800F032
:100D00000400042807D11448006820F4E050E1688A
:100D1000084311490860207800F00800082808D12D
:100D20000D48006820F46040216940EAC1000A498A
:100D3000086000F03FF808490968C1F30311074A49
:100D4000515CC8400649086006480068FFF7A8FEE5
:100D500000204CE7003C024008380240EC3E00080E
:100D600020000020180000200148006870470000A3
:100D70002000002000B5FFF7F7FF04490968C1F320
:100D80008221034A515CC84000BD0000083802407F
:100D9000FC3E000800B5FFF7E7FF04490968C1F30E
:100DA0004231034A515CC84000BD0000083802408F
:100DB000FC3E00082DE9F047002400250026A1464E
:100DC0002548006800F00C0020B1042805D0082850
:100DD0003AD105E0DFF8849039E0DFF8849036E01E
:100DE0001D48001F006800F03F041B48001F0068FA
:100DF00000F4800078B11A481749091F0968C1F347
:100E00008811A0FB01700146224600233846FFF7F7
:100E100039FA05460EE011480F49091F0968C1F368
:100E20008811A0FB01700146224600233846FFF7D7
:100E300029FA05460848001F0068C0F30140401C1D
:100E40004600B5FBF6F902E0DFF8109000BF00BFE6
:100E50004846BDE8F0870000083802400024F4004E
:100E600040787D01F8B504460CB90120F8BD207822
:100E700000F00100002874D0F948006800F00C0070
:100E800004280DD0F648006800F00C00082813D1A3
:100E9000F348001F006800F48000B0F5800F0BD10C
:100EA000EF4808380068C0F34040002859D0606817
:100EB000002856D10120D9E700BF6068B0F5803F17
:100EC00008D1E7480838006840F48030E449083920
:100ED00008601EE06068B0F5A02F0DD1E04808382A
:100EE000006840F48020DE49083908600846006840
:100EF00040F4803008600CE0D9480838006820F4DD
:100F00008030D749083908600846006820F48020FE
:100F1000086000BF606890B1FFF792FD054606E0EB
:100F2000FFF78EFD401B642801D903209EE7CC48C3
:100F300008380068C0F340400028F1D011E0FFF706
:100F40007FFD054606E0FFF77BFD401B642801D9C5
:100F500003208BE7C24808380068C0F340400028EF
:100F6000F1D1207800F0020002285FD1BC4800686F
:100F700000F00C0058B1BA48006800F00C000828D6
:100F80001CD1B748001F006800F48000B0B9B44815
:100F900008380068C0F3400020B1E068012801D0A3
:100FA000012063E7AE480838006820F0F8002169A6
:100FB00040EAC100AA490839086037E0E06800B398
:100FC0000120A8490860FFF73BFD054606E0FFF752
:100FD00037FD401B022801D9032047E7A048083805
:100FE0000068C0F340000028F1D09D480838006830
:100FF00020F0F800216940EAC100994908390860E9
:1010000014E0002097490860FFF71AFD054606E046
:10101000FFF716FD401B022801D9032026E7904860
:1010200008380068C0F340000028F1D1207800F0B3
:10103000080008282CD16069A8B101208A490860FD
:10104000FFF7FEFC054606E0FFF7FAFC401B02280E
:1010500001D903200AE782486C300068C0F34000E1
:101060000028F1D014E000207F490860FFF7E8FC79
:10107000054606E0FFF7E4FC401B022801D90320E7
:10108000F4E677486C300068C0F340000028F1D1E6
:10109000207800F00400042870D100277048383010
:1010A000006800F0805090B900BF002000906C48AC
:1010B0003830006840F0805069493831086008468F
:1010C000006800F08050009000BF00BF0127674813
:1010D000006800F48070B0B96448006840F4807023
:1010E00062490860FFF7ACFC054606E0FFF7A8FC84
:1010F000401B022801D90320B8E65C48006800F4D0
:1011000080700028F2D000BFA068012808D15448A0
:101110006830006840F001005149683108601DE006
:10112000A06805280DD14E486830006840F00400E2
:101130004B49683108600846006840F001000860CB
:101140000CE047486830006820F0010044496831ED
:1011500008600846006820F00400086000BFA0682E
:10116000A8B1FFF76DFC054609E0FFF769FC401BDD
:1011700041F28831884202D9032077E626E03848D8
:1011800068300068C0F340000028EED013E0FFF79D
:1011900057FC054608E0FFF753FC401B41F288313D
:1011A000884201D9032061E62D4868300068C0F309
:1011B00040000028EFD1012F07D1294838300068BE
:1011C00020F0805026493831086000BFA06900280F
:1011D00045D02348006800F00C0008285DD0A069C5
:1011E000022845D100201F490866FFF729FC054663
:1011F00006E0FFF725FC401B022801D9032035E655
:10120000174808380068C0F340600028F1D1D4E9DD
:1012100007010843616A40EA81110122A06AC2EB1A
:10122000500041EA00412C20005D41EA00600C4979
:10123000091F086001200B490866FFF701FC0546FD
:1012400006E0FFF7FDFB401B022801D903200DE655
:10125000034808380068C0F340600028F1D03FE040
:101260000838024000004742800E474200700040AC
:1012700000201C490866FFF7E3FB054606E0FFF780
:10128000DFFB401B022801D90320EFE51648006868
:10129000C0F340600028F2D122E0A069012800D10B
:1012A000E4E51148001D066806F48001E06981420A
:1012B00014D106F03F01206A81420FD147F6C07079
:1012C0003040616A884209D106F44031A06A814207
:1012D00004D106F07061E06A814201D00120C5E5C9
:1012E0000020C3E5000047420038024070B50446C4
:1012F0002546681EB0F1807F01D301200FE0681EF3
:101300004FF0E02148610F214FF0FF3000F0D4FB97
:1013100000204FF0E021886107200861002070BDA7
:1013200010B504460CB9012010BDA06900B100E061
:1013300000BF94F8390028B9002084F8380020460E
:1013400000F028F8242084F839002068C06820F4D0
:1013500000502168C860204600F066F920680069E6
:1013600020F49040216808612068406920F02A003C
:10137000216848612068C06840F400502168C86056
:101380000020E063202084F8390084F83A0000202F
:10139000CAE7000010B586B00446142101A8FEF784
:1013A000BBFF1B49206888422FD100BF002000905E
:1013B0001848006840F40020164908600846006894
:1013C00000F40020009000BF00BF00BF002000908C
:1013D00010481038006840F001000E4910390860CC
:1013E0000846006800F00100009000BF00BF032025
:1013F0000190022002900120039003200490082015
:10140000059001A90448FFF71BFA06B010BD0000C3
:10141000004C004040380240000002402DE9F843F3
:1014200004460D4616461F464FF0000994F8390051
:1014300020285DD105B116B90120BDE8F88300BFB1
:1014400094F83800012801D10220F6E7012084F841
:10145000380000BF0020E063212084F83900FFF746
:10146000EFFA8146A684E68400BF002084F83800A5
:1014700000BF2BE0E08C401EE084A068B0F5805FE8
:1014800016D14B46002280212046009700F0C0FA7A
:1014900008B10320D1E7A846B8F80000C0F308005F
:1014A00021684860206908B9AD1C0FE06D1C0DE093
:1014B0004B46002280212046009700F0A9FA08B18F
:1014C0000320BAE715F8010B21684860E08C00287A
:1014D000D0D14B46002240212046009700F098FAD8
:1014E00008B10320A9E7202084F839000020A4E7F0
:1014F0000220A2E700BFFEE708B500BF0020009071
:101500000648006840F00100044908600846006889
:1015100000F00100009000BF00BF08BD303802405D
:1015200010B50B480B4908604FF416504860002175
:1015300008488160C16001610C2141610021816125
:10154000C161FFF7EDFE08B1FFF777F910BD0000AC
:10155000004C00408400002000BFFEE700BFFEE713
:1015600010B5FFF773FA02F0DBFA012801D002F0A0
:1015700041F810BD00B593B0302107A8FEF7CCFEAE
:10158000142102A8FEF7C8FE00BF002001901D48EC
:10159000006840F080501B4908600846006800F071
:1015A0008050019000BF00BF00BF0020019016488E
:1015B000006840F48040144908600846006800F460
:1015C0008040019000BF00BF0220079001200A90D8
:1015D00010200B9000200D9007A8FFF743FC08B1E6
:1015E000FFF72BF90F200290002003900490059044
:1015F0000690002102A8FFF7F5FA08B1FFF71DF9E0
:1016000013B000BD4038024000700040054800683B
:1016100040F47000034908604FF0006001498039D0
:101620000860704788ED00E02DE9F84F0446206817
:10163000006920F44050E16808432168086121698D
:10164000A068084361690843E16908430090206885
:10165000C06849F20C618843009908432168C8605A
:101660002068406920F44070A169084321684861FE
:10167000E069B0F5004F75D1E3492068884203D096
:10168000E249206888426FD1FFF784FB814602203F
:101690006168A0FB01510B461920A9FB00712A4685
:1016A0003846FEF7EFFD6421B0FBF1F04FEA001A77
:1016B00002206168A0FB01510B461920A9FB0071B3
:1016C0002A463846FEF7DEFD074602206168A0FB89
:1016D00001510B461920A9FB00B12A465846FEF7D6
:1016E000D1FD6421B0FBF1F000EBC00101EB001073
:1016F000A7EB8000322101EBC0006421B0FBF1F0C8
:1017000000F0F8000AEB400A02206168A0FB0151DA
:101710000B461920A9FB00712A463846FEF7B2FD98
:10172000074602206168A0FB01510B461920A9FB66
:1017300000B12A465846FEF7A5FD6421B0FBF1F042
:1017400000EBC00101EB0010A7EB8000322101EBA0
:10175000C0006421B0FBF1F000F0070050442168A4
:1017600088604FE16EE0FFE7FFF704FB814602204F
:101770006168A0FB01510B461920A9FB00712A46A4
:101780003846FEF77FFD6421B0FBF1F04FEA001A06
:1017900002206168A0FB01510B461920A9FB0071D2
:1017A0002A463846FEF76EFD074602206168A0FB18
:1017B00001510B461920A9FB00B12A465846FEF7F5
:1017C00061FD6421B0FBF1F000EBC00101EB001002
:1017D000A7EB8000322101EBC0006421B0FBF1F0E7
:1017E00000F0F8000AEB400A02206168A0FB0151FA
:1017F0000B461920A9FB00712A463846FEF742FD28
:10180000074602206168A0FB015003461920A9FB8E
:1018100000B12A465846FEF735FD6421B0FBF1F0D1
:1018200000EBC00101EB0010A7EB8000322101EBBF
:10183000C0006421B0FBF1F000F0070050442168C3
:101840008860DFE070492068884203D06F492068D3
:1018500088426BD1FFF79EFA814604206168A0FBA5
:1018600001510B461920A9FB00712A463846FEF7A4
:1018700009FD824604206168A0FB01510B46192036
:10188000A9FB00712A463846FEF7FCFC6421B0FB38
:10189000F1F000EBC00101EB0010AAEB8000322157
:1018A00001EB00106421B0FBF1F000F0F00A04201D
:1018B0006168A0FB015003461920A9FB00712A466C
:1018C0003846FEF7DFFC6421B0FBF1F00AEB001AAA
:1018D00004206168A0FB01510B461920A9FB00718F
:1018E0002A463846FEF7CEFC074604206168A0FB76
:1018F000015003461920A9FB00B12A465846FEF7BD
:10190000C1FC6421B0FBF1F000EBC00101EB001061
:10191000A7EB8000322101EB00106421B0FBF1F055
:1019200000F00F005044216888606BE0FFF722FA56
:10193000814604206168A0FB015003461920A9FBE1
:1019400000712A463846FEF79DFC824604206168F5
:10195000A0FB015003461920A9FB00712A46384616
:10196000FEF790FC6421B0FBF1F000EBC00101EB4D
:101970000010AAEB8000322101EB00106421B0FBC3
:10198000F1F000F0F00A04206168A0FB015003466A
:101990001920A9FB00712A463846FEF773FC642122
:1019A000B0FBF1F00AEB001A04206168A0FB0170A3
:1019B00003461920A9FB005001463A462846FEF787
:1019C00061FC074604206168A0FB01500346192012
:1019D000A9FB00B12A465846FEF754FC6421B0FB2F
:1019E000F1F000EBC00101EB0010A7EB8000322109
:1019F00001EB00106421B0FBF1F000F00F00504447
:101A000021688860BDE8F88F001001400014014093
:101A10002DE9F04104460D4617469846069E21E002
:101A2000701CF8B12EB1FFF70BF8A0EB0800B04224
:101A300018D92068C06820F4D0702168C860206878
:101A4000406920F0010021684861202084F83900B5
:101A500084F83A0000BF002084F8380000BF03205B
:101A6000BDE8F081206800682840A84201D101202B
:101A700000E00020B842D3D00020F1E700BFFEE72D
:101A80000FB4084B10B504A902AA039800F0FAF8A5
:101A9000044602A9002000F078FC204610BC5DF846
:101AA00014FB00008B23000802480068C0F30220EA
:101AB000704700000CED00E010B5002804DB0A07B9
:101AC000130E054A135406E00A07140E034A00F0E9
:101AD0000F031B1FD45410BD00E400E018ED00E01C
:101AE00002E008C8121F08C1002AFAD170477047E7
:101AF000002001E001C1121F002AFBD17047000045
:101B00002DE9FF5F82B00021DDE90430020DDDF830
:101B100040B0034318D044F61050A2F2FF324243C3
:101B20001514119801281FD0A5EB0B00401C5FEA8B
:101B3000000A4FF000064E4FDFF83891B04650468D
:101B400015D5CAF1000413E0119801244AA3012815
:101B500001D16FEA0B010298119AC0E90031C0E986
:101B6000024206B0BDE8F09FCBF10000DFE704467B
:101B70000021404A491842EB0450CDE9001012E020
:101B8000E00707D032463B4640464946FEF77DFC1B
:101B90008046894632463B4610461946FEF775FC9C
:101BA00006460F466410002CEAD1DDE90401DDE9A8
:101BB0000023BAF1000F06DAFEF767FC42464B46F7
:101BC000FEF763FC05E0FEF7D2FC42464B46FEF70B
:101BD000CEFC04460E460022284BFEF701FE03D839
:101BE0004FF0FF30014607E00022254B20463146EA
:101BF000FEF7A4FBFEF7DBFD102409E0002C0ADB56
:101C00000A220023FEF73EFB039B30321A55641E66
:101C100050EA0102F2D1641C039AC4F11103144486
:101C2000119A012A03D0012208430DD10AE008438A
:101C300004D000204FF0110B119072E7A3EB0B05BD
:101C40006D1E0DE05B4504DD4FF0000205F101055E
:101C500004E003DA4FF00002A5F10105002AECD000
:101C600002981199C0E90231C0E9004579E7000006
:101C7000000014400000F03F300000000000F0437E
:101C80000000E03F2DE9FF4F95B09A468846064692
:101C90000025EEE1252877D100242746F94A0121C5
:101CA000039400E0044316F8013F203B01FA03F0DF
:101CB0001042F7D130782A2811D06FF02F033078F6
:101CC000A0F13002092A16D8039A44F0020402EB6C
:101CD000820203EB42021044761C0390EFE758F8AF
:101CE000042B0392002A03DA504244F40054039078
:101CF00044F00204761C30782E2816D116F8010F15
:101D000044F004042A280DD06FF02F023078A0F19F
:101D10003003092B09D807EB870302EB4303C718ED
:101D2000761CF3E758F8047B761C30786C280FD0CB
:101D300006DC4C2817D068280DD06A2814D104E09E
:101D4000742810D07A280FD10DE044F400140AE072
:101D500044F4801401E044F440147278824202D1C9
:101D600004F58014761C761C307866280BD013DCC2
:101D7000582877D009DC002875D04528F6D04628A9
:101D8000F4D047281AD193E118E0632835D06428AD
:101D900079D0652812D18BE1702873D008DC6728D0
:101DA000F1D069286FD06E280DD06F2806D1ACE035
:101DB00073282CD0752874D0782853D052461799A0
:101DC00090476D1C54E1C4F30250022809D0032847
:101DD0000DD0D8F8001004280DD00D6008F10408CB
:101DE00046E1D8F80010EA17C1E90052F6E7D8F842
:101DF00000100D80F2E70D70F0E718F8041B8DF865
:101E0000001000208DF80100EB46012003E058F897
:101E100004BB4FF0FF3061074FF0000102D40DE02A
:101E200009F101018946B9420FDA8145F8DB1BF857
:101E300009100029F4D108E009F101018946814225
:101E4000FADB1BF809100029F6D103985346A0EBE2
:101E5000090721463846179A00F080FA284400EB1B
:101E6000090507E044E008E10DE01BF8010B5246CC
:101E700017999047B9F10109F7D2534621463846E0
:101E8000179AF2E039E00A21C4F302524FF0000B36
:101E90000091022A06D058F8040BC117032A09D072
:101EA0000AE023E008F1070020F00702F2E802014F
:101EB000904605E000B2C117042A01D140B2C11713
:101EC000002906DA0A460021404261EB02012D2278
:101ED00002E0220504D52B228DF80420012203E024
:101EE000E20701D02022F7E7914657E00A2100E0FF
:101EF00010214FF0000B00910BE010214FF0000B70
:101F000044F004040827009103E008204FF0000B80
:101F10000090C4F30252022A05D058F8040B0021A5
:101F2000032A08D008E008F1070020F00702F2E8D1
:101F30000201904603E080B2042A00D1C0B24FF003
:101F4000000922072AD53278702A07D0DDF800C0B0
:101F50008CF0100C5CEA0B0C05D00EE040228DF8E2
:101F60000420012208E050EA010306D030238DF856
:101F700004308DF8052002229146009B83F008036F
:101F800053EA0B030AD150EA010201D1620705D5D9
:101F900030228DF804204FF001097F1E3278582A34
:101FA00004D039A20C920CAA02920BE03BA2F9E7F2
:101FB0005B46009AFEF766F90C9B9B5C029A521EE8
:101FC0000292137050EA0102F2D1029804A9081A91
:101FD00000F1200B600702D524F4803400E00127D3
:101FE0005F4502DDA7EB0B0000E0002000EB0B01DA
:101FF000009003984944401A0390E00306D45346E6
:102000002146179A039800F0A9F90544002706E035
:1020100001A85246C05D179990476D1C7F1C4F4523
:10202000F6DBE0030CD553462146179A039800F0DF
:1020300095F9054404E030205246179990476D1CED
:102040000099481E00900029F5DC08E002980299EA
:1020500052460078491C0291179990476D1CBBF1BC
:102060000001ABF1010BF1DC5BE100F065F9054427
:10207000761C307800287FF40DAE19B02846BDE8F4
:10208000F08F000009280100303132333435363703
:1020900038396162636465660000000030313233B4
:1020A0003435363738394142434445460000000054
:1020B000600700D4062708F1070020F00700F0E8C9
:1020C0000223804603F0004C5FEA0C0001D097A089
:1020D00009E0200501D596A005E0E00701D095A014
:1020E00001E0AFF24C001390307823F000436528F4
:1020F0000CD006DC452809D046281DD047287FD1C2
:102100003BE0662818D067287AD136E00021112FED
:1021100001DB112000E0781CCDE9000104A90CA826
:10212000FFF7EEFCDDE90D010C9A4FF0000B07F113
:102130000109109200914EE04FF000400097CDE968
:10214000011004A90CA8FFF7DBFCDDE90D020C9BD4
:102150000F994FF0000B91461093009211B9791C22
:1021600000EB0109B7EB090003D4C0F1FF3B07F115
:102170000109A9EB0700019042E0012F00DA0127D5
:102180000021112F01DD112000E03846CDE90001CA
:1021900004A90CA8FFF7B4FCDDE90D010C9A00912D
:1021A0004FF0000BB946109221070FD4009A4A4510
:1021B00003DA914601E0A9F10109B9F1010F05DD4A
:1021C000109AA9F10101515C3029F4D0B84202DA29
:1021D00010F1040F03DA0121CDE9011010E000280D
:1021E00003DC8344A9EB000102E0411C494500DD0A
:1021F0008946A0EB0B00401C01904FF0004002907C
:10220000200705D40198484502DB4FF0FF300190CC
:1022100000208DF84B0002980DF14B07B0F1004FF4
:1022200025D002200C902B200D90029800280CDA6B
:10223000404202902D200D9007E00A210298FEF7FF
:1022400012FA3031029007F8011D0C99481E0C90CB
:102250000029F2DC02980028EFD1791E0D98087051
:10226000307800F0200040F0450007F8020D11A87A
:10227000C01BC01D02901398007800B1012000EB34
:102280000901019801EBE071029801440398401A9A
:10229000401E0390E00306D453462146179A039844
:1022A00000F05CF805441398007818B1524617996D
:1022B00090476D1CE00323D553462146179A039897
:1022C00000F04CF805441BE0BBF1000F07DB009861
:1022D000584504DD1098179910F80B0001E0179984
:1022E00030205246904701980BF1010B401E05F13A
:1022F0000105019004D12E205246179990476D1C7C
:10230000B9F10001A9F10109DEDC05E017F8010BC4
:102310005246179990476D1C0299481E0290002959
:10232000F4DC53462146179A03989EE62D000000E0
:102330002B000000200000002DE9F041044600259C
:102340001E461746880404D405E039462020B047CD
:102350006D1C641EF9D52846BDE8F0812DE9F041D9
:10236000044600251E469046C80301D5302700E0EC
:102370002027880404D505E041463846B0476D1C47
:10238000641EF9D52846BDE8F0810A68531C0B602D
:102390001070704710B52DED0A8B2348806840F00F
:1023A00080402149886000BF1F48006800F002009B
:1023B0000028F9D01C49C86CFEF748F941EC190B0C
:1023C00053EC192B9FED190B51EC100BFEF75DF838
:1023D00041EC1B0B9FED170B53EC102BFEF7C7F8CE
:1023E00041EC1A0B9FED150B53EC102B51EC1A0B13
:1023F000FEF745F841EC1C0B9FED120B53EC102B34
:10240000FEF7B5F841EC1B0B9FED100B53EC102BB6
:10241000FDF794FF41EC180BB0EE480AF0EE680AA5
:10242000BDEC0A8B10BD00000020014066666666A8
:1024300066660A400000000000FEAF4052B81E85EC
:10244000EB51E83F7B14AE47E17A643F00000000A7
:10245000000039400C48006840F480700A49086068
:1024600000200A4988604FF48020C860084800684E
:1024700040F40000C1F80403102048630846806857
:1024800040F001008860704744380240002001405D
:10249000042301401CB5FEF7E5FAFFF76BF8FFF7E0
:1024A0002BF8FFF73DF8FFF7D5FF00F0CDFE1E49F2
:1024B000086002211C48006800F0D5FE00221E21A1
:1024C000012001F0B1F819490860194805210023DD
:1024D0004FF48072CDE9001016A11D4801F0EEFA0C
:1024E00004461C48052100234FF48072CDE90010FA
:1024F00019A11D4801F0E2FA05461C4805210023F8
:102500004FF48072CDE9001019A1204801F0D6FAED
:102510000646012C05D1012D03D1012E01D100F079
:10252000B5FF00BFFEE70000100000200C000020F7
:102530000000002053686F775F54656D70657261AD
:10254000747572655F666F725F3273656300000059
:102550005D2C000808000020554152545F436F6E07
:1025600074726F6C6C657200592D000804000020B5
:1025700053686F775F54656D7065726174757265CD
:102580005F666F725F35736563000000DD2C0008C5
:102590002DE9F04105460E461C4807681C480068B6
:1025A000001D00F0F3FB50B91948006890F82C109A
:1025B0000120884017490968814316480160681C5A
:1025C00038B936B112480168091D134800F02AFCD9
:1025D0001AE07C190E4800684460BC4207D20C48DF
:1025E0000168091D0D48006800F002FC0CE0084875
:1025F0000168091D0A48006800F0FAFB09480068F4
:10260000844201D207480460BDE8F0813800002010
:10261000240000203C000020A00100202C0000200D
:10262000280000205400002010B5044600F006FCED
:1026300023480068401C224908602248006840B9CD
:10264000204804600846006801280DD100F046F9D2
:102650000AE01D48006838B91A480068C06AE16A93
:10266000884201D81748046018480068401C174980
:10267000086094F82C100120884015490968084327
:1026800013490860E16A01EB8101124A02EB810003
:10269000211D00F0C7FB00F0FBFB0B48006868B190
:1026A00008480068C06AE16A884207D24FF080504B
:1026B00009490860BFF34F8FBFF36F8F10BD000053
:1026C00034000020240000204000002050000020A2
:1026D0003C000020C400002004ED00E070B504467A
:1026E0000D46206C70B1216CE0680144E160D4E9D2
:1026F0000210884201D32168E1602846226CE1681B
:10270000FDF7F1FD70BD2DE9F04104460F46154679
:102710004FF00008A66B206C48B9206800282CD127
:10272000A06801F0B1FA80460020A06025E07DB9E4
:102730003946226C6068FDF7D6FD216C606808445C
:102740006060D4E90101884217D32068606014E01A
:102750003946226CE068FDF7C6FD216CE068411A3D
:10276000E1602168E068884203D2216CA068411AC8
:10277000E160022D01D106B1761E701CA0634046B7
:10278000BDE8F08130B54FF47053174800F00704EE
:102790002CB1C01D20F00700134C041B1B1B02466C
:1027A000124C22600024114D6C60D018083820F0C3
:1027B00007000F4C206000240D4D2D686C600C4DFF
:1027C0002D682C601146441A4C60094C24680C603A
:1027D000084D4C682C60084D4C682C604FF000444C
:1027E000064D2C6030BD0000B401002060000020C8
:1027F00068000020700000206C00002074000020A1
:102800002DE9F04106460D4617469846069C0DB93F
:10281000246000E02760E66325640121204600F083
:1028200033FFBDE8F0812DE9FF5F81460E469246F9
:10283000DDE90E7B109CAAF10100216B01EB800801
:1028400028F0070808F0070008B9012000E0002080
:1028500050B900BF502080F31188BFF34F8FBFF3F2
:102860006F8F00BF00BFFEE786B1002507E0715DF6
:1028700004F134004155705D00B902E06D1C102D6B
:10288000F5D300BF00214320015502E0002084F869
:102890003400072F00D30627E76267640020A06496
:1028A000201D00F0A2FA04F1180000F09EFA246145
:1028B000C7F10700A06164620020E06484F8500062
:1028C00049464046039A00F0B3F92060BBF1000F7F
:1028D00001D0CBF80040BDE8FF9F000010B50024F8
:1028E00007E004EB84010F4A02EB810000F070FA6C
:1028F000641C072CF5D30C4800F06AFA0B4800F072
:1029000067FA0B4800F064FA0A4800F061FA0A48D6
:1029100000F05EFA04480949086004480849086064
:1029200010BD0000C4000020500100206401002000
:10293000780100208C010020A00100202800002048
:102940002C00002010B50146164800E0006803681E
:102950008B42FBD30246436813448B4204D1436845
:102960004C682344436001460A464B68134404689C
:10297000A34211D10C4C03682468A34208D04B68D1
:102980000468646823444B6003681B680B6005E0BF
:10299000054B1B680B6001E003680B60884200D0A8
:1029A000016010BD600000206800002070B5054681
:1029B00000F044FAA86B08B9012400E0002400F0FC
:1029C00067FA204670BD70B5054600F037FAA86B6F
:1029D000E96B884201D1012400E0002400F058FA9C
:1029E000204670BD0A490968096809B9012100E05B
:1029F000002121B14FF0FF31064A116006E0044981
:102A00000968C968C868034A4168116070470000D6
:102A100028000020540000200E480068401C08B91F
:102A2000012000E0002050B900BF502080F3118841
:102A3000BFF34F8FBFF36F8F00BF00BFFEE700BF34
:102A4000502080F31188BFF34F8FBFF36F8F00BF0B
:102A500000BFFEE77800002010B50346002022B931
:102A600003EA010434B1012004E003EA01048C42CA
:102A700000D1012010BD70B5044600F0DFF994F9D3
:102A8000455010E0606A08B9012000E0002038B924
:102A900004F1240001F05CF918B100F0AFFA00E095
:102AA00003E0681E45B2002DECDC00BFFF2084F877
:102AB000450000F0EDF900F0C1F994F9445010E040
:102AC000206908B9012000E0002048B904F1100095
:102AD00001F03EF908B100F091FA681E45B200E03D
:102AE00001E0002DECDC00BFFF2084F8440000F082
:102AF000CFF970BD2DE9F04104464FF0000800F019
:102B000027FB4648006808B9FFF73CFE44480068C8
:102B1000204000286BD1D4B1083404F00700B0B1D4
:102B200004F00700C0F10800044404F0070008B9ED
:102B3000012000E0002050B900BF502080F3118830
:102B4000BFF34F8FBFF36F8F00BF00BFFEE7002CB6
:102B50004DD034480068844249D8334E3046056829
:102B600001E02E462D686868A04202D2286800283D
:102B7000F7D12A480068854239D0306800F108084A
:102B8000286830606868001B102819D92F1907F0D1
:102B9000070008B9012000E0002050B900BF502014
:102BA00080F31188BFF34F8FBFF36F8F00BF00BF5B
:102BB000FEE76868001B78606C603846FFF7C2FE6D
:102BC000184968680968081A1649086008460068C4
:102BD00016490968884203D2124800681349086000
:102BE0000F4968680968084368600020286001F0A0
:102BF000FBF808F0070008B9012000E0002050B9F8
:102C000000BF502080F31188BFF34F8FBFF36F8F49
:102C100000BF00BFFEE74046BDE8F081680000202D
:102C2000740000206C000020600000207000002074
:102C3000001F4FF080730360001F21F00103036049
:102C4000001F054B036014380260001F6FF0020381
:102C50000360203870470000192A00082DED028B10
:102C60008AB02CE04FF0FF3000231A46022100907A
:102C70001348006800F05EFBFFF7ECFBFFF78AFBF0
:102C8000B0EE408AF0EE608A02210D48006800F044
:102C9000ADFA04210A48006800F0E5FA53EC182B5D
:102CA00008A102A8FEF7ECFE00235A1E02A90A485A
:102CB000006800F035FD4FF4FA6000F065F9D1E7E7
:102CC00010000020322054656D7065726174757259
:102CD000653A2025660D0A000C0000202DED028BC0
:102CE0008AB02AE04FF0FF3000231A4604210090FA
:102CF0001248006800F01EFBFFF74CFBB0EE408A64
:102D0000F0EE608A04210D48006800F06FFA02219D
:102D10000A48006800F0A7FA53EC182B08A102A893
:102D2000FEF7AEFE00235A1E02A90A48006800F012
:102D3000F7FC41F2883000F027F9D3E710000020BB
:102D4000352054656D70657261747572653A202521
:102D5000660D0A000C00002088B012E000226946CF
:102D60000848006800F0B0FD01280AD16846FDF768
:102D7000DEFA84B24FF4FA63224669460248FEF74F
:102D80004DFBEBE70C0000208400002001460A699F
:102D9000D1E901309860D1E9010358605068884258
:102DA00001D188685060002008611068401E1060E2
:102DB0001068704705490968886904490968C96A43
:102DC000C1F10701014A1268916170472400002097
:102DD00000F1080141604FF0FF31816000F108010E
:102DE000C1600161002101607047002101617047ED
:102DF00010B502460B685C1C0CB9106907E002F1C3
:102E0000080000E04068446824689C42FAD944689D
:102E10004C604C68A160886041600A611468641C61
:102E2000146010BD42684A6093688B609368596073
:102E30009160086103685B1C0360704700BF50200D
:102E400080F31188BFF34F8FBFF36F8F00BF0E4821
:102E50000068401C0C49086008460068012812D12F
:102E60000A480068C0B208B9012000E0002050B94B
:102E700000BF502080F31188BFF34F8FBFF36F8FD7
:102E800000BF00BFFEE770477800002004ED00E0BF
:102E90000D48006850B900BF502080F31188BFF37F
:102EA0004F8FBFF36F8F00BF00BFFEE7064800687B
:102EB000401E054908600846006820B9002080F3DC
:102EC000118800BF00BF70477800002070B506462B
:102ED0003546002E3FD0083D2C461F4960680968E2
:102EE000084008B1012000E0002050B900BF502088
:102EF00080F31188BFF34F8FBFF36F8F00BF00BF08
:102F0000FEE7206808B9012000E0002050B900BFAA
:102F1000502080F31188BFF34F8FBFF36F8F00BF36
:102F200000BFFEE70C4960680968084098B1206856
:102F300088B90949606809688843606000F008F949
:102F40000649606809680844044908602046FFF79C
:102F5000F9FC00F049FF70BD740000206C000020F7
:102F600000204FF0E02108618861064800684FF4B6
:102F70007A71B0FBF1F0401E4FF0E021486107206C
:102F8000086170472000002070B504460025D4B1C8
:102F90001248006808B9012000E0002050B900BFC5
:102FA000502080F31188BFF34F8FBFF36F8F00BFA6
:102FB00000BFFEE700F0CCF800212046FFF7E8FA5A
:102FC00000F012FF05463DB94FF0805004490860FB
:102FD000BFF34F8FBFF36F8F70BD00005C00002008
:102FE00004ED00E003490968016003490968416094
:102FF000704700004C0000203800002001200149EB
:10300000086070474800002070B504460D4654B96A
:1030100000BF502080F31188BFF34F8FBFF36F8F35
:1030200000BF00BFFEE70548016818312046FFF7E2
:10303000DFFE01212846FFF7ABFA70BD2400002017
:1030400070B504460D46164654B900BF502080F3B3
:103050001188BFF34F8FBFF36F8F00BF00BFFEE734
:103060001048006808B1012000E0002050B900BFFE
:10307000502080F31188BFF34F8FBFF36F8F00BFD5
:1030800000BFFEE745F0004007490968886106482F
:10309000016818312046FFF7C5FE01213046FFF7D1
:1030A00077FA70BD5C0000202400002070B5054652
:1030B0000E462248006808B1012000E0002050B907
:1030C00000BF502080F31188BFF34F8FBFF36F8F85
:1030D00000BF00BFFEE746F000402860EC6854B92E
:1030E00000BF502080F31188BFF34F8FBFF36F8F65
:1030F00000BF00BFFEE72846FFF748FE201DFFF790
:1031000045FE94F82C10012088400D4909680843B9
:103110000B490860E16A01EB81010A4A02EB810078
:10312000211DFFF77FFE0849E06A0968C96A8842E5
:1031300002D901200549086070BD00005C00002034
:103140003C000020C4000020240000204800002093
:1031500002480068401C0149086070475C0000207C
:103160001D48006818B101201C49086032E00020A9
:103170001A4908601A480068B0FA80F0C0F11F01CF
:1031800001EB8100174A52F8200008B1012000E04D
:10319000002050B900BF502080F31188BFF34F8F3B
:1031A000BFF36F8F00BF00BFFEE701EB81020D4B45
:1031B00003EB820042685268426000F108024368F3
:1031C000934202D14268526842604268D268064B1C
:1031D0001A6000BF704700005C000020480000201B
:1031E0003C000020C4000020240000202DE9F04114
:1031F00005460E462C4655B900BF502080F3118875
:10320000BFF34F8FBFF36F8F00BF00BFFEE706F025
:103210007F4008B9012000E0002050B900BF5020D5
:1032200080F31188BFF34F8FBFF36F8F00BF00BFD4
:10323000FEE7FFF703FE27682068B0432060FFF732
:1032400027FE3846BDE8F08110B51C20FFF752FC80
:10325000044634B100202060201DFFF7B9FD002096
:103260002076204610BD2DE9FE4F074688460020F7
:1032700001903C46009057B900BF502080F3118860
:10328000BFF34F8FBFF36F8F00BF00BFFEE708F0A3
:103290007F4008B9012000E0002050B900BF502055
:1032A00080F31188BFF34F8FBFF36F8F00BF00BF54
:1032B000FEE704F1040909F108000290FFF748FF56
:1032C000D9F80C60206840EA0800206026E0D6F8B3
:1032D00004B035680020009005F07F4A25F07F4556
:1032E0000AF0806028B92068284040B10120009091
:1032F00005E020682840A84201D1012000900098F4
:1033000058B10AF0807010B10198284301902068EC
:1033100040F000713046FFF7C9FE5E4602988642D3
:10332000D5D1206801998843206000F05DFD2068B8
:10333000BDE8FE8F2DE9FF4F83B081460D4617464D
:10334000DDF840804C464FF0000A00200190B9F1B2
:10335000000F0AD100BF502080F31188BFF34F8FB8
:10336000BFF36F8F00BF00BFFEE705F07F4008B9D5
:10337000012000E0002050B900BF502080F31188E8
:10338000BFF34F8FBFF36F8F00BF00BFFEE70DB1DC
:10339000012000E0002050B900BF502080F31188C8
:1033A000BFF34F8FBFF36F8F00BF00BFFEE700F08A
:1033B000B7FB10B9B8F1000F01D1012000E00020E7
:1033C00050B900BF502080F31188BFF34F8FBFF377
:1033D0006F8F00BF00BFFEE7FFF7BAFE20680090C6
:1033E0002946069A0098FFF737FB0290029838B1F9
:1033F000009E4FF00008C7B12068A843206014E089
:10340000B8F1000F03D1009E012001900DE00FB133
:103410004AF0807A069808B14AF0806A45EA0A01C3
:103420004246201DFFF70CFE002600F0DDFC83461F
:10343000B8F1000F23D0BBF1000F07D14FF080503F
:1034400011490860BFF34F8FBFF36F8FFFF7B2FCD6
:10345000064606F0007080B9FFF7F0FC26682946A2
:103460003046069AFFF7F8FA18B117B12068A8435A
:10347000206001200190FFF70BFD26F07F463046CB
:1034800007B0BDE8F08F000004ED00E01CB5524825
:1034900000685249884201D0012000E0002050B964
:1034A00000BF502080F31188BFF34F8FBFF36F8FA1
:1034B00000BF00BFFEE7484800684849491E8842EF
:1034C00001D0012000E0002050B900BF502080F35F
:1034D0001188BFF34F8FBFF36F8F00BF00BFFEE7B0
:1034E0003F49084600780190FF200A4610700846C0
:1034F000007800909DF8000000F0F0009DF800209A
:10350000904201D1012000E0002050B900BF5020BE
:1035100080F31188BFF34F8FBFF36F8F00BF00BFE1
:10352000FEE79DF8000000F050002E4A10700720C2
:103530002D4A106009E02C480068401E2A4A10609D
:103540009DF800004006000E00909DF8000000F07D
:1035500080008028EFD024480068C0F107000428CC
:1035600001D1012000E0002050B900BF502080F3BD
:103570001188BFF34F8FBFF36F8F00BF00BFFEE70F
:10358000194800680002184A10601046008800F4CC
:10359000E0601060124A019810700F4820300068F7
:1035A00040F470000C49203108600846006840F083
:1035B00070400860FFF7D4FC00200C490860FCF75D
:1035C00013FE0B48006840F0404009490860FCF7D2
:1035D000F7FD00201CBD000000ED00E071C20F41AE
:1035E00000E400E07C000020800000207800002043
:1035F00034EF00E010B500BF502080F31188BFF316
:103600004F8FBFF36F8F00BF00F09AFA18B14FF0E1
:1036100080500449086000BF002080F3118800BF7B
:1036200010BD000004ED00E02DE9F84305460E460C
:1036300090460DB1012000E0002050B900BF50209D
:1036400080F31188BFF34F8FBFF36F8F00BF00BFB0
:10365000FEE70EB9002701E005FB06F707F1480079
:10366000FFF748FA044664B1A14609F14809002071
:1036700084F8460043464A46314628460094FFF700
:10368000BFF82046BDE8F88370B505460E462C46C7
:1036900054B900BF502080F31188BFF34F8FBFF3A0
:1036A0006F8F00BF00BFFEE7FFF7C8FBD4E90F1222
:1036B000206801FB0200A0600020A0632068606019
:1036C000E06B401E226C216800FB0211E160FF20CC
:1036D00084F8440084F845009EB9206908B90120A7
:1036E00000E00020A8B904F1100000F031FB80B127
:1036F0004FF0805009490860BFF34F8FBFF36F8FC1
:1037000007E004F11000FFF763FB04F12400FFF76A
:103710005FFBFFF7BDFB012070BD000004ED00E082
:103720002DE9FF4383B0064688461D464FF0000949
:10373000344654B900BF502080F31188BFF34F8F37
:10374000BFF36F8F00BF00BFFEE7B8F1000F01D1DC
:10375000206C08B9012000E0002050B900BF5020C3
:1037600080F31188BFF34F8FBFF36F8F00BF00BF8F
:10377000FEE7022D02D1E06B012801D1012000E01B
:10378000002050B900BF502080F31188BFF34F8F45
:10379000BFF36F8F00BF00BFFEE700F0C1F908B9AB
:1037A000059808B9012000E0002050B900BF502062
:1037B00080F31188BFF34F8FBFF36F8F00BF00BF3F
:1037C000FEE700BFFFF73AFBA06BE16B884201D335
:1037D000022D28D12A4641462046FEF794FF07468F
:1037E000606A08B9012000E0002068B904F12400F3
:1037F00000F0AEFA88B14FF0805032490860BFF354
:103800004F8FBFF36F8F08E03FB14FF080502D49CD
:103810000860BFF34F8FBFF36F8FFFF739FB0120B5
:1038200007B0BDE8F083059818B9FFF731FB002019
:10383000F6E7B9F1000F04D101A8FFF7D3FB4FF071
:103840000109FFF725FBFFF783FCFFF7F7FA94F96F
:103850004400401C10B9002084F8440094F945004D
:10386000401C10B9002084F84500FFF711FB05A9A2
:1038700001A800F0DDF8F0B92046FFF7A4F8A0B1E8
:1038800004F110000599FFF7BFFB2046FFF7F3F89E
:1038900000F0AAFA002895D14FF08050094908603D
:1038A000BFF34F8FBFF36F8F8CE72046FFF7E3F82E
:1038B00000F09AFA86E72046FFF7DDF800F094FA68
:1038C0000020ADE704ED00E02DE9F74183B00546A7
:1038D0000E464FF000082C4654B900BF502080F32C
:1038E0001188BFF34F8FBFF36F8F00BF00BFFEE79C
:1038F0000EB9206C08B9012000E0002050B900BFCB
:10390000502080F31188BFF34F8FBFF36F8F00BF3C
:1039100000BFFEE700F004F908B9059808B90120D6
:1039200000E0002050B900BF502080F31188BFF3A1
:103930004F8FBFF36F8F00BF00BFFEE700BFFFF7E1
:103940007DFAA76BF7B131462046FEF7C7FE781E19
:10395000A063206908B9012000E0002060B904F1EB
:10396000100000F0F5F938B14FF080502F49086091
:10397000BFF34F8FBFF36F8FFFF78AFA012006B0B6
:10398000BDE8F081059818B9FFF782FA0020F6E744
:10399000B8F1000F04D101A8FFF724FB4FF0010894
:1039A000FFF776FAFFF7D4FBFFF748FA94F94400E3
:1039B000401C10B9002084F8440094F94500401CD4
:1039C00010B9002084F84500FFF762FA05A901A8A4
:1039D00000F02EF8F0B92046FEF7E8FFA0B104F1A0
:1039E00024000599FFF710FB2046FFF744F800F08C
:1039F000FBF90028A3D14FF080500C490860BFF3B9
:103A00004F8FBFF36F8F9AE72046FFF734F800F02F
:103A1000EBF994E72046FFF72EF800F0E5F9204691
:103A2000FEF7C4FF00288AD00020A8E704ED00E0DC
:103A300070B505460C4655B900BF502080F311887B
:103A4000BFF34F8FBFF36F8F00BF00BFFEE754B9C6
:103A500000BF502080F31188BFF34F8FBFF36F8FEB
:103A600000BF00BFFEE7FFF7E9F912480268686887
:103A7000131A2068401C08B9002617E00E49286870
:103A80000968884204D06868904201D801260DE098
:103A90002068984207D92068C01A20602846FFF79E
:103AA000A1FA002602E0002020600126FFF7F0F9CD
:103AB000304670BD380000204C0000202DE9FF4F3B
:103AC00085B0804689461746DDE912ABB800FFF79E
:103AD00011F8064656B15420FFF70CF804460CB115
:103AE000266304E03046FFF7F1F900E000248CB1D2
:103AF000002084F85100CDE900ABCDE902403A4600
:103B000049464046089BFEF78EFE2046FEF78CFD98
:103B1000012501E04FF0FF35284609B0BDE8F08FE0
:103B20000549096809B9012005E00449096809B98E
:103B3000022000E000207047400000205C000020D0
:103B40002DE9F0414FF0000844480068002877D183
:103B500043480068451C4248056015BB4148006861
:103B6000006808B9012000E0002050B900BF5020D3
:103B700080F31188BFF34F8FBFF36F8F00BF00BF7B
:103B8000FEE7384807683848006836490860364814
:103B9000076036480068401C34490860FEF722FF81
:103BA00000BF3348006885423CD300BF2D48006801
:103BB000006808B9012000E0002020B14FF0FF307C
:103BC0002B4908602DE027480068C068C468666813
:103BD000B54202D22648066023E0201DFFF7D6F842
:103BE000A06A18B104F11800FFF7D0F894F82C106F
:103BF000012088401F49096808431E490860E16A9E
:103C000001EB81011C4A02EB8100211DFFF70AF93B
:103C10001A49E06A0968C96A8842C7D34FF00108A7
:103C2000C4E700BF15480068C06A00EB8000124975
:103C300051F82000012801D94FF0010805E0FFE705
:103C40000F480068401C0E4908600E48006808B123
:103C50004FF001084046BDE8F08100005C00002004
:103C600038000020280000202C0000204C000020FC
:103C7000540000203C000020C4000020240000204C
:103C8000440000204800002070B505462C46002660
:103C9000002D55D02B480068844201D1012000E05E
:103CA000002050B900BF502080F31188BFF34F8F20
:103CB000BFF36F8F00BF00BFFEE7A06C50B900BF1D
:103CC000502080F31188BFF34F8FBFF36F8F00BF79
:103CD00000BFFEE7A06C401EA064616CE06A8842F1
:103CE0002ED0A06C60BB201DFFF750F878B9E06AB9
:103CF00000EB8000144951F8200040B994F82C10D2
:103D00000120884011490968814310480160606CB6
:103D1000E062E06AC0F10700A06194F82C10012075
:103D200088400A490968084308490860E16A01EBCC
:103D30008101054A02EB8100211DFFF773F801267E
:103D4000304670BD24000020C40000203C0000204C
:103D500070B50646F068C46854B900BF502080F3BF
:103D60001188BFF34F8FBFF36F8F00BF00BFFEE717
:103D700004F11800FFF70AF815480068A8B9201DDB
:103D8000FFF704F894F82C100120884011490968C5
:103D9000084310490860E16A01EB81010E4A02EB19
:103DA0008100211DFFF73EF804E004F118010B48E3
:103DB000FFF738F80A49E06A0968C96A884204D9F5
:103DC000012501200749086000E00025284670BD54
:103DD0005C0000203C000020C4000020780100208E
:103DE000240000204800002070B50024002636483A
:103DF000006850B900BF502080F31188BFF34F8F87
:103E0000BFF36F8F00BF00BFFEE7FFF717F82E4824
:103E10000068401E2C4908600846006800284FD101
:103E20002A48006800284BD024E02948C068C468AC
:103E300004F11800FEF7AAFF201DFEF7A7FF94F873
:103E40002C10012088402349096808432149086053
:103E5000E16A01EB8101204A02EB8100211DFEF79E
:103E6000E1FF1E49E06A0968C96A884202D301205D
:103E70001B4908601648006808B9012000E00020CE
:103E80000028D2D00CB1FEF7ADFD1648056865B12B
:103E900000BFFFF755FE10B10120114908606D1EEB
:103EA000002DF6D100200F4908600D48006838B198
:103EB000012630070C490860BFF34F8FBFF36F8FA7
:103EC000FEF7E6FF304670BD5C00002034000020A5
:103ED000780100203C000020C400002024000020C5
:103EE000480000204400002004ED00E00000000035
:103EF000000000000102030406070809000000009A
:103F000001020304243F0008000000208400000098
:103F1000E01A0008A83F0008840000203441000097
:103F2000F01A00080000000000000000000000007F
:103F30000000000000000000000000001000000071
:103F4000010000000024F400000000000000000058
:103F50000000000000000000000000000000000061
:103F60000000000000000000000000000000000051
:103F70000000000000000000000000000000000041
:103F80000000000000000000000000000000000031
:103F9000000000000000000000000000AAAAAAAA79
:083FA000000000000000000019
:040000050800018965
:00000001FF
