:020000040800F2
:10000000B8410020610200082D14000829140008DE
:100010002B140008350800089F1700080000000096
:10002000000000000000000000000000A101000826
:100030003708000800000000FD0100082F14000828
:100040007B0200087B0200087B0200087B0200089C
:100050007B0200087B0200087B0200087B0200088C
:100060007B0200087B0200087B0200087B0200087C
:100070007B0200087B0200087B0200087B0200086C
:100080007B0200087B0200087B0200087B0200085C
:100090007B0200087B0200087B0200087B0200084C
:1000A0007B0200087B0200087B0200087B0200083C
:1000B0007B0200087B0200087B0200087B0200082C
:1000C0007B0200087B0200087B0200087B0200081C
:1000D0007B0200087B0200087B0200087B0200080C
:1000E0007B0200087B0200087B0200087B020008FC
:1000F0007B0200087B0200087B0200087B020008EC
:100100007B0200087B0200087B0200087B020008DB
:10011000E11400087B0200087B0200087B02000853
:100120007B0200087B0200087B0200087B020008BB
:100130007B0200087B0200087B0200087B020008AB
:100140007B0200087B0200087B0200087B0200089B
:100150007B0200087B0200087B0200087B0200088B
:100160007B0200087B0200087B0200087B0200087B
:100170007B0200087B0200087B02000800000000F0
:100180007B0200087B020008DFF810D000F040FB83
:1001900000480047AD210008AFF30080B8410020BF
:1001A0002C4B19680868B0E8F04F80F30988BFF35A
:1001B0006F8F4FF0000080F311887047000000003F
:1001C00008480068006880F308884FF0000080F35A
:1001D000148862B661B6BFF34F8FBFF36F8F00DF35
:1001E00000BF00BF08ED00E0DFF80C00016841F43B
:1001F00070010160704700BF88ED00E0EFF30980F7
:10020000BFF36F8F134B1A681EF0100F08BF20ED5D
:10021000108A20E9F04F106009B44FF0500080F3CD
:100220001188BFF34F8FBFF36F8F02F049FC4FF07F
:10023000000080F3118809BC19680868B0E8F04F25
:100240001EF0100F08BFB0EC108A80F30988BFF3CE
:100250006F8F704728000020EFF305807047000083
:100260000648804706480047FEE7FEE7FEE7FEE750
:10027000FEE7FEE7FEE7FEE7FEE7FEE7C51400083F
:10028000890100082DE9F05F0546002092469B4653
:1002900088460646814640241BE02846414647469C
:1002A000224600F01EFA53465A46C01A914110D316
:1002B00011461846224600F005FA2D1A67EB010890
:1002C0004F4622460120002100F0FCF917EB0009FF
:1002D0004E41201EA4F10104DFDC484631462A4687
:1002E0004346BDE8F09F40EA01039B0703D009E0C5
:1002F00008C9121F08C0042AFAD203E011F8013B12
:1003000000F8013B521EF9D27047D2B201E000F86A
:10031000012B491EFBD270470022F6E710B51346A9
:100320000A4604461946FFF7F0FF204610BD421C5E
:1003300010F8011B0029FBD1801A70472DE9FE4FF0
:10034000804681EA0300C00F0C46009021F0004176
:1003500023F00045B8EB0200A94105D240462146F2
:1003600090461C460B46024623F00040104347D0FF
:10037000270DC7F30A00C3F30A510290401A0190F7
:1003800040286BDAC3F3130040F4801B00989246B8
:1003900020B10023D2EB030A63EB0B0B0198594603
:1003A000C0F14002504600F08DF906460D46504619
:1003B0005946019A00F0A5F910EB080061410024AC
:1003C00087EA115284EAE7731A4340D0009A62B375
:1003D000019A012A4FEA075215DC001B61EB02016A
:1003E0004FF0004202EA0752CDE90042001C41F5FD
:1003F000801132462B4600F0A5F903B0BDE8F08F1E
:1004000040462146F9E7001B61EB0201001C41F563
:10041000801300185B412018A2F5001747EB030179
:1004200040EAD570B6196D4111E06D084FEA360605
:1004300045EAC0754FEA0752001B61EB0201001C40
:1004400041F5801149084FEA300000195141324608
:100450002B4603B0BDE8F04F00F065B900980122CB
:1004600040000023D0EB020263EBE07300982146CA
:100470004FEAE074B8EB000061EB0401E9E783F0B8
:1004800000435BE781F0004158E72DE9FE4F81EA28
:10049000030404F0004421F0004100944FF0000BED
:1004A00023F0004350EA01045ED052EA03045BD01B
:1004B000C3F30A54C1F30A552C44A4F2F334019453
:1004C000A0FB0254C1F3130141F48011C3F31303E1
:1004D00043F4801301FB024400FB034E840A970A95
:1004E00044EA815447EA8357A4FB076802958D0AC2
:1004F00005FB07854FEA932C04FB0C542705029D4E
:100500004FEA065847EA1637B5EB08056EEB070CBD
:10051000870E920E47EA811742EA8312A7FB020177
:10052000B6EB0B0164EB00042B0D43EA0C335E18B1
:1005300044EB1C50DA465146E7FB0201C5F31304B5
:100540004FEA0B3343EA14534FEA0432019C43EA67
:100550000603A4F10C040294009CCDE900B400F061
:10056000F1F803B0BDE8F08F00200146F9E72DE96E
:10057000F04D81EA030404F0004B21F000451446DD
:100580004FF0000A23F0004150EA050220D054EA5F
:1005900001021DD0C5F30A570246C5F31303C1F388
:1005A0001300C1F30A5640F4801543F48013A7EBFF
:1005B0000608101BD64608F2FD3873EB050002D37F
:1005C00008F1010801E092185B41B8F1000F03DA6D
:1005D00000200146BDE8F08D00204FF48011064652
:1005E00084460EE0171B73EB050705D3121B63EB64
:1005F000050306434CEA010C49084FEA3000921803
:100600005B4150EA0107EDD152EA030012D082EAC1
:10061000040083EA0501084305D0101BAB4106D254
:100620000122002306E000224FF0004302E06FF0B9
:10063000010253101AEB06004CEB085110EB0A00B4
:1006400041EB0B01BDE8F04D00F06DB80EB540F286
:10065000334102910021CDE900110A460B4600F01A
:1006600071F803B000BD000030B5041E71F1000444
:1006700004DB4FF00044404264EB0101141E73F1AF
:10068000000405DB1C464FF00043524263EB0403B9
:10069000994208BF904230BD30B50B46014600205C
:1006A0002022012409E021FA02F59D4205D303FA34
:1006B00002F5491B04FA02F52844151EA2F10102B5
:1006C000F1DC30BD202A04DB203A00FA02F10020E0
:1006D00070479140C2F1200320FA03F31943904080
:1006E0007047202A04DB203A21FA02F000217047EB
:1006F00021FA02F3D040C2F120029140084319468A
:100700007047202A06DBCB17203A41FA02F043EA71
:10071000E07306E041FA02F3D040C2F120029140BA
:1007200008431946704710B5141E73F1000408DA27
:10073000401C41F1000192185B411A4301D120F0A5
:10074000010010BD2DE9F04D92469B4611B1B1FA62
:1007500081F202E0B0FA80F220329046FFF7B2FF59
:1007600004460F4640EA0A0041EA0B0153465A4646
:10077000084313D0114653EA010019D0C8F14002D2
:100780005046FFF7AEFF05460E46504659464246D4
:10079000FFF798FF084305D0012004E020463946C2
:1007A000BDE8F08D0020054346EAE0762C43374350
:1007B0000A986305E40AA0EB08000022FD0A44EA57
:1007C00047540A3002D500200146E9E70105101917
:1007D0006941DDE9084500196941BDE8F04DA2E72E
:1007E000C1F30A52C1F3130140F2FF3341F4801107
:1007F0009A4202DA00200146704740F233439A429F
:10080000A2F2334202DC5242FFF76BBFFFF75ABF3E
:10081000064C074D06E0E06840F0010394E807004D
:1008200098471034AC42F6D3FFF7B2FC40330008CF
:1008300060330008FEE7704790F83510022903D0B6
:100840008021416501207047052180F8351000683E
:10085000016821F001010160002070472DE9F84F87
:1008600000224FF0010803254FF00F0E0B6808FA25
:1008700002F42340A3426ED14E68012E05D0022E11
:1008800003D0112E01D0122E12D186684FEA420CED
:1008900005FA0CF7BE43CF6807FA0CF737438760B9
:1008A0004668A6430C79C4F3001494403443446072
:1008B000C668570005FA07FC8C6826EA0C06BC409F
:1008C0003443C4604C68022C01D0122C13D1D408DC
:1008D00000EB8404A346D4F8209054074FEAD46A6E
:1008E0000EFA0AF629EA06090E6906FA0AF646EA37
:1008F0000906CBF8206006680C7926EA0C0604F09D
:100900000304BC40344304604C68E40065D5364CB5
:10091000266846F480462660246822F0030604F424
:1009200080440094314C3444A446D4F808489607D7
:10093000370F0EFA07F6B4432D4EB04201D1002610
:1009400024E02C4EB04201D101261FE02A4EB042D5
:1009500002D102261AE040E0284EB04201D103261F
:1009600014E0274EB04201D104260FE0254EB042DC
:1009700001D105260AE0244EB04201D1062605E049
:10098000224EB04201D1072600E00826BE40264391
:10099000CCF808681E4E34684F689C43FF0300D5AE
:1009A0001C4334601A4C241D26684F689E43BF03C5
:1009B00000D51E432660164E083634684F689C43A7
:1009C000FF0200D51C433460114E0C3634684F686A
:1009D0009C43BF0200D51C433460521C102AFFF414
:1009E00045AFBDE8F88F00004438024000300140B8
:1009F000000002400004024000080240000C0240D7
:100A0000001002400014024000180240001C024086
:100A1000003C014001488068704700001800002039
:100A200002488168027811448160704718000020F4
:100A30000B4810B5016841F400710160016841F490
:100A400080610160016841F480710160032000F061
:100A500073F80F2000F006F800F024F8002010BD15
:100A6000003C024070B50D4D04464FF47A71287871
:100A7000B1FBF0F00A490968B1FBF0F000F008FBA7
:100A800048B9102C07D200222146501E00F034F83D
:100A900000206C6070BD012070BD000018000020B7
:100AA000240000200C4882B0016841F480410160BC
:100AB000006800F4804000900748001F016841F082
:100AC000805101600068002200F0805000900F21EA
:100AD000901E02B000F010B844380240002809DB34
:100AE00000F01F02012191404009800000F1E02048
:100AF000C0F8001170470000F0B40E4B1B680C46A4
:100B0000C3F30223C3F10705042D00D90425191DE1
:100B1000072901D2002300E0DB1E012606FA05F1B9
:100B2000491E214099409E40761E16403143F0BC3C
:100B300000F04ABE0CED00E0064900F0070208682C
:100B40004FF6FF03184040EA0220034A10430860B2
:100B5000704700000CED00E00000FA052DE9F047B9
:100B60000E46050065D0DFF81481D8F80000F7B212
:100B700000F00F00B04207D288F80070D8F80000EB
:100B800000F00F00B04254D128683D4C810712D5C7
:100B9000400703D5206840F4E05020602878000723
:100BA00003D5206840F4604020602068A96820F0E8
:100BB000F000084320602878C0072DD030496868CD
:100BC0000839012812D0022813D0032811D009684F
:100BD000890700292DDA216821F0030101432160F2
:100BE000FFF718FF814641F2883A0EE00968890351
:100BF000EFE709688901ECE7FFF70CFFA0EB0901BB
:100C0000514502D90320BDE8F0872068696800F0EB
:100C10000C00B0EB810FEFD1D8F80010404601F086
:100C20000F01B14207D90770006800F00F00B04211
:100C300001D00120E7E72878400705D52068E9685A
:100C400020F4E050084320602878000706D520688B
:100C5000296920F4604040EAC100206000F038F8C3
:100C60002168084AC1F30311515CC8400649086075
:100C700006480068FFF7F6FE0020C4E7003C02408B
:100C80000838024028330008240000201C000020FF
:100C90000448054900680968044AC1F38221515C8F
:100CA000C84070472400002008380240383300084C
:100CB0000448054900680968044AC1F34231515C9F
:100CC000C84070472400002008380240383300082C
:100CD000154810B5006810F00C02144813D01449E0
:100CE000042A0FD0082A0ED10F4C241F2268236833
:100CF00002F03F025B0207D52068C0F38810A0FB1A
:100D0000010106E0084610BD2168C1F38811A1FB6E
:100D100000010023FFF7B6FA2168C1F30141491C25
:100D20004900B0FBF1F010BD083802400024F40087
:100D300040787D012DE9F84F04006ED02078DFF86F
:100D40003C93C007A9F104054AD009F104000168E9
:100D5000C1F38101012908D00068C0F38100022895
:100D60000AD1D9F80000400206D52868800337D59B
:100D700060680028E1D033E06068B0F5803F10D0B3
:100D8000B0F5A02F286810D020F4803028602868A3
:100D900020F4802028606068A8B1FFF73BFE06467B
:100DA0000DE0286840F48030F4E740F480202860AB
:100DB000F7E700BFFFF72EFE801B642873D8286872
:100DC0008003F7D50CE0FFF725FE064605E000BFDF
:100DD000FFF720FE801B6428F0D828688003F7D432
:100DE0002078DFF89C8280074FF0000A3ED5A348A8
:100DF000001D016811F00C0F08D00068C0F38100DD
:100E000002280BD1D9F80000400207D428688007D7
:100E100016D5E068012800D112E02BE1E068B8B1F6
:100E20000120C8F80000FFF7F5FD064605E000BF09
:100E3000FFF7F0FD801B0228C0D828688007F7D58F
:100E40002868216920F0F80040EAC10028600DE020
:100E5000C8F800A0FFF7DEFD064604E0FFF7DAFD64
:100E6000801B02281FD828688007F7D42078000745
:100E700022D5824E83486169703671B101210160CB
:100E8000FFF7C8FD074604E0FFF7C4FDC01B0228BA
:100E900009D830688007F7D50EE0C0F800A0FFF74A
:100EA000B9FD074605E082E0FFF7B4FDC01B02284C
:100EB0007DD830688007F7D42078400768D5DFF800
:100EC000BCB100270BF13C0BDBF80000C0000BD4D9
:100ED000DBF8001041F08051CBF80010DBF8000087
:100EE000012700F080500090674E3068C00510D494
:100EF000306840F480703060FFF78CFD009005E0B2
:100F0000FFF788FD0099401A022850D83068C005C4
:100F1000F6D55A4EA0686C3601280FD005283068E7
:100F200010D020F001003060306820F00400306004
:100F3000A068B8B1FFF76EFD00900FE0306840F098
:100F40000100F4E740F004003060F7E7FFF762FDCE
:100F50000099411A41F28830814266D83068800792
:100F6000F4D50EE0FFF756FD009007E0FFF752FDC5
:100F70000099411A41F28830814256D83068800782
:100F8000F4D42FB1DBF8001021F08051CBF8001021
:100F9000A069C8B33949091D0968C1F38101022953
:100FA0004AD00228504607D0C8F8600000E03CE074
:100FB000FFF730FD04463BE04746C8F86000FFF706
:100FC00029FD064605E000BFFFF724FD801B02282F
:100FD0002BD828688001F7D4D4E907010843A16A17
:100FE0002A4A490802EB0141626A41EA8211084338
:100FF00094F82C1040EA0161C9F80010012038660D
:10100000FFF708FD044606E036E000BFFFF702FDEB
:10101000001B022809D828688001F7D52CE000BF02
:10102000FFF7F8FC001B022802D90320BDE8F88F67
:1010300028688001F4D41FE00128F7D0D9F8000017
:10104000E26900F48001914214D1226A00F03F016C
:1010500091420FD147F6C071626A0140914209D1B5
:10106000A26A00F44031914204D1E16A00F070605C
:10107000884201D00120D9E70020D7E70438024098
:1010800000004742800E4742007000400000FFFF12
:1010900010B5401EB0F1807F01D3012010BD4FF08C
:1010A000E02460610F21601700F08EFB0020A0613A
:1010B00007202061002010BD7047000070B5026855
:1010C00004461068D168536910F00F0F52D003F036
:1010D000010501F490762E435FD0C20705D0CA0502
:1010E00003D5E26B42F00102E263420705D5DA075D
:1010F00003D0E26B42F00202E263820705D5DA0711
:1011000003D0E26B42F00402E263020707D501F06C
:1011100020022A4303D0E26B42F00802E263E26B52
:10112000002A33D0800604D5880602D5204600F078
:10113000F3F920684069E16BC0F38010090700D41F
:1011400028B3204600F0DAF92068416949061AD52B
:10115000416921F040014161606BA0B11B4901650B
:10116000606BFFF769FB002810D0606B016DBDE874
:1011700070400847830610D58B060ED52046BDE883
:10118000704000F0C9B92046FFF796FF70BD2046B9
:10119000FFF792FF0020E06370BD030606D50B0643
:1011A00004D52046BDE8704000F096BA4006F3D55D
:1011B0004806F1D5D168204621F04001D1602021B8
:1011C00084F8391000F02FF970BD0000ED1400080C
:1011D00070B5040004D094F83900002510B106E081
:1011E000012070BD84F83850204600F023F82420F8
:1011F00084F839002068C16821F40051C16020469C
:1012000000F0D6F92068016921F49041016120685D
:10121000416921F02A0141612068C16841F400510F
:10122000C160E563202084F8390084F83A0000208A
:1012300070BD000010B586B0044614216846FFF763
:101240006BF817492068884227D11648016841F495
:1012500000210160006800F400200590114810385A
:10126000016841F0010101600068022100F0010005
:1012700005900320CDE900010121CDE902100820ED
:10128000049069460848FFF7E9FA00220521342056
:10129000FFF732FC3420FFF721FC06B010BD000040
:1012A000004C004040380240000002402DE9F84365
:1012B000044690F83A00994616460D46202852D129
:1012C000BDB1B6B194F8380001284CD0012084F8A3
:1012D00038000027E763222084F83A002C34FFF717
:1012E00099FB24F8026B804624F80A6B04F83879DD
:1012F00031E00120BDE8F883E08D401EE085A06864
:101300004346B0F5805F4FF000024FF020012046C9
:10131000CDF8009004D000F010FA98B10320E9E76E
:1013200000F00BFA0028F9D12069002820684068F5
:1013300003D0C1B225F8011B0DE0C0F3080125F868
:10134000021B08E0206900282068406801D000F0F6
:101350007F0005F8010BE08D0028CDD1202084F816
:101360003A000020C6E70220C4E770472DE9F843A1
:10137000044690F839001F4616460D46202850D1E5
:10138000B5B1AEB194F8380001284AD0012084F8F4
:1013900038004FF00008C4F83C80212084F8390060
:1013A000FFF738FBA6848146E68484F8388026E07F
:1013B0000120BDE8F883E08C401EE084A0684B4625
:1013C000B0F5805F4FF000024FF08001204600979B
:1013D00003D000F0B2F9E8B90DE000F0AEF9C8B9F9
:1013E00028882168C0F308004860206908B16D1C96
:1013F00005E0AD1C03E0216815F8010B4860E08CA6
:101400000028D8D14B46002240212046009700F00A
:1014100094F908B10320CCE7202084F8390000209B
:10142000C7E70220C5E77047FEE7FEE7FEE710B515
:10143000FFF7F6FA01F01EFE012803D0BDE81040C8
:1014400001F0E6BB10BD000010B592B03021684637
:10145000FEF762FF14210CA8FEF75EFF1748002478
:10146000016841F080510160006800F080501190E7
:101470001348016841F4804101600068069400F45B
:1014800080401190022000900120039010200490D1
:101490006846FFF74FFC08B172B6FEE70F20CDE9B2
:1014A0000C040E940F9400210CA81094FFF756FB27
:1014B000002801D072B6FEE712B010BD40380240DD
:1014C000007000400548016841F470010160034963
:1014D0004FF00060803908607047000088ED00E040
:1014E0000148FFF7EBBD00008800002010B5806BBD
:1014F0000021C185C184FFF7DFFD10BD0168CA6806
:1015000022F49072CA6001684A6922F001024A61BD
:10151000202180F83A10704710B590F83A1022292F
:1015200001D0022010BD8168B1F5805F11D0016942
:10153000002901681FD0496801F07F03816A4A1CB5
:1015400082620B70C18D491E0904090CC18518D037
:101550002BE00269816A002A0268526805D0D2B283
:101560000A80816A491C8162ECE7C2F308020A80A2
:10157000816A891CF7E74A68816A4B1C83620A709A
:10158000E0E70168CA6822F02002CA600168CA6800
:1015900022F48072CA6001684A6922F001024A613D
:1015A000202180F83A10FFF7E0FE002010BD000077
:1015B0002DE9F041044600680169E26821F44051D8
:1015C000114301612169A068E2690843616911431F
:1015D00008432168CA6849F20C639A430243CA600F
:1015E00020684169A26921F4407111434161E069B9
:1015F000192764253226B0F5004F354A3549206851
:101600004FF0000806D0884201D0904236D1FFF753
:101610004FFB35E0884201D0904202D1FFF748FBF2
:1016200001E0FFF735FB61684A18A0FB070148EBB2
:101630000803FEF727FE0146B0FBF5F00201B1FBFF
:10164000F5F06FF01803584301EB800006EBC00083
:10165000B0FBF5F000F0F80002EB4002B1FBF5F052
:10166000584301EB800006EBC000B0FBF5F000F042
:101670000700216810448860BDE8F081FFF708FB8F
:1016800061688B0F8A00A0FB0701FEF7FBFD014696
:10169000B0FBF5F06FF01802504301EB800006EB51
:1016A0000010B0FBF5F000F0F002B1FBF5F002EB3A
:1016B0000012B1FBF5F06FF01803584301EB800006
:1016C00006EB0010B0FBF5F000F00F00D1E70000D2
:1016D000001401400010014090F83910212901D078
:1016E000022070478168B1F5805F016A0BD04A1C07
:1016F0000262026809785160C18C491E0904090C14
:10170000C1840ED017E009880268C1F30801516056
:1017100001690029016A02D0491C0162ECE7891CB9
:10172000FBE70168CA6822F08002CA600068C168ED
:1017300041F04001C160002070472DE9F04198461A
:1017400017460E460446069D1DE0681C1BD02DB1B1
:10175000FFF760F9A0EB0800A84214D92068C1681F
:1017600021F4D071C1602068416921F0010141611B
:10177000202084F8390084F83A00002084F83800EA
:101780000320BDE8F0812068006836EA000004D03C
:101790000020B842D9D00020F3E70120F9E7FEE7A6
:1017A0000FB4084B10B504A902AA039800F0EEF894
:1017B000044602A9002000F06CFC204610BC5DF835
:1017C00014FB0000932000080907090E002804DB21
:1017D00000F1E02080F80014704700F00F0000F1E5
:1017E000E02080F8141D704702E008C8121F08C1ED
:1017F000002AFAD170477047002001E001C1121F92
:10180000002AFBD1704700002DE9FF5F82B0002164
:10181000DDE90430020DDDF840B0034318D044F692
:101820001050A2F2FF3242431514119801281FD024
:10183000A5EB0B00401C5FEA000A4FF000064E4F7C
:10184000DFF83891B046504615D5CAF1000413E0D0
:10185000119801244AA3012801D16FEA0B010298D3
:10186000119AC0E90031C0E9024206B0BDE8F09F1C
:10187000CBF10000DFE704460021404A491842EB63
:101880000450CDE9001012E0E00707D032463B4695
:1018900040464946FEF7F9FD8046894632463B46BA
:1018A00010461946FEF7F1FD06460F466410002C5F
:1018B000EAD1DDE90401DDE90023BAF1000F06DA1F
:1018C000FEF7E3FD42464B46FEF7DFFD05E0FEF77F
:1018D0004EFE42464B46FEF74AFE04460E460022A6
:1018E000284BFEF7C1FE03D84FF0FF30014607E05A
:1018F0000022254B20463146FEF720FDFEF770FF03
:10190000102409E0002C0ADB0A220023FEF7BAFCAF
:10191000039B30321A55641E50EA0102F2D1641C56
:10192000039AC4F111031444119A012A03D001222D
:1019300008430DD10AE0084304D000204FF0110BFA
:10194000119072E7A3EB0B056D1E0DE05B4504DD06
:101950004FF0000205F1010504E003DA4FF0000248
:10196000A5F10105002AECD002981199C0E90231D5
:10197000C0E9004579E70000000014400000F03F96
:10198000300000000000F0430000E03F2DE9FF4F71
:1019900095B09A46884606460025EEE1252877D17F
:1019A00000242746F94A0121039400E0044316F875
:1019B000013F203B01FA03F01042F7D130782A288A
:1019C00011D06FF02F033078A0F13002092A16D819
:1019D000039A44F0020402EB820203EB4202104439
:1019E000761C0390EFE758F8042B0392002A03DAE1
:1019F000504244F40054039044F00204761C3078C2
:101A00002E2816D116F8010F44F004042A280DD010
:101A10006FF02F023078A0F13003092B09D807EBC3
:101A2000870302EB4303C718761CF3E758F8047BDF
:101A3000761C30786C280FD006DC4C2817D068282C
:101A40000DD06A2814D104E0742810D07A280FD160
:101A50000DE044F400140AE044F4801401E044F47E
:101A600040147278824202D104F58014761C761CF0
:101A7000307866280BD013DC582877D009DC002892
:101A800075D04528F6D04628F4D047281AD193E1DE
:101A900018E0632835D0642879D0652812D18BE10D
:101AA000702873D008DC6728F1D069286FD06E28C1
:101AB0000DD06F2806D1ACE073282CD0752874D0D7
:101AC000782853D05246179990476D1C54E1C4F3BF
:101AD0000250022809D003280DD0D8F8001004289D
:101AE0000DD00D6008F1040846E1D8F80010EA179F
:101AF000C1E90052F6E7D8F800100D80F2E70D704A
:101B0000F0E718F8041B8DF8001000208DF8010094
:101B1000EB46012003E058F804BB4FF0FF306107AB
:101B20004FF0000102D40DE009F101018946B942EC
:101B30000FDA8145F8DB1BF809100029F4D108E021
:101B400009F1010189468142FADB1BF809100029DD
:101B5000F6D103985346A0EB090721463846179A59
:101B600000F080FA284400EB090507E044E008E1B2
:101B70000DE01BF8010B524617999047B9F1010986
:101B8000F7D2534621463846179AF2E039E00A2147
:101B9000C4F302524FF0000B0091022A06D058F80D
:101BA000040BC117032A09D00AE023E008F107005B
:101BB00020F00702F2E80201904605E000B2C117EA
:101BC000042A01D140B2C117002906DA0A460021D1
:101BD000404261EB02012D2202E0220504D52B22B6
:101BE0008DF80420012203E0E20701D02022F7E76C
:101BF000914657E00A2100E010214FF0000B0091C0
:101C00000BE010214FF0000B44F004040827009172
:101C100003E008204FF0000B0090C4F30252022AA8
:101C200005D058F8040B0021032A08D008E008F179
:101C3000070020F00702F2E80201904603E080B2BC
:101C4000042A00D1C0B24FF0000922072AD5327809
:101C5000702A07D0DDF800C08CF0100C5CEA0B0C89
:101C600005D00EE040228DF80420012208E050EA61
:101C7000010306D030238DF804308DF805200222B0
:101C80009146009B83F0080353EA0B030AD150EA04
:101C9000010201D1620705D530228DF804204FF0F2
:101CA00001097F1E3278582A04D039A20C920CAA5E
:101CB00002920BE03BA2F9E75B46009AFEF7E2FADC
:101CC0000C9B9B5C029A521E0292137050EA010216
:101CD000F2D1029804A9081A00F1200B600702D57E
:101CE00024F4803400E001275F4502DDA7EB0B0000
:101CF00000E0002000EB0B01009003984944401ADB
:101D00000390E00306D453462146179A039800F047
:101D1000A9F90544002706E001A85246C05D1799BD
:101D200090476D1C7F1C4F45F6DBE0030CD55346F6
:101D30002146179A039800F095F9054404E03020F5
:101D40005246179990476D1C0099481E0090002933
:101D5000F5DC08E00298029952460078491C02918D
:101D6000179990476D1CBBF10001ABF1010BF1DC41
:101D70005BE100F065F90544761C307800287FF4BB
:101D80000DAE19B02846BDE8F08F0000092801000B
:101D900030313233343536373839616263646566E1
:101DA00000000000303132333435363738394142A3
:101DB0004344454600000000600700D4062708F1B0
:101DC000070020F00700F0E80223804603F0004CF3
:101DD0005FEA0C0001D097A009E0200501D596A08C
:101DE00005E0E00701D095A001E0AFF24C001390B0
:101DF000307823F0004365280CD006DC452809D054
:101E000046281DD047287FD13BE0662818D0672898
:101E10007AD136E00021112F01DB112000E0781C7F
:101E2000CDE9000104A90CA8FFF7EEFCDDE90D01E6
:101E30000C9A4FF0000B07F10109109200914EE04F
:101E40004FF000400097CDE9011004A90CA8FFF75E
:101E5000DBFCDDE90D020C9B0F994FF0000B914666
:101E60001093009211B9791C00EB0109B7EB09003E
:101E700003D4C0F1FF3B07F10109A9EB0700019072
:101E800042E0012F00DA01270021112F01DD11208E
:101E900000E03846CDE9000104A90CA8FFF7B4FC26
:101EA000DDE90D010C9A00914FF0000BB94610923C
:101EB00021070FD4009A4A4503DA914601E0A9F1BF
:101EC0000109B9F1010F05DD109AA9F10101515C79
:101ED0003029F4D0B84202DA10F1040F03DA0121FC
:101EE000CDE9011010E0002803DC8344A9EB0001D8
:101EF00002E0411C494500DD8946A0EB0B00401C77
:101F000001904FF000400290200705D40198484509
:101F100002DB4FF0FF30019000208DF84B0002985B
:101F20000DF14B07B0F1004F25D002200C902B2073
:101F30000D90029800280CDA404202902D200D905E
:101F400007E00A210298FEF7A7FB3031029007F85C
:101F5000011D0C99481E0C900029F2DC0298002803
:101F6000EFD1791E0D980870307800F0200040F015
:101F7000450007F8020D11A8C01BC01D0290139860
:101F8000007800B1012000EB0901019801EBE0713C
:101F9000029801440398401A401E0390E00306D4BF
:101FA00053462146179A039800F05CF805441398AD
:101FB000007818B15246179990476D1CE00323D55D
:101FC00053462146179A039800F04CF805441BE04D
:101FD000BBF1000F07DB0098584504DD10981799F6
:101FE00010F80B0001E017993020524690470198F5
:101FF0000BF1010B401E05F10105019004D12E20CB
:102000005246179990476D1CB9F10001A9F10109D9
:10201000DEDC05E017F8010B5246179990476D1C5E
:102020000299481E02900029F4DC53462146179A73
:1020300003989EE62D0000002B0000002000000009
:102040002DE9F041044600251E461746880404D4B5
:1020500005E039462020B0476D1C641EF9D528469E
:10206000BDE8F0812DE9F041044600251E4690466A
:10207000C80301D5302700E02027880404D505E0F7
:1020800041463846B0476D1C641EF9D52846BDE868
:10209000F0810A68531C0B6010707047114C08B532
:1020A000206840F480302060606920F480706061B6
:1020B00001260D4D4FF0FF380027424669466869FA
:1020C00000F0D4FE9DF80000012807D08DF80060D4
:1020D000606920F4807060612F70EEE7606940F401
:1020E0008070F8E70000024000000020164810B59C
:1020F000816841F08041816001688907FCD5C06C2E
:10210000FEF7A4FA9FED111B53EC112BFEF7BDF95E
:102110009FED101B53EC112BFEF729FA9FED0F1BBF
:1021200053EC112BFEF7ABF99FED0E1B53EC112B6B
:10213000FEF71DFA9FED0D1B53EC112BFEF7FEF879
:1021400041EC100B10BD0000002001406666666681
:1021500066660A400000000000FEAF4052B81E85CF
:10216000EB51E83F7B14AE47E17A643F000000008A
:10217000000039400B48016841F4807101600A4851
:10218000002181604FF48021C160D0F8041341F434
:102190000001C0F8041310214163816841F001017E
:1021A0008160704744380240002001401CB5FEF7B2
:1021B0003FFCFFF749F926480021026842F001027E
:1021C00002600068234A00F001000090224802608B
:1021D0004FF41652C0E901210C22C160C0E904127B
:1021E0008161C161FEF7F4FF08B172B6FEE71B48DA
:1021F0000524CDE900404FF4807500232A4618A13C
:102200001A4800F009FF15480023001DCDE90040E1
:102210002A4617A11A4800F0FFFE10480023083094
:10222000CDE900402A4617A11B4800F0F5FE012128
:102230000022084600F002FD084C0121241F002264
:102240002061084600F0FAFC606100F067FCFEE7E0
:1022500030380240004C004088000020040000207C
:102260004D61696E5F5461736B0000009D22000830
:1022700075617274436F6E74726F6C6C657200007E
:102280003528000862757A7A6572436F6E74726FD2
:102290006C6C6572000000009D2000082DED028B23
:1022A0008AB01E2000278DF824008DF82070FFF7DB
:1022B00061FF7E1E154C0125324609A9206900F0F8
:1022C000D5FDFFF713FFB0EE408AF0EE608A53ECC5
:1022D000182B0FA16846FFF763FA684600F09AFAD8
:1022E0009DF82400FEF7B2F953EC182BFEF7BCF969
:1022F00002D28DF8205001E08DF820700023324684
:1023000008A9606900F002FD2570D5E700000020F3
:102310000D0A54656D70657261747572653A202599
:10232000660000002DE9F041184C0F46054666692D
:102330002068001D00F0DCFA38B9206890F82C10F5
:1023400001208840A1698143A161681C07D137B190
:102350002168BDE8F0410E48091D00F002BB20686D
:102360003544B5424560216805D2A068BDE8F0411A
:10237000091D00F0DEBA6068091D00F0DAFA206B72
:10238000854200D22563BDE8F081000028000020CE
:10239000A40100202DE9F041054600F0EFFA2E4C93
:1023A0002069401C206120682C4F10B1E06940B3C7
:1023B0002DE025602069012829D1002606EB860042
:1023C00007EB800000F0A7FA761C072EF6D323480F
:1023D0008C3000F0A0FA2148A03000F09CFA1F4891
:1023E000B43000F098FA1D48C83000F094FA1B4849
:1023F000DC3000F090FA19488C3060601430A06036
:1024000005E02068E96AC06A884200D82560E06A71
:10241000401CE062E96A0120A26988401043A06183
:1024200001EB810007EB8000291D00F09AFA00F013
:10243000C5FAE06900280CD02068E96AC06A8842C1
:1024400007D207494FF080500860BFF34F8FBFF3AA
:102450006F8FBDE8F081000028000020C800002038
:1024600004ED00E030B4026C0B46002A0BD0C168CA
:102470001144C1608468A14201D30168C16030BCCD
:102480001846FDF730BF30BC70472DE9F041856B31
:10249000174604460026026C82B1C7B1E068FDF71A
:1024A00022FFE168206C091AE1602268914202D2A1
:1024B000A168081AE060022F16D017E02068A8B9BA
:1024C000A06800F049FE06460020A0600EE06068AB
:1024D000FDF709FF216C606808446060A1688842CC
:1024E00004D32068606001E005B16D1E6D1CA5631A
:1024F0003046BDE8F081000010484FF470514207AB
:1025000006D0C01D0D4920F00700411AC1F57051D9
:102510000B4A00230144C2E900030839103A21F0B4
:10252000070111604B600B600B1AC0E90013936048
:102530004FF000405360D06070470000B8010020A9
:10254000740000200346009829B10260C0E90F31F1
:10255000012100F097BB0060F8E72DE9F0479A46AB
:10256000DDE9098481466FF00303206B03EB8202EF
:102570001044089E20F00707780707D0502080F30A
:102580001188BFF34F8FBFF36F8FFEE7002561B156
:10259000002023180A5C83F834200A5C12B1401C26
:1025A0001028F6D384F8435001E084F83450072E05
:1025B00000D30626E662C4E91165201D00F0B6F9D5
:1025C00004F1180000F0B2F92461C6F1070064625A
:1025D000A061E56484F8505052464946384600F000
:1025E00003F92060B8F1000F01D0C8F80040BDE841
:1025F000F087000030B5114900E011460A688242B8
:10260000FBD34B685C18844203D14068184448608F
:10261000084643681C18944209D1084C103C2468B1
:10262000A24209D052681A4442600A6812680260E5
:10263000814200D0086030BD0460F9E774000020DA
:1026400010B5044600F09AF9A06B28B15FF00004C1
:1026500000F0B4F9204610BD0124F9E706484168AE
:10266000096829B14168C968C96849680163704748
:102670004FF0FF31FAE700002800002008484068CA
:10268000401C4FF0500080F3118804D0BFF34F8FEF
:10269000BFF36F8FFEE7BFF34F8FBFF36F8FFEE780
:1026A0007C0000202DE9F041044600F067F994F920
:1026B000455004F1240609E0606A48B1304600F054
:1026C00097FD08B100F0D6F96D1E6DB2002DF3DC58
:1026D0004FF0FF3684F8456000F070F900F04EF9D5
:1026E00094F9445004F1100709E0206948B13846D4
:1026F00000F07EFD08B100F0BDF96D1E6DB2002D39
:10270000F3DC84F84460BDE8F04100F057B9000004
:102710002DE9F0410546002700F0CAF9314E306836
:1027200008B9FFF7E9FEF06805424BD1C5B308359B
:1027300068070ED005F00700C0F1080005446807DF
:1027400007D0502080F31188BFF34F8FBFF36F8FF6
:10275000FEE72DB37068854234D822481030014618
:102760000C6801E020460C466168A94202D221684B
:102770000029F7D131688C4224D0076821680160B4
:1027800060680837411B10290FD96019420708D02B
:10279000502080F31188BFF34F8FBFF36F8FFEE798
:1027A00010E041606560FFF725FF61687068401ABE
:1027B0007060B268904200D2B060F06801430020BF
:1027C000C4E9000100F04EFD780707D0502080F3E7
:1027D0001188BFF34F8FBFF36F8FFEE73846BDE818
:1027E000F08100006400002010B5031F4FF08074DA
:1027F0001C601B1F21F001011960191F044B0B60A5
:1028000014390A60091F6FF0020244380A6010BDD3
:102810007D26000810B50446FDF789FD214682B2E9
:10282000BDE810404FF4FA630148FEF79FBD000079
:10283000880000201CB5174C174F4FF0FF356FF084
:102840002F084FF08056207800281DD113A0FFF7E5
:10285000E1FF2B46022269461B48FEF727FD1BA01D
:10286000FFF7D8FF9DF800009DF80110303800EB0D
:10287000800208EB420008448DF8040000232A4639
:1028800001A9206900F042FA3E60BFF34F8FBFF309
:102890006F8FD8E70000002004ED00E00D0A456EC0
:1028A0007465722054656D7065726174757265200F
:1028B000536574506F696E7420286465677265652E
:1028C00073293A2000000000880000200D0A54659A
:1028D0006D706572617475726520536574506F69AF
:1028E0006E74206368616E6765642E2E2E00000092
:1028F000D0E9013201699A60D0E901235A604A683F
:10290000824201D182684A60002202610868401E4A
:1029100008600868704700F108014FF0FF32C0E915
:102920000112C16001610021016070470021016155
:10293000704730B50B685A1C02D000F1080202E063
:10294000026904E02246546825689D42FAD953681A
:102950004B6099608A60516008610168491C0160A0
:1029600030BD42684A6093688B609368596091609B
:1029700008610168491C016070470000502080F325
:102980001188BFF34F8FBFF36F8F0A494868401C0F
:10299000486001280CD10848006810F0FF0F07D0EC
:1029A000502080F31188BFF34F8FBFF36F8FFEE786
:1029B000704700007C00002004ED00E008494868F2
:1029C00028B1401E486001D180F311887047502023
:1029D00080F31188BFF34F8FBFF36F8FFEE70000C6
:1029E0007C00002070B5002827D0144DA0F1080409
:1029F0006168E868014207D1502080F31188BFF375
:102A00004F8FBFF36F8FFEE722683AB1502080F3FB
:102A10001188BFF34F8FBFF36F8FFEE78143616073
:102A200000F046F860686968084468602046FFF76F
:102A3000E1FDBDE8704000F015BC70BD64000020F1
:102A40004FF0E02000210161816105494FF47A7265
:102A50000968B1FBF2F1491E41610721016170472C
:102A60002400002002498A6A026049694160704777
:102A700028000020014901204862704728000020FA
:102A800010B50C4650B1094909681831FFF751FFDC
:102A90002046BDE810400121FFF744BC502080F3E0
:102AA0001188BFF34F8FBFF36F8FFEE72800002020
:102AB0000248816B491C8163704700002800002098
:102AC0001448816B11B101214162704700214162BC
:102AD0008169B1FA81F1C1F11F0101EB81020E4957
:102AE00051F822306BB101EB820101F108034A6811
:102AF00052684A609A4201D152684A60D1680160C6
:102B00007047502080F31188BFF34F8FBFF36F8F52
:102B1000FEE7000028000020C80000201CB5374850
:102B20000168374A914207D1502080F31188BFF3E2
:102B30004F8FBFF36F8FFEE700683149491E88420F
:102B400007D1502080F31188BFF34F8FBFF36F8FF1
:102B5000FEE72C4908780190FF20087008788DF86E
:102B600000009DF800009DF8002000F0F000904269
:102B700007D0502080F31188BFF34F8FBFF36F8FC2
:102B8000FEE79DF80000204B00F050001870072071
:102B9000986005E09DF8002052008DF80020401E4E
:102BA0009DF800201206F5D49860032807D0502025
:102BB00080F31188BFF34F8FBFF36F8FFEE74FF4A1
:102BC00040709860019808700C482030016841F40A
:102BD00070010160016841F070410160FFF730FF52
:102BE00000205860FDF700FB0848016841F04041B3
:102BF0000160FDF7E5FA00201CBD000000ED00E0DB
:102C000071C20F4100E400E07C00002034EF00E0DE
:102C100010B5502080F31188BFF34F8FBFF36F8F33
:102C200000F036FA18B104494FF0805008600020D7
:102C300080F3118810BD000004ED00E0F8B51746E0
:102C40000E46050014D0DEB105FB06F04830FFF754
:102C50005FFD04000AD0002084F8460004F1480219
:102C60003B46314628460094FFF76CFC2046F8BDF1
:102C7000502080F31188BFF34F8FBFF36F8FFEE7B3
:102C80000020E3E770B50D46040025D0FFF776FE7F
:102C9000D4E90F20216802FB0011A1600021A1638B
:102CA000216861600A46D4E90F01401E00FB012142
:102CB000E16021464FF0FF3001F8440F487004F105
:102CC00010008DB1FFF727FE04F12400FFF723FE6B
:102CD000FFF774FE012070BD502080F31188BFF310
:102CE0004F8FBFF36F8FFEE721690029F0D000F00E
:102CF0007FFA0028ECD004494FF080500860BFF301
:102D00004F8FBFF36F8FE3E704ED00E02DE9FF473E
:102D100082B01D468A464FF00008040003D0BAF185
:102D2000000F08D011E0502080F31188BFF34F8FBF
:102D3000BFF36F8FFEE7206C38B1502080F311880D
:102D4000BFF34F8FBFF36F8FFEE7022D0AD1E06B09
:102D5000012807D0502080F31188BFF34F8FBFF3B5
:102D60006F8FFEE700F086F93F4F4FF000094FF0FC
:102D7000805648B9049838B1502080F31188BFF3C9
:102D80004F8FBFF36F8FFEE7FFF7F8FDA06BE16B8E
:102D9000884207D3022D05D00498D0B1B8F1000FB6
:102DA0001AD01EE02A4651462046FFF76EFB616AA4
:102DB00019B104F1240000F01BFA20B13E60BFF30A
:102DC0004F8FBFF36F8FFFF7F9FD012006B0BDE80D
:102DD000F087FFF7F3FD22E06846FFF743FE4FF070
:102DE0000108FFF7EBFDFFF763FEFFF7C7FD94F95E
:102DF0004400401C01D184F8449094F94500401CE3
:102E000001D184F84590FFF7D9FD04A9684600F088
:102E1000C9F830B12046FFF745FC00F023FA002046
:102E2000D4E7FFF7ABFDA06BE16B884213D1FFF74E
:102E3000C5FD04F110000499FFF722FE2046FFF7BC
:102E400031FC00F00FFA00289ED13E60BFF34F8F97
:102E5000BFF36F8F98E7FFF7B1FD2046FFF722FC25
:102E600000F000FA90E7000004ED00E02DE9F747DC
:102E7000002683B08A46040003D0BAF1000F08D0C0
:102E800011E0502080F31188BFF34F8FBFF36F8F95
:102E9000FEE7206C38B1502080F31188BFF34F8FCC
:102EA000BFF36F8FFEE700F0E5F8DFF8F4804FF036
:102EB00000094FF0805748B9059838B1502080F389
:102EC0001188BFF34F8FBFF36F8FFEE7FFF756FDFB
:102ED000A56BC5B151462046FFF7C4FA6D1EA56328
:102EE000206950B104F1100000F082F928B1C8F84F
:102EF0000070BFF34F8FBFF36F8FFFF75FFD0120AF
:102F000006B0BDE8F087059808B11EB106E0FFF7EE
:102F100055FD27E06846FFF7A5FD0126FFF74EFDAA
:102F2000FFF7C6FDFFF72AFD94F94400401C01D1CC
:102F300084F8449094F94500401C01D184F84590F0
:102F4000FFF73CFD05A9684600F02CF80028204654
:102F50000AD0FFF7A7FB00F085F92046FFF770FBCA
:102F60000028B3D00020CBE7FFF76AFB90B104F153
:102F700024000599FFF784FD2046FFF793FB00F03E
:102F800071F90028A2D1C8F80070BFF34F8FBFF3CA
:102F90006F8F9BE72046FFF785FB00F063F995E70D
:102FA00004ED00E02DE9F0410C46050011D0C4B15C
:102FB000FFF7E4FC174B5A696E682068911B471CA9
:102FC00017D02F689B6A9F4219D0964217D80124C8
:102FD00010E0502080F31188BFF34F8FBFF36F8F45
:102FE000FEE7502080F31188BFF34F8FBFF36F8F40
:102FF000FEE70024FFF7E2FC2046BDE8F0818842AE
:1030000005D9401A20602846FFF72CFDF1E7002083
:103010002060DCE7280000202DE9FF5F8346DDE922
:103020000E87994616468A469000FFF771FB050009
:103030001CD05420FFF76CFB040014D00020256343
:1030400084F85100CDE90240CDE900874B46324675
:1030500051465846FFF781FA2046FFF79BF90120B9
:1030600004B0BDE8F09F2846FFF7BCFC4FF0FF30EE
:10307000F6E700000548C16919B1806B18B100205E
:103080007047012070470220704700002800002090
:103090002DE9F0412E4C0027A06B40B1206A401C66
:1030A0002062606A00B101273846BDE8F081666998
:1030B000761C666113D16068006838B1502080F3D7
:1030C0001188BFF34F8FBFF36F8FFEE76068A16871
:1030D0006160A060A06A401CA062FFF7BFFA206B8D
:1030E000DFF87080864209D36068006880B160684C
:1030F000C068C568686886420DD220632068C06ACF
:1031000000EB800158F821000128CAD90127C8E73F
:103110004FF0FF30F1E7281DFFF7EAFBA86A18B16E
:1031200005F11800FFF7E4FBE86A0121A26981407C
:103130001143A16100EB800108EB8100291DFFF71D
:1031400010FCE86A2168C96A8842CDD30127CBE721
:1031500028000020C800002070B504004FF00001D6
:1031600040D0214D2868844207D0502080F3118838
:10317000BFF34F8FBFF36F8FFEE7A06C38B1401ED7
:10318000A064636CE26A9A422CD040B12AE05020DD
:1031900080F31188BFF34F8FBFF36F8FFEE7201DC1
:1031A000FFF7A6FB114A012150B9E06A00EB80034A
:1031B00052F8233023B9AB6901FA00F08343AB61C5
:1031C000606CE062C0F10700A061E06AAB69814019
:1031D0001943A96100EB800002EB8000211DFFF77D
:1031E000C0FB0121084670BD28000020C800002057
:1031F0002DE9F041C068C468ACB104F1180007467D
:10320000FFF776FB154DA86B0126A0B1394614488F
:10321000FFF7A7FBE06A2968C96A88421CD9012028
:103220006E62BDE8F081502080F31188BFF34F8FAC
:10323000BFF36F8FFEE7201DFFF75AFBE16AAA6913
:1032400006FA01F01043A86101EB81000449B4398A
:1032500001EB8000211DDBE70020E2E728000020D1
:103260007C0100202DE9F0472C4D00242746A86B57
:1032700038B1FFF783FBA86B401EA863A86B40B171
:1032800046E0502080F31188BFF34F8FBFF36F8F5C
:10329000FEE72969224E0120D1B3A6F1B409804688
:1032A0003068E8B1F068C46804F11800FFF720FB4B
:1032B000201DFFF71DFBE06AAA6908FA00F111431F
:1032C000A96100EB800109EB8100211DFFF749FB9B
:1032D000E06A2968C96A8842E2D3C5F82480DFE73A
:1032E0000CB1FFF7BBF92C6A44B14646FFF7D0FE9C
:1032F00000B16E62641EF9D100202862686A38B19C
:103300000849012738070860BFF34F8FBFF36F8F5D
:10331000FFF754FB3846BDE8F08700002800002086
:103320007C01002004ED00E000000000000000002F
:10333000010203040607080900000000010203045B
:10334000603300080000002088000000E817000833
:10335000E83300088800002030410000F81700081A
:10336000000000000000000000000000000000005D
:10337000000000000000000001000000100000003C
:10338000000000000024F400000000000000000025
:10339000000000000000000000000000000000002D
:1033A000000000000000000000000000000000001D
:1033B000000000000000000000000000000000000D
:1033C00000000000000000000000000000000000FD
:1033D00000000000000000000000000000000000ED
:0833E000AAAAAAAA000000003D
:040000050800018965
:00000001FF
