:020000040800F2
:1000000048420020610200085916000855160008F1
:100010005716000805080008671D000800000000CA
:10002000000000000000000000000000A101000826
:100030000708000800000000FD010008F919000889
:100040007B0200087B0200087B0200087B0200089C
:100050007B0200087B0200087B0200087B0200088C
:100060007B0200087B0200087B0200087B0200087C
:100070007B0200087B0200087B0200087B0200086C
:100080007B0200087B0200087B0200087B0200085C
:100090007B0200087B0200087B0200087B0200084C
:1000A0007B0200087B0200087B0200087B0200083C
:1000B0007B0200087B0200087B0200087B0200082C
:1000C0007B0200087B0200087B0200087B0200081C
:1000D0007B0200087B0200087B0200087B0200080C
:1000E0007B0200087B0200087B0200087B020008FC
:1000F0007B0200087B0200087B0200087B020008EC
:100100007B0200087B0200087B0200087B020008DB
:10011000A91A00087B0200087B0200087B02000885
:100120007B0200087B0200087B0200087B020008BB
:100130007B0200087B0200087B0200087B020008AB
:100140007B0200087B0200087B0200087B0200089B
:100150007B0200087B0200087B0200087B0200088B
:100160007B0200087B0200087B0200087B0200087B
:100170007B0200087B0200087B02000800000000F0
:100180007B0200087B020008DFF810D000F028FB9B
:100190000048004709210008AFF3008048420020D2
:1001A0002C4B19680868B0E8F04F80F30988BFF35A
:1001B0006F8F4FF0000080F311887047000000003F
:1001C00008480068006880F308884FF0000080F35A
:1001D000148862B661B6BFF34F8FBFF36F8F00DF35
:1001E00000BF00BF08ED00E0DFF80C00016841F43B
:1001F00070010160704700BF88ED00E0EFF30980F7
:10020000BFF36F8F134B1A681EF0100F08BF20ED5D
:10021000108A20E9F04F106009B44FF0500080F3CD
:100220001188BFF34F8FBFF36F8F02F079FC4FF04F
:10023000000080F3118809BC19680868B0E8F04F25
:100240001EF0100F08BFB0EC108A80F30988BFF3CE
:100250006F8F70475C000020EFF30580704700004F
:100260000648804706480047FEE7FEE7FEE7FEE750
:10027000FEE7FEE7FEE7FEE7FEE7FEE78D1A000871
:10028000890100082DE9F05F0546002092469B4653
:1002900088460646814640241BE02846414647469C
:1002A000224600F01EFA53465A46C01A914110D316
:1002B00011461846224600F005FA2D1A67EB010890
:1002C0004F4622460120002100F0FCF917EB0009FF
:1002D0004E41201EA4F10104DFDC484631462A4687
:1002E0004346BDE8F09F40EA01039B0703D009E0C5
:1002F00008C9121F08C0042AFAD203E011F8013B12
:1003000000F8013B521EF9D27047D2B201E000F86A
:10031000012B491EFBD270470022F6E710B51346A9
:100320000A4604461946FFF7F0FF204610BD421C5E
:1003300010F8011B0029FBD1801A70472DE9FE4FF0
:10034000804681EA0300C00F0C46009021F0004176
:1003500023F00045B8EB0200A94105D240462146F2
:1003600090461C460B46024623F00040104347D0FF
:10037000270DC7F30A00C3F30A510290401A0190F7
:1003800040286BDAC3F3130040F4801B00989246B8
:1003900020B10023D2EB030A63EB0B0B0198594603
:1003A000C0F14002504600F08DF906460D46504619
:1003B0005946019A00F0A5F910EB080061410024AC
:1003C00087EA115284EAE7731A4340D0009A62B375
:1003D000019A012A4FEA075215DC001B61EB02016A
:1003E0004FF0004202EA0752CDE90042001C41F5FD
:1003F000801132462B4600F0A5F903B0BDE8F08F1E
:1004000040462146F9E7001B61EB0201001C41F563
:10041000801300185B412018A2F5001747EB030179
:1004200040EAD570B6196D4111E06D084FEA360605
:1004300045EAC0754FEA0752001B61EB0201001C40
:1004400041F5801149084FEA300000195141324608
:100450002B4603B0BDE8F04F00F065B900980122CB
:1004600040000023D0EB020263EBE07300982146CA
:100470004FEAE074B8EB000061EB0401E9E783F0B8
:1004800000435BE781F0004158E72DE9FE4F81EA28
:10049000030404F0004421F0004100944FF0000BED
:1004A00023F0004350EA01045ED052EA03045BD01B
:1004B000C3F30A54C1F30A552C44A4F2F334019453
:1004C000A0FB0254C1F3130141F48011C3F31303E1
:1004D00043F4801301FB024400FB034E840A970A95
:1004E00044EA815447EA8357A4FB076802958D0AC2
:1004F00005FB07854FEA932C04FB0C542705029D4E
:100500004FEA065847EA1637B5EB08056EEB070CBD
:10051000870E920E47EA811742EA8312A7FB020177
:10052000B6EB0B0164EB00042B0D43EA0C335E18B1
:1005300044EB1C50DA465146E7FB0201C5F31304B5
:100540004FEA0B3343EA14534FEA0432019C43EA67
:100550000603A4F10C040294009CCDE900B400F061
:10056000F1F803B0BDE8F08F00200146F9E72DE96E
:10057000F04D81EA030404F0004B21F000451446DD
:100580004FF0000A23F0004150EA050220D054EA5F
:1005900001021DD0C5F30A570246C5F31303C1F388
:1005A0001300C1F30A5640F4801543F48013A7EBFF
:1005B0000608101BD64608F2FD3873EB050002D37F
:1005C00008F1010801E092185B41B8F1000F03DA6D
:1005D00000200146BDE8F08D00204FF48011064652
:1005E00084460EE0171B73EB050705D3121B63EB64
:1005F000050306434CEA010C49084FEA3000921803
:100600005B4150EA0107EDD152EA030012D082EAC1
:10061000040083EA0501084305D0101BAB4106D254
:100620000122002306E000224FF0004302E06FF0B9
:10063000010253101AEB06004CEB085110EB0A00B4
:1006400041EB0B01BDE8F04D00F06DB80EB540F286
:10065000334102910021CDE900110A460B4600F01A
:1006600071F803B000BDC1F30A5210B5C1F3130114
:1006700040F2FF3341F480119A4201DA002010BDAC
:1006800040F233439A42A2F2334203DC524200F07A
:1006900028F810BD904010BD30B50B460146002033
:1006A0002022012409E021FA02F59D4205D303FA34
:1006B00002F5491B04FA02F52844151EA2F10102B5
:1006C000F1DC30BD202A04DB203A00FA02F10020E0
:1006D00070479140C2F1200320FA03F31943904080
:1006E0007047202A04DB203A21FA02F000217047EB
:1006F00021FA02F3D040C2F120029140084319468A
:100700007047202A06DBCB17203A41FA02F043EA71
:10071000E07306E041FA02F3D040C2F120029140BA
:1007200008431946704710B5141E73F1000408DA27
:10073000401C41F1000192185B411A4301D120F0A5
:10074000010010BD2DE9F04D92469B4611B1B1FA62
:1007500081F202E0B0FA80F220329046FFF7B2FF59
:1007600004460F4640EA0A0041EA0B0153465A4646
:10077000084313D0114653EA010019D0C8F14002D2
:100780005046FFF7AEFF05460E46504659464246D4
:10079000FFF798FF084305D0012004E020463946C2
:1007A000BDE8F08D0020054346EAE0762C43374350
:1007B0000A986305E40AA0EB08000022FD0A44EA57
:1007C00047540A3002D500200146E9E70105101917
:1007D0006941DDE9084500196941BDE8F04DA2E72E
:1007E000064C074D06E0E06840F0010394E807007E
:1007F00098471034AC42F6D3FFF7CAFCD43800084F
:10080000F4380008FEE7704790F83510022903D04D
:100810008021416501207047052180F8351000686E
:10082000016821F0010101600020704770B50446A5
:1008300000F0F0F80546601C02D00448007804443B
:1008400000F0E8F8401BA042FAD370BD4C00002035
:100850002DE9F84F00224FF0010803254FF00F0E4D
:100860000B6808FA02F42340A3426ED14E68012EB1
:1008700005D0022E03D0112E01D0122E12D186687F
:100880004FEA420C05FA0CF7BE43CF6807FA0CF7A3
:10089000374387604668A6430C79C4F3001494403C
:1008A00034434460C668570005FA07FC8C6826EAA2
:1008B0000C06BC403443C4604C68022C01D0122C9E
:1008C00013D1D40800EB8404A346D4F82090540735
:1008D0004FEAD46A0EFA0AF629EA06090E6906FA00
:1008E0000AF646EA0906CBF8206006680C7926EA83
:1008F0000C0604F00304BC40344304604C68E4007C
:1009000065D5364C266846F480462660246822F079
:10091000030604F480440094314C3444A446D4F8D3
:1009200008489607370F0EFA07F6B4432D4EB0422B
:1009300001D1002624E02C4EB04201D101261FE057
:100940002A4EB04202D102261AE040E0284EB042C0
:1009500001D1032614E0274EB04201D104260FE056
:10096000254EB04201D105260AE0244EB04201D105
:10097000062605E0224EB04201D1072600E00826F7
:10098000BE402643CCF808681E4E34684F689C432E
:10099000FF0300D51C4334601A4C241D26684F68A1
:1009A0009E43BF0300D51E432660164E08363468AA
:1009B0004F689C43FF0200D51C433460114E0C3637
:1009C00034684F689C43BF0200D51C433460521CFE
:1009D000102AFFF445AFBDE8F88F0000443802400C
:1009E00000300140000002400004024000080240C4
:1009F000000C0240001002400014024000180240A7
:100A0000001C0240003C01400AB1816170470904AA
:100A1000FBE7000001488068704700004C000020A0
:100A20000248816802781144816070474C000020C0
:100A30000B4810B5016841F400710160016841F490
:100A400080610160016841F480710160032000F061
:100A500073F80F2000F006F800F024F8002010BD15
:100A6000003C024070B50D4D04464FF47A71287871
:100A7000B1FBF0F00A490968B1FBF0F000F01EFC90
:100A800048B9102C07D200222146501E00F034F83D
:100A900000206C6070BD012070BD00004C00002083
:100AA000580000200C4882B0016841F48041016088
:100AB000006800F4804000900748001F016841F082
:100AC000805101600068002200F0805000900F21EA
:100AD000901E02B000F010B844380240002809DB34
:100AE00000F01F02012191404009800000F1E02048
:100AF000C0F8001170470000F0B40E4B1B680C46A4
:100B0000C3F30223C3F10705042D00D90425191DE1
:100B1000072901D2002300E0DB1E012606FA05F1B9
:100B2000491E214099409E40761E16403143F0BC3C
:100B300001F02EB90CED00E0064900F0070208684C
:100B40004FF6FF03184040EA0220034A10430860B2
:100B5000704700000CED00E00000FA052DE9F047B9
:100B60000E46050065D0DFF81481D8F80000F7B212
:100B700000F00F00B04207D288F80070D8F80000EB
:100B800000F00F00B04254D128683D4C810712D5C7
:100B9000400703D5206840F4E05020602878000723
:100BA00003D5206840F4604020602068A96820F0E8
:100BB000F000084320602878C0072DD030496868CD
:100BC0000839012812D0022813D0032811D009684F
:100BD000890700292DDA216821F0030101432160F2
:100BE000FFF718FF814641F2883A0EE00968890351
:100BF000EFE709688901ECE7FFF70CFFA0EB0901BB
:100C0000514502D90320BDE8F0872068696800F0EB
:100C10000C00B0EB810FEFD1D8F80010404601F086
:100C20000F01B14207D90770006800F00F00B04211
:100C300001D00120E7E72878400705D52068E9685A
:100C400020F4E050084320602878000706D520688B
:100C5000296920F4604040EAC100206000F038F8C3
:100C60002168084AC1F30311515CC8400649086075
:100C700006480068FFF7F6FE0020C4E7003C02408B
:100C800008380240BB3800085800002050000020FF
:100C90000448054900680968044AC1F38221515C8F
:100CA000C84070475800002008380240CB38000880
:100CB0000448054900680968044AC1F34231515C9F
:100CC000C84070475800002008380240CB38000860
:100CD000154810B5006810F00C02144813D01449E0
:100CE000042A0FD0082A0ED10F4C241F2268236833
:100CF00002F03F025B0207D52068C0F38810A0FB1A
:100D0000010106E0084610BD2168C1F38811A1FB6E
:100D100000010023FFF7B6FA2168C1F30141491C25
:100D20004900B0FBF1F010BD083802400024F40087
:100D300040787D012DE9F84F04006ED02078DFF86F
:100D40003C93C007A9F104054AD009F104000168E9
:100D5000C1F38101012908D00068C0F38100022895
:100D60000AD1D9F80000400206D52868800337D59B
:100D700060680028E1D033E06068B0F5803F10D0B3
:100D8000B0F5A02F286810D020F4803028602868A3
:100D900020F4802028606068A8B1FFF73BFE06467B
:100DA0000DE0286840F48030F4E740F480202860AB
:100DB000F7E700BFFFF72EFE801B642873D8286872
:100DC0008003F7D50CE0FFF725FE064605E000BFDF
:100DD000FFF720FE801B6428F0D828688003F7D432
:100DE0002078DFF89C8280074FF0000A3ED5A348A8
:100DF000001D016811F00C0F08D00068C0F38100DD
:100E000002280BD1D9F80000400207D428688007D7
:100E100016D5E068012800D112E02BE1E068B8B1F6
:100E20000120C8F80000FFF7F5FD064605E000BF09
:100E3000FFF7F0FD801B0228C0D828688007F7D58F
:100E40002868216920F0F80040EAC10028600DE020
:100E5000C8F800A0FFF7DEFD064604E0FFF7DAFD64
:100E6000801B02281FD828688007F7D42078000745
:100E700022D5824E83486169703671B101210160CB
:100E8000FFF7C8FD074604E0FFF7C4FDC01B0228BA
:100E900009D830688007F7D50EE0C0F800A0FFF74A
:100EA000B9FD074605E082E0FFF7B4FDC01B02284C
:100EB0007DD830688007F7D42078400768D5DFF800
:100EC000BCB100270BF13C0BDBF80000C0000BD4D9
:100ED000DBF8001041F08051CBF80010DBF8000087
:100EE000012700F080500090674E3068C00510D494
:100EF000306840F480703060FFF78CFD009005E0B2
:100F0000FFF788FD0099401A022850D83068C005C4
:100F1000F6D55A4EA0686C3601280FD005283068E7
:100F200010D020F001003060306820F00400306004
:100F3000A068B8B1FFF76EFD00900FE0306840F098
:100F40000100F4E740F004003060F7E7FFF762FDCE
:100F50000099411A41F28830814266D83068800792
:100F6000F4D50EE0FFF756FD009007E0FFF752FDC5
:100F70000099411A41F28830814256D83068800782
:100F8000F4D42FB1DBF8001021F08051CBF8001021
:100F9000A069C8B33949091D0968C1F38101022953
:100FA0004AD00228504607D0C8F8600000E03CE074
:100FB000FFF730FD04463BE04746C8F86000FFF706
:100FC00029FD064605E000BFFFF724FD801B02282F
:100FD0002BD828688001F7D4D4E907010843A16A17
:100FE0002A4A490802EB0141626A41EA8211084338
:100FF00094F82C1040EA0161C9F80010012038660D
:10100000FFF708FD044606E036E000BFFFF702FDEB
:10101000001B022809D828688001F7D52CE000BF02
:10102000FFF7F8FC001B022802D90320BDE8F88F67
:1010300028688001F4D41FE00128F7D0D9F8000017
:10104000E26900F48001914214D1226A00F03F016C
:1010500091420FD147F6C071626A0140914209D1B5
:10106000A26A00F44031914204D1E16A00F070605C
:10107000884201D00120D9E70020D7E70438024098
:1010800000004742800E4742007000400000FFFF12
:1010900070B5040005D00025A56294F8510010B188
:1010A00006E0012070BD84F85050204600F030F872
:1010B000022084F851002068016821F0400101609D
:1010C000D4E901010843D4E90312114308436169DB
:1010D0000843218B01F400710843E1690843216A48
:1010E0000843A16A084321680860A069042101EA55
:1010F0001040616A0843216848602068C16921F492
:101100000061C1616565012084F85100002070BD57
:10111000104800B5026887B0002142F480420260A6
:10112000006800F4804005904FF480600090022039
:10113000CDE901010320039005200490694606488B
:10114000FFF786FB0820009069460448FFF780FB04
:1011500007B000BD403802400004024000080240D1
:101160002DE9F84F044690F8500000271D4616461A
:10117000894601280DD04FF0010B84F850B0FFF7DD
:1011800049FC804694F85100BA46012804D0022751
:101190008EE00220BDE8F88FB9F1000F7DD0002E5F
:1011A0007BD0032084F85100C4F854A0C4F83090D8
:1011B000A686E686C4F838A0A4F83CA0A4F83EA011
:1011C000C4F844A0C4F840A0A068B0F5004F04D112
:1011D0002068016841F48041016020680168490687
:1011E00003D4016841F040010160E068B0F5006F90
:1011F000606803D030B3012E24D040E008B1012E46
:101200001CD1206B21680088C86006E020688168D6
:10121000890709D5216B0988C160206B801C206378
:10122000E08E401EE08609E0FFF7F4FBA0EB08002B
:10123000A84202D3681C01D031E07DB3E08E0028C3
:10124000E4D11FE0206B21680078087306E0206875
:101250008168890709D5216B09780173206B401CCF
:101260002063E08E401EE08609E0FFF7D3FBA0EB91
:101270000800A84202D3681C01D010E075B1E08ECE
:101280000028E4D142462946204600F0E7F908B19B
:1012900020206065A06820B107E008E0FFE7032791
:1012A00006E02068C16880680090606D00B1012789
:1012B00084F851B084F850A038466BE710B5401E52
:1012C000B0F1807F01D3012010BD4FF0E0246061B8
:1012D0000F21601700F05CFD0020A0610720206155
:1012E000002010BD7047000070B502680446106809
:1012F000D168536910F00F0F52D003F0010501F4CB
:1013000090762E435FD0C20705D0CA0503D5E26BA5
:1013100042F00102E263420705D5DA0703D0E26B2F
:1013200042F00202E263820705D5DA0703D0E26BDE
:1013300042F00402E263020707D501F020022A43CB
:1013400003D0E26B42F00802E263E26B002A33D082
:10135000800604D5880602D5204600F0C1FB20682F
:101360004069E16BC0F38010090700D428B3204620
:1013700000F0A8FB2068416949061AD5416921F0AF
:1013800040014161606BA0B11B490165606BFFF7D3
:101390003BFA002810D0606B016DBDE87040084733
:1013A000830610D58B060ED52046BDE8704000F0B0
:1013B00097BB2046FFF796FF70BD2046FFF792FFD0
:1013C0000020E06370BD030606D50B0604D5204659
:1013D000BDE8704000F064BC4006F3D54806F1D586
:1013E000D168204621F04001D160202184F83910D5
:1013F00000F02FF970BD0000B51A000870B50400A8
:1014000004D094F83900002510B106E0012070BD29
:1014100084F83850204600F023F8242084F839005E
:101420002068C16821F40051C160204600F0A4FB8F
:101430002068016921F4904101612068416921F02F
:101440002A0141612068C16841F40051C160E5632F
:10145000202084F8390084F83A00002070BD000094
:1014600010B586B0044614216846FEF755FF1749AB
:101470002068884227D11648016841F400210160A4
:10148000006800F40020059011481038016841F010
:10149000010101600068022100F0010005900320B5
:1014A000CDE900010121CDE9021008200490694630
:1014B0000848FFF7CDF9002205213420FFF71CFB77
:1014C0003420FFF70BFB06B010BD0000004C0040BD
:1014D00040380240000002402DE9F843044690F8ED
:1014E0003A00994616460D46202852D1BDB1B6B1F4
:1014F00094F8380001284CD0012084F838000027E7
:10150000E763222084F83A002C34FFF783FA24F8AA
:10151000026B804624F80A6B04F8387931E0012028
:10152000BDE8F883E08D401EE085A0684346B0F535
:10153000805F4FF000024FF020012046CDF8009070
:1015400004D000F0DEFB98B10320E9E700F0D9FBFE
:101550000028F9D1206900282068406803D0C1B272
:1015600025F8011B0DE0C0F3080125F8021B08E077
:10157000206900282068406801D000F07F0005F84D
:10158000010BE08D0028CDD1202084F83A00002006
:10159000C6E70220C4E770472DE9F843044690F8F7
:1015A00039001F4616460D46202850D1B5B1AEB1C0
:1015B00094F8380001284AD0012084F838004FF010
:1015C0000008C4F83C80212084F83900FFF722FA93
:1015D000A6848146E68484F8388026E00120BDE8B0
:1015E000F883E08C401EE084A0684B46B0F5805F35
:1015F0004FF000024FF080012046009703D000F02A
:1016000080FBE8B90DE000F07CFBC8B928882168B0
:10161000C0F308004860206908B16D1C05E0AD1CEE
:1016200003E0216815F8010B4860E08C0028D8D150
:101630004B46002240212046009700F062FB08B193
:101640000320CCE7202084F839000020C7E70220DF
:10165000C5E77047FEE7FEE7FEE7000038B5044641
:101660001248134B0068B0FBF3F04FF47A73584301
:1016700000906068B0F5827F0DD10B460092002289
:101680008021204600F016F870B1606D40F0200017
:101690006065032038BD009830B1401E009020687E
:1016A0008068C0430006F6D5002038BD58000020F1
:1016B00000366E012DE9F0411D4617460E460446E0
:1016C000DDF8188008E0681C06D0FFF7A3F9A0EB4E
:1016D0000800A8420BD255B12068806836EA0000A5
:1016E00030D00020B842EED10020BDE8F081206863
:1016F000416821F0E00141606068B0F5827F0BD164
:10170000A068B0F5004F02D0B0F5806F04D120681A
:10171000016821F040010160A06AB0F5005F09D1C5
:101720002068016821F4005101602068016841F4DB
:1017300000510160012084F85100002084F850001D
:101740000320D2E70120CDE72DE9FC5F81462A483E
:101750009A46DDE90CB5B0F90230884699453DDA84
:10176000B0F90400804539DA05EB850101EB090089
:10177000012833D408EBC50001282FD402EB8200E6
:101780000024019002E0052C0BD0019801191B48A0
:10179000475C0026F80709D0012D04D01FFA8AF013
:1017A0000AE00027F5E71FFA8AF21BE0D3450ED0C6
:1017B000012D15D01FFA8BF0009006FB058001B2B9
:1017C00004FB05902B4600B21A4600F061F87F0832
:1017D000761C082EDEDB641C062CD4DBBDE8FC9FE7
:1017E0001FFA8BF208EB060001B209EB040000B20D
:1017F00000F006F8EBE7000000000020C03300080E
:1018000010B51446002815DB0B4AB2F90230984295
:1018100010DA00290EDBB2F9042091420ADACBB2C9
:10182000C2B2C9B2C0B200F0CDFF2046BDE8104040
:1018300000F02BBF10BD0000000000202DE9FC4788
:1018400000279A46154604460F2913D90020BDE803
:10185000FC8704EB44004000314600B25346CDE91A
:101860000089FFF771FF641CA4B26D1C142C0CD806
:101870007F1C07E001EB810040004FF000084FF0B3
:10188000010906B22A78002AE3D13846DFE70000D2
:101890002DE9F0411546069A1C464FEA1228D6B2A9
:1018A000194AB2F9023098422BDAB2F90420914277
:1018B00027DA47197F1E9F4201DB1B1A1DB20B1945
:1018C0005B1E934201DB521A14B20A19521ED3B2A4
:1018D0004219521ED2B2C9B2C0B200F073FF2746FD
:1018E0000DE02C4607E0404601F056F9304601F085
:1018F00053F9641E24B2002CF5DC7F1E3FB2002F8A
:10190000EFDCBDE8F08100000000002008B50021F8
:1019100000900448B0F90430B0F902200846FFF7FF
:10192000B7FF08BD00000020124800B5026887B06C
:10193000002142F002020260026802F002020592F7
:10194000026842F004020260006800F004000590A2
:10195000382000900120CDE9010103916946064835
:10196000FEF776FF0820009069460448FEF770FFF6
:1019700007B000BD303802400004024000080240B9
:1019800010B5FFF7D1FF00F011F800F051FF002172
:10199000084600F027F8044940F2FF70C880BDE80F
:1019A00010400020FFF7B2BF000000200C480B4998
:1019B0004FF4007201604FF4827141604FF40041B6
:1019C00081600021C1600161C0E90512C16101624D
:1019D000416281620A21C162FFF75ABB00380040B0
:1019E000BC000020142804D80F2902D8014AC2E9FB
:1019F000030170470000002010B5FFF711F801F057
:101A000085FB012803D0BDE8104001F04DB910BDA1
:101A100010B592B030216846FEF77EFC14210CA868
:101A2000FEF77AFC17480024016841F080510160FC
:101A3000006800F0805011901348016841F4804123
:101A400001600068069400F480401190022000902C
:101A500001200390102004906846FFF76BF908B14D
:101A600072B6FEE70F20CDE90C040E940F9400210E
:101A70000CA81094FFF772F8002801D072B6FEE7A8
:101A800012B010BD403802400070004005480168A7
:101A900041F47001016003494FF000608039086033
:101AA0007047000088ED00E00148FFF71DBC000012
:101AB0001401002010B5806B0021C185C184FFF79F
:101AC00011FC10BD0168CA6822F49072CA600168F6
:101AD0004A6922F001024A61202180F83A107047D9
:101AE00010B590F83A10222901D0022010BD81686B
:101AF000B1F5805F11D00169002901681FD04968E4
:101B000001F07F03816A4A1C82620B70C18D491EFD
:101B10000904090CC18518D02BE00269816A002AEA
:101B20000268526805D0D2B20A80816A491C81627B
:101B3000ECE7C2F308020A80816A891CF7E74A6869
:101B4000816A4B1C83620A70E0E70168CA6822F070
:101B50002002CA600168CA6822F48072CA60016803
:101B60004A6922F001024A61202180F83A10FFF709
:101B700012FD002010BD00002DE9F0410446006870
:101B80000169E26821F44051114301612169A068B3
:101B9000E26908436169114308432168CA6849F250
:101BA0000C639A430243CA6020684169A26921F428
:101BB000407111434161E069192764253226B0F56F
:101BC000004F354A354920684FF0000806D088425A
:101BD00001D0904236D1FFF76BF835E0884201D052
:101BE000904202D1FFF764F801E0FFF751F8616815
:101BF0004A18A0FB070148EB0803FEF743FB014628
:101C0000B0FBF5F00201B1FBF5F06FF0180358439B
:101C100001EB800006EBC000B0FBF5F000F0F8002F
:101C200002EB4002B1FBF5F0584301EB800006EBFC
:101C3000C000B0FBF5F000F0070021681044886098
:101C4000BDE8F081FFF724F861688B0F8A00A0FBE4
:101C50000701FEF717FB0146B0FBF5F06FF0180225
:101C6000504301EB800006EB0010B0FBF5F000F0F4
:101C7000F002B1FBF5F002EB0012B1FBF5F06FF0F2
:101C80001803584301EB800006EB0010B0FBF5F0A1
:101C900000F00F00D1E700000014014000100140E7
:101CA00090F83910212901D0022070478168B1F5E0
:101CB000805F016A0BD04A1C026202680978516099
:101CC000C18C491E0904090CC1840ED017E0098893
:101CD0000268C1F30801516001690029016A02D05C
:101CE000491C0162ECE7891CFBE70168CA6822F025
:101CF0008002CA600068C16841F04001C1600020F4
:101D000070472DE9F041984617460E460446069D59
:101D10001DE0681C1BD02DB1FEF77CFEA0EB080077
:101D2000A84214D92068C16821F4D071C16020682C
:101D3000416921F001014161202084F8390084F8D3
:101D40003A00002084F838000320BDE8F0812068C4
:101D5000006836EA000004D00020B842D9D0002044
:101D6000F3E70120F9E7FEE70FB4084B10B504A92B
:101D700002AA039800F02CF8044602A9002000F003
:101D8000D1F8204610BC5DF814FB0000251F0008A8
:101D90000907090E002804DB00F1E02080F8001498
:101DA000704700F00F0000F1E02080F8141D70472C
:101DB00002E008C8121F08C1002AFAD17047704714
:101DC000002001E001C1121F002AFBD17047000072
:101DD0002DE9FF4F89B09B460446002506E02528E3
:101DE0000BD05A460B999047641C6D1C2078002834
:101DF000F5D10DB02846BDE8F08F0027B846012286
:101E0000474900E0074314F8013F203B02FA03F082
:101E10000842F7D120782E2819D114F8010F47F085
:101E200004072A280ED06FF02F022078A0F130018D
:101E300009290CD808EB880102EB410100EB0108ED
:101E4000641CF2E70A98641C50F8048B0A9020780E
:101E50000028CED0642808D0692806D075281ED066
:101E60005A460B9990476D1C58E00A994FF00A09A1
:101E700001C90A91002802DA40422D2102E0390509
:101E800004D52B218DF82010012103E0F90704D09F
:101E90002021F7E78A4608AE0DE00021FAE70A990B
:101EA0004FF00A0901C90A91F7E74946FEF7F4FB2A
:101EB000303106F8011D0028F7D1ADEB060000F126
:101EC0002009780701D44FF00108C84502DDA8EBCE
:101ED000090000E000208046002706E008A85A46D6
:101EE000C05D0B9990476D1C7F1C5745F6DB04E0E5
:101EF00030205A460B9990476D1CB8F10001A8F1AB
:101F00000108F5DC05E016F8010B5A460B999047DD
:101F10006D1CB9F10001A9F10109F4DC641C65E74D
:101F2000092801000A68531C0B60107070470000FC
:101F3000114C08B5206840F480302060606920F4BE
:101F40008070606101260D4D4FF0FF38002742463A
:101F50006946A86900F0D6FF9DF80000012807D067
:101F60008DF80060606920F4807060612F70EEE78A
:101F7000606940F48070F8E7000002402C00002007
:101F8000164810B5816841F0804181600168890779
:101F9000FCD5C06CFEF75AFB9FED111B53EC112BC7
:101FA000FEF773FA9FED101B53EC112BFEF7DFFACF
:101FB0009FED0F1B53EC112BFEF761FA9FED0E1BEB
:101FC00053EC112BFEF7D3FA9FED0D1B53EC112BA5
:101FD000FEF7B4F941EC100B10BD000000200140E9
:101FE0006666666666660A400000000000FEAF4056
:101FF00052B81E85EB51E83F7B14AE47E17A643F4F
:1020000000000000000039400B48016841F4807175
:1020100001600A48002181604FF48021C160D0F83E
:10202000041341F40001C0F80413102141638168D6
:1020300041F00101816070474438024000200140B6
:1020400010B50446002210210348FEF7DDFC2046AF
:10205000BDE8104000F010B80004024010B504467E
:10206000012210210348FEF7CFFC2046BDE81040B6
:1020700000F002B80004024001B501231A46694687
:102080000148FFF76DF808BDBC00002088B0FFF7DD
:1020900077FC0027134C7E1E4FF4FC65324606A9E0
:1020A000E06900F02FFF324607A9E06900F02AFF3F
:1020B0009DF818200CA16846FFF756FE00212B461C
:1020C0006A460846FFF7BAFB9DF81C200AA168463D
:1020D000FFF74AFE2B466A4608210020FFF7AEFBB9
:1020E0006770DBE72C00002054656D7065726174C9
:1020F0007572653A2025640053657420706F696EAF
:10210000743A2025640000001CB5FEF791FCFFF72F
:102110007FFC2E480021026842F001020260006844
:102120002B4A00F0010000902A4802604FF416523A
:10213000C0E901210C22C160C0E904128161C161C2
:10214000FFF75CF908B172B6FEE723480524CDE934
:1021500000404FF4807500232A4620A1224800F059
:10216000A7FF1D480023001DCDE900402A461FA1FE
:10217000224800F09DFF184800230830CDE90040B8
:102180002A461FA1234800F093FF134800230C3078
:10219000CDE900402A4620A1234800F089FF012113
:1021A0000022084600F096FD0B4C0121241F00225E
:1021B0006061084600F08EFDA0610022012102202E
:1021C00000F088FDE06100F0F5FCFEE730380240E9
:1021D000004C004014010020300000204D61696E69
:1021E0005F5461736B0000002D22000875617274EA
:1021F000436F6E74726F6C6C6572000091280008FA
:1022000062757A7A6572436F6E74726F6C6C657208
:1022100000000000311F00086C6364436F6E74722D
:102220006F6C6C65720000008D2000080EB51E20DA
:1022300000278DF800008DF80870FFF7E5FE7E1E80
:10224000164C012532466946606900F05BFEFFF7D7
:1022500097FE51EC100BFEF706FAC0B29DF8001085
:102260008DF80400814202D98DF8085001E08DF804
:1022700008700023324602A9A06900F093FD0023F4
:10228000324601A9E06900F08DFD0023324669461F
:10229000E06900F087FD25706570D3E72C00002011
:1022A0002DE9F041184C0F46054666692068001D6F
:1022B00000F04EFB38B9206890F82C1001208840BF
:1022C000A1698143A161681C07D137B12168BDE8CC
:1022D000F0410E48091D00F074BB20683544B5423A
:1022E0004560216805D2A068BDE8F041091D00F0F5
:1022F00050BB6068091D00F04CFB206B854200D28A
:102300002563BDE8F08100005C0000203002002061
:102310002DE9F041054600F061FB2E4C2069401C80
:10232000206120682C4F10B1E06940B32DE025609A
:102330002069012829D1002606EB860007EB8000E2
:1023400000F019FB761C072EF6D323488C3000F0E2
:1023500012FB2148A03000F00EFB1F48B43000F003
:102360000AFB1D48C83000F006FB1B48DC3000F0BB
:1023700002FB19488C3060601430A06005E02068D2
:10238000E96AC06A884200D82560E06A401CE062C1
:10239000E96A0120A26988401043A06101EB810035
:1023A00007EB8000291D00F00CFB00F037FBE06913
:1023B00000280CD02068E96AC06A884207D2074921
:1023C0004FF080500860BFF34F8FBFF36F8FBDE8B1
:1023D000F08100005C0000205401002004ED00E0CA
:1023E00030B4026C0B46002A0BD0C1681144C160A6
:1023F0008468A14201D30168C16030BC1846FDF772
:1024000072BF30BC70472DE9F041856B174604461A
:102410000026026C82B1C7B1E068FDF764FFE16895
:10242000206C091AE1602268914202D2A168081A60
:10243000E060022F16D017E02068A8B9A06800F06D
:10244000D7FE06460020A0600EE06068FDF74BFF57
:10245000216C606808446060A168884204D32068E9
:10246000606001E005B16D1E6D1CA5633046BDE8DE
:10247000F081000010484FF47051420706D0C01D93
:102480000D4920F00700411AC1F570510B4A002395
:102490000144C2E900030839103A21F00701116034
:1024A0004B600B600B1AC0E9001393604FF00040C3
:1024B0005360D0607047000044020020A800002054
:1024C0000346009829B10260C0E90F31012100F0F4
:1024D00025BC0060F8E72DE9F0479A46DDE909845C
:1024E00081466FF00303206B03EB82021044089EC9
:1024F00020F00707780707D0502080F31188BFF33A
:102500004F8FBFF36F8FFEE7002561B100202318C6
:102510000A5C83F834200A5C12B1401C1028F6D300
:1025200084F8435001E084F83450072E00D3062687
:10253000E662C4E91165201D00F028FA04F11800D4
:1025400000F024FA2461C6F107006462A061E5642A
:1025500084F8505052464946384600F00DF9206044
:10256000B8F1000F01D0C8F80040BDE8F0870000C6
:1025700030B5114900E011460A688242FBD34B682E
:102580005C18844203D14068184448600846436898
:102590001C18944209D1084C103C2468A24209D06E
:1025A00052681A4442600A6812680260814200D090
:1025B000086030BD0460F9E7A800002010B50446AB
:1025C00000F00CFAA06B28B15FF0000400F026FACE
:1025D000204610BD0124F9E706484168096829B181
:1025E0004168C968C9684968016370474FF0FF31A5
:1025F000FAE700005C00002008484068401C4FF0EB
:10260000500080F3118804D0BFF34F8FBFF36F8F5A
:10261000FEE7BFF34F8FBFF36F8FFEE7B0000020E0
:102620002DE9F041044600F0D9F994F9455004F140
:10263000240609E0606A48B1304600F025FE08B182
:1026400000F048FA6D1E6DB2002DF3DC4FF0FF363E
:1026500084F8456000F0E2F900F0C0F994F94450C4
:1026600004F1100709E0206948B1384600F00CFE7B
:1026700008B100F02FFA6D1E6DB2002DF3DC84F866
:102680004460BDE8F04100F0C9B910B50446000A45
:1026900000F082FAE0B2BDE8104000F07DBA000020
:1026A0002DE9F0410546002700F032FA314E30683E
:1026B00008B9FFF7DFFEF06805424BD1C5B3083516
:1026C00068070ED005F00700C0F108000544680750
:1026D00007D0502080F31188BFF34F8FBFF36F8F67
:1026E000FEE72DB37068854234D822481030014689
:1026F0000C6801E020460C466168A94202D22168BC
:102700000029F7D131688C4224D007682168016024
:1027100060680837411B10290FD96019420708D09B
:10272000502080F31188BFF34F8FBFF36F8FFEE708
:1027300010E041606560FFF71BFF61687068401A38
:102740007060B268904200D2B060F068014300202F
:10275000C4E9000100F0D2FD780707D0502080F3D3
:102760001188BFF34F8FBFF36F8FFEE73846BDE888
:10277000F08100009800002010B5031F4FF0807416
:102780001C601B1F21F001011960191F044B0B6015
:1027900014390A60091F6FF0020244380A6010BD44
:1027A000F925000810B50446FDF7C1FD214682B2A7
:1027B000BDE810404FF4FA630148FEF7EDBE00009B
:1027C000140100202DE9F04104461D4616460F462F
:1027D0002A2000F0D3F9002000F0DEF92046134C47
:1027E00021780844C0B200F0D7F9002000F0D4F9F5
:1027F00020783044C0B200F0CFF92B2000F0BEF9B1
:10280000002000F0C9F960783844C0B200F0C4F983
:10281000002000F0C1F960782844C0B200F0BCF993
:10282000BDE8F0412C2000F0A9B900000000002014
:1028300010B5164C002208212046FEF7E5F80022CC
:1028400020212046FEF7E0F80A20FDF7EFFF0122E5
:1028500020212046FEF7D8F80A20FDF7E7FF1120D7
:10286000FFF7EEFB7820FDF7E1FF3A20FFF7E8FBEA
:102870000520FFF7F3FB3620FFF7E2FB1420FFF7FC
:10288000EDFBBDE810402920FFF7DABB0004024051
:102890001CB5184C184F4FF0FF356FF02F084FF054
:1028A00080562078617808431DD114A0FFF77AFF85
:1028B0002B46022269461C48FEF70EFE1BA0FFF7BE
:1028C00071FF9DF800009DF80110303800EB800288
:1028D00008EB420008448DF8040000232A4601A9B1
:1028E000606900F05FFA3E60BFF34F8FBFF36F8FF8
:1028F000D7E700002C00002004ED00E00D0A456E33
:102900007465722054656D706572617475726520AE
:10291000536574506F696E742028646567726565CD
:1029200073293A2000000000140100200D0A5465AC
:102930006D706572617475726520536574506F694E
:102940006E74206368616E6765642E2E2E00000031
:10295000D0E9013201699A60D0E901235A604A68DE
:10296000824201D182684A60002202610868401EEA
:1029700008600868704700F108014FF0FF32C0E9B5
:102980000112C160016100210160704700210161F5
:10299000704730B50B685A1C02D000F1080202E003
:1029A000026904E02246546825689D42FAD95368BA
:1029B0004B6099608A60516008610168491C016040
:1029C00030BD42684A6093688B609368596091603B
:1029D00008610168491C016070470000502080F3C5
:1029E0001188BFF34F8FBFF36F8F0A494868401CAF
:1029F000486001280CD10848006810F0FF0F07D08C
:102A0000502080F31188BFF34F8FBFF36F8FFEE725
:102A100070470000B000002004ED00E0084948685D
:102A200028B1401E486001D180F3118870475020C2
:102A300080F31188BFF34F8FBFF36F8FFEE7000065
:102A4000B000002070B5002827D0144DA0F1080474
:102A50006168E868014207D1502080F31188BFF314
:102A60004F8FBFF36F8FFEE722683AB1502080F39B
:102A70001188BFF34F8FBFF36F8FFEE78143616013
:102A800000F046F860686968084468602046FFF70F
:102A90006FFDBDE8704000F031BC70BD98000020B3
:102AA0004FF0E02000210161816105494FF47A7205
:102AB0000968B1FBF2F1491E4161072101617047CC
:102AC0005800002002498A6A0260496941607047E3
:102AD0005C00002001490120486270475C00002032
:102AE00010B50C4650B1094909681831FFF751FF7C
:102AF0002046BDE810400121FFF7D2BB502080F3F3
:102B00001188BFF34F8FBFF36F8FFEE75C0000208B
:102B10000248816B491C8163704700005C00002003
:102B20001448816B11B1012141627047002141625B
:102B30008169B1FA81F1C1F11F0101EB81020E49F6
:102B400051F822306BB101EB820101F108034A68B0
:102B500052684A609A4201D152684A60D168016065
:102B60007047502080F31188BFF34F8FBFF36F8FF2
:102B7000FEE700005C0000205401002010B5044670
:102B8000002210210348FDF73FFF2046BDE810401A
:102B9000FFF772BA0004024010B50446012210216A
:102BA0000348FDF731FF2046BDE81040FFF764BA47
:102BB000000402401CB537480168374A914207D1EA
:102BC000502080F31188BFF34F8FBFF36F8FFEE764
:102BD00000683149491E884207D1502080F311888E
:102BE000BFF34F8FBFF36F8FFEE72C49087801903A
:102BF000FF20087008788DF800009DF800009DF80F
:102C0000002000F0F000904207D0502080F311889F
:102C1000BFF34F8FBFF36F8FFEE79DF80000204B8F
:102C200000F0500018700720986005E09DF8002023
:102C300052008DF80020401E9DF800201206F5D4A9
:102C40009860032807D0502080F31188BFF34F8F7E
:102C5000BFF36F8FFEE74FF44070986001980870E3
:102C60000C482030016841F470010160016841F0B6
:102C700070410160FFF714FF00205860FDF7B4FABF
:102C80000848016841F040410160FDF799FA0020D1
:102C90001CBD000000ED00E071C20F4100E400E047
:102CA000B000002034EF00E010B5502080F3118810
:102CB000BFF34F8FBFF36F8F00F036FA18B104499E
:102CC0004FF080500860002080F3118810BD000094
:102CD00004ED00E0F8B517460E46050014D0DEB14D
:102CE00005FB06F04830FFF7DBFC04000AD00020AB
:102CF00084F8460004F148023B46314628460094D9
:102D0000FFF7DEFB2046F8BD502080F31188BFF3AB
:102D10004F8FBFF36F8FFEE70020E3E770B50D46DE
:102D2000040025D0FFF75AFED4E90F20216802FBEA
:102D30000011A1600021A163216861600A46D4E905
:102D40000F01401E00FB0121E16021464FF0FF30E2
:102D500001F8440F487004F110008DB1FFF70BFE2D
:102D600004F12400FFF707FEFFF758FE012070BDB5
:102D7000502080F31188BFF34F8FBFF36F8FFEE7B2
:102D800021690029F0D000F07FFA0028ECD0044936
:102D90004FF080500860BFF34F8FBFF36F8FE3E7B2
:102DA00004ED00E02DE9FF4782B01D468A464FF052
:102DB0000008040003D0BAF1000F08D011E0502041
:102DC00080F31188BFF34F8FBFF36F8FFEE7206C46
:102DD00038B1502080F31188BFF34F8FBFF36F8F4E
:102DE000FEE7022D0AD1E06B012807D0502080F3C6
:102DF0001188BFF34F8FBFF36F8FFEE700F086F9A6
:102E00003F4F4FF000094FF0805648B9049838B151
:102E1000502080F31188BFF34F8FBFF36F8FFEE711
:102E2000FFF7DCFDA06BE16B884207D3022D05D0D4
:102E30000498D0B1B8F1000F1AD01EE02A465146CE
:102E40002046FFF7E0FA616A19B104F1240000F0AE
:102E50001BFA20B13E60BFF34F8FBFF36F8FFFF7B8
:102E6000DDFD012006B0BDE8F087FFF7D7FD22E0C9
:102E70006846FFF727FE4FF00108FFF7CFFDFFF789
:102E800047FEFFF7ABFD94F94400401C01D184F8E4
:102E9000449094F94500401C01D184F84590FFF717
:102EA000BDFD04A9684600F0C9F830B12046FFF71F
:102EB000B7FB00F023FA0020D4E7FFF78FFDA06BEB
:102EC000E16B884213D1FFF7A9FD04F110000499CA
:102ED000FFF706FE2046FFF7A3FB00F00FFA0028DD
:102EE0009ED13E60BFF34F8FBFF36F8F98E7FFF720
:102EF00095FD2046FFF794FB00F000FA90E70000F4
:102F000004ED00E02DE9F747002683B08A4604006F
:102F100003D0BAF1000F08D011E0502080F31188DF
:102F2000BFF34F8FBFF36F8FFEE7206C38B1502097
:102F300080F31188BFF34F8FBFF36F8FFEE700F070
:102F4000E5F8DFF8F4804FF000094FF0805748B9FA
:102F5000059838B1502080F31188BFF34F8FBFF32D
:102F60006F8FFEE7FFF73AFDA56BC5B151462046CE
:102F7000FFF736FA6D1EA563206950B104F1100009
:102F800000F082F928B1C8F80070BFF34F8FBFF38B
:102F90006F8FFFF743FD012006B0BDE8F08705986D
:102FA00008B11EB106E0FFF739FD27E06846FFF7DC
:102FB00089FD0126FFF732FDFFF7AAFDFFF70EFDA1
:102FC00094F94400401C01D184F8449094F94500E0
:102FD000401C01D184F84590FFF720FD05A9684603
:102FE00000F02CF8002820460AD0FFF719FB00F06B
:102FF00085F92046FFF7E2FA0028B3D00020CBE79E
:10300000FFF7DCFA90B104F124000599FFF768FDA1
:103010002046FFF705FB00F071F90028A2D1C8F89F
:103020000070BFF34F8FBFF36F8F9BE72046FFF712
:10303000F7FA00F063F995E704ED00E02DE9F041BF
:103040000C46050011D0C4B1FFF7C8FC174B5A69F4
:103050006E682068911B471C17D02F689B6A9F429F
:1030600019D0964217D8012410E0502080F311881F
:10307000BFF34F8FBFF36F8FFEE7502080F31188AF
:10308000BFF34F8FBFF36F8FFEE70024FFF7C6FC3F
:103090002046BDE8F081884205D9401A20602846C4
:1030A000FFF710FDF1E700202060DCE75C00002066
:1030B0002DE9FF5F8346DDE90E87994616468A466D
:1030C0009000FFF7EDFA05001CD05420FFF7E8FA56
:1030D000040014D00020256384F85100CDE902409B
:1030E000CDE900874B46324651465846FFF7F3F983
:1030F0002046FFF70DF9012004B0BDE8F09F2846F7
:10310000FFF7A0FC4FF0FF30F6E700000548C1696B
:1031100019B1806B18B10020704701207047022060
:10312000704700005C0000202DE9F0412E4C002784
:10313000A06B40B1206A401C2062606A00B1012788
:103140003846BDE8F0816669761C666113D1606817
:10315000006838B1502080F31188BFF34F8FBFF360
:103160006F8FFEE76068A1686160A060A06A401C84
:10317000A062FFF731FA206BDFF87080864209D336
:103180006068006880B16068C068C5686868864229
:103190000DD220632068C06A00EB800158F821003E
:1031A0000128CAD90127C8E74FF0FF30F1E7281DF1
:1031B000FFF7CEFBA86A18B105F11800FFF7C8FBAE
:1031C000E86A0121A26981401143A16100EB8001FD
:1031D00008EB8100291DFFF7F4FBE86A2168C96A42
:1031E0008842CDD30127CBE75C00002054010020AA
:1031F00070B504004FF0000140D0214D2868844292
:1032000007D0502080F31188BFF34F8FBFF36F8F2B
:10321000FEE7A06C38B1401EA064636CE26A9A427B
:103220002CD040B12AE0502080F31188BFF34F8F9B
:10323000BFF36F8FFEE7201DFFF78AFB114A0121C4
:1032400050B9E06A00EB800352F8233023B9AB6930
:1032500001FA00F08343AB61606CE062C0F10700EB
:10326000A061E06AAB6981401943A96100EB80006D
:1032700002EB8000211DFFF7A4FB0121084670BD71
:103280005C000020540100202DE9F041C068C468B2
:10329000ACB104F118000746FFF75AFB154DA86BB7
:1032A0000126A0B139461448FFF78BFBE06A296874
:1032B000C96A88421CD901206E62BDE8F0815020A5
:1032C00080F31188BFF34F8FBFF36F8FFEE7201D90
:1032D000FFF73EFBE16AAA6906FA01F01043A86114
:1032E00001EB81000449B43901EB8000211DDBE7CB
:1032F0000020E2E75C000020080200202DE9F047F2
:103300002C4D00242746A86B38B1FFF767FBA86B4C
:10331000401EA863A86B40B146E0502080F311889E
:10332000BFF34F8FBFF36F8FFEE72969224E012055
:10333000D1B3A6F1B40980463068E8B1F068C4683A
:1033400004F11800FFF704FB201DFFF701FBE06A02
:10335000AA6908FA00F11143A96100EB800109EBA9
:103360008100211DFFF72DFBE06A2968C96A8842A8
:10337000E2D3C5F82480DFE70CB1FFF72DF92C6A02
:1033800044B14646FFF7D0FE00B16E62641EF9D12B
:1033900000202862686A38B10849012738070860A8
:1033A000BFF34F8FBFF36F8FFFF738FB3846BDE891
:1033B000F08700005C0000200802002004ED00E01F
:1033C00000000000003E5B4F5B3E3E6B4F6B3E1CBF
:1033D0003E7C3E1C183C7E3C181C577D571C1C5ED6
:1033E0007F5E1C00183C1800FFE7C3E7FF001824AD
:1033F0001800FFE7DBE7FF30483A060E2629792957
:1034000026407F050507407F05253F5A3CE73C5A8B
:103410007F3E1C1C08081C1C3E7F14227F22145F68
:103420005F005F5F06097F017F006689956A6060C3
:1034300060606094A2FFA29408047E040810207EBD
:10344000201008082A1C08081C2A08081E10101042
:10345000100C1E0C1E0C30383E3830060E3E0E0688
:10346000000000000000005F0000000700070014DB
:103470007F147F14242A7F2A12231308646236499A
:103480005620500008070300001C22410000412282
:103490001C002A1C7F1C2A08083E08080080703087
:1034A00000080808080800006060002010080402F6
:1034B0003E5149453E00427F4000724949494621FC
:1034C00041494D331814127F1027454545393C4A70
:1034D0004949314121110907364949493646494987
:1034E000291E0000140000004034000000081422CF
:1034F000411414141414004122140802015909063D
:103500003E415D594E7C1211127C7F494949363E3D
:10351000414141227F4141413E7F494949417F0923
:103520000909013E414151737F0808087F00417F2E
:1035300041002040413F017F081422417F4040402C
:10354000407F021C027F7F0408107F3E4141413EC4
:103550007F090909063E4151215E7F091929462646
:103560004949493203017F01033F4040403F1F204A
:1035700040201F3F4038403F631408146303047821
:1035800004036159494D43007F4141410204081041
:1035900020004141417F040201020440404040407C
:1035A000000307080020545478407F2844443838EA
:1035B00044444428384444287F385454541800085C
:1035C0007E090218A4A49C787F0804047800447D36
:1035D00040002040403D007F1028440000417F40D3
:1035E000007C047804787C08040478384444443827
:1035F000FC1824241818242418FC7C080404084807
:103600005454542404043F44243C4040207C1C2057
:1036100040201C3C4030403C44281028444C9090B2
:10362000907C4464544C440008364100000077000C
:1036300000004136080002010204023C2623263C19
:103640001EA1A161123A4040207A385454555921A4
:10365000555579412154547841215554784020548E
:103660005579400C1E5272123955555559395454DA
:10367000545939555454580000457C410002457D49
:10368000420001457C40F0292429F0F0282528F04B
:103690007C545545002054547C547C0A097F49329F
:1036A000494949323248484832324A4848303A411A
:1036B00041217A3A42402078009DA0A07D394444BF
:1036C00044393D4040403D3C24FF2424487E49434A
:1036D000662B2FFC2F2BFF0929F620C0887E0903BB
:1036E00020545479410000447D413048484A3238E2
:1036F0004040227A007A0A0A727D0D19317D26290E
:10370000292F28262929292630484D402038080805
:10371000080808080808382F10C8ACBA2F10283439
:10372000FA00007B000008142A142222142A14082C
:10373000AA005500AAAA55AA55AA000000FF001029
:103740001010FF00141414FF001010FF00FF1010E1
:10375000F010F0141414FC001414F700FF0000FF24
:1037600000FF1414F404FC141417101F10101F1081
:103770001F1414141F00101010F0000000001F1080
:103780001010101F10101010F010000000FF10108B
:1037900010101010101010FF10000000FF14000097
:1037A000FF00FF00001F10170000FC04F4141417A2
:1037B00010171414F404F40000FF00F71414141488
:1037C000141414F700F7141414171410101F101FFA
:1037D000141414F4141010F010F000001F101F0047
:1037E00000001F14000000FC140000F010F0101086
:1037F000FF10FF141414FF141010101F000000001D
:10380000F010FFFFFFFFFFF0F0F0F0F0FFFFFF0010
:1038100000000000FFFF0F0F0F0F0F384444384423
:103820007C2A2A3E147E02020606027E027E026383
:10383000554941633844443C04407E201E20060222
:103840007E020299A5E7A5991C2A492A1C4C7201FF
:10385000724C304A4D4D303048784830BC625A4640
:103860003D3E494949007E0101017E2A2A2A2A2A31
:1038700044445F444440514A444040444A5140001B
:1038800000FF0103E080FF000008086B6B083612A0
:10389000362436060F090F06000018180000001025
:1038A00010003040FF0101001F01011E00191D170B
:1038B00012003C3C3C3C0000000000000000000006
:1038C00000000001020304060708090000000001CF
:1038D00002030400F438000800000020BC000000CF
:1038E000B01D0008B0390008BC0000208C41000069
:1038F000C01D000800008000A000FF0700000000BD
:1039000000000000000000000000000000000000B7
:1039100000000000000000000000000000000000A7
:103920000000000000000000000000000000000097
:103930000000000000000000000000000000000087
:103940000100000010000000000000000024F4004E
:103950000000000000000000000000000000000067
:103960000000000000000000000000000000000057
:103970000000000000000000000000000000000047
:103980000000000000000000000000000000000037
:103990000000000000000000000000000000000027
:1039A0000000000000000000AAAAAAAA000000006F
:040000050800018965
:00000001FF
